:020000040000FA
:1000000010A9002001030000090300000B030000F9
:100010000D0300000F0300001103000000000000AA
:1000200000000000000000000000000013030000BA
:1000300015030000000000008F0200003B3B0000A1
:100040001B0300001B0300001B0300001B03000038
:100050001B0300001B0300001B0300001B03000028
:100060001B0300001B0300001B0300001B03000018
:100070001B0300001B0300001B0300001B03000008
:100080001B0300001B0300001B0300001B030000F8
:100090001B0300001B0300001B0300001B030000E8
:1000A0001B0300001B0300001B0300001B030000D8
:1000B0001B0300001B030000000000000000000004
:1000C0001B0300001B0300001B0300001B030000B8
:1000D0001B0300001B0300001B0300001B030000A8
:1000E0001B0300001B0300001B0300001B03000098
:1000F000000000001B0300000000000000000000E2
:1001000000000000000000000000000000000000EF
:1001100000000000000000000000000000000000DF
:1001200000000000000000000000000000000000CF
:1001300000000000000000000000000000000000BF
:1001400000000000000000000000000000000000AF
:10015000000000000000000000000000000000009F
:10016000000000000000000000000000000000008F
:10017000000000000000000000000000000000007F
:10018000000000000000000000000000000000006F
:10019000000000000000000000000000000000005F
:1001A000000000000000000000000000000000004F
:1001B000000000000000000000000000000000003F
:1001C000000000000000000000000000000000002F
:1001D000000000000000000000000000000000001F
:1001E000000000000000000000000000000000000F
:1001F00000000000000000000000000000000000FF
:10020000DFF80CD000F01CFB00480047FD48000060
:1002100010A90020344C354D256035484FF00101C0
:1002200001604FF0020080F3148832484268314880
:100230000260304B186887884FF0100847EA0807BB
:100240008780D0F800C00CF1640CBCE8FF000CF112
:10025000480C8CF309882DED010ABDEC010AAE466D
:1002600062B63047EFF30580704772B67047EFF320
:10027000108072B67047EFF3108062B6704780F35B
:10028000108870471C484FF0805101607047EFF3B1
:10029000108C72B6194A126822B12DE900509047AD
:1002A000BDE80050EFF3098020E9F01F20ED108B2E
:1002B000104D2E683060B7884FF0100827EA080705
:1002C000B7800C484068286087884FF0100847EADC
:1002D000080787800168B1EC108BB1E8F01F81F34B
:1002E00009888CF31088704720ED00E00000F0F0E2
:1002F000500000201800002004ED00E05400002011
:100300000648804706480047FEE7FEE7FEE7FEE7AF
:10031000FEE7FEE7FEE7FEE7FEE7FEE7553B0000EF
:10032000010200002DE9F05F0546002092469B4641
:1003300088460646814640241BE0284641464746FB
:10034000224600F0DEF853465A46C01A914110D3B7
:1003500011461846224600F0C5F82D1A67EB010831
:100360004F4622460120002100F0BCF817EB00099F
:100370004E41201EA4F10104DFDC484631462A46E6
:100380004346BDE8F09FD2B201E000F8012B491EC0
:10039000FBD270470022F6E710B513460A46044622
:1003A0001946FFF7F0FF204610BD2DE9F04D81EA18
:1003B000030404F0004B21F0004514464FF0000AFE
:1003C00023F0004150EA050220D054EA01021DD07A
:1003D000C5F30A570246C5F31303C1F31300C1F373
:1003E0000A5640F4801543F48013A7EB0608101B4F
:1003F000D64608F2FD3873EB050002D308F1010878
:1004000001E092185B41B8F1000F03DA00200146C9
:10041000BDE8F08D00204FF48011064684460EE0C2
:10042000171B73EB050705D3121B63EB050306438C
:100430004CEA010C49084FEA300092185B4150EA3F
:100440000107EDD152EA030012D082EA040083EAE8
:100450000501084305D0101BAB4106D20122002341
:1004600006E000224FF0004302E06FF0010253105B
:100470001AEB06004CEB085110EB0A0041EB0B01A4
:10048000BDE8F04D00F04DB8C1F30A52C1F31301BD
:1004900040F2FF3341F480119A4202DA0020014613
:1004A000704740F233439A42A2F2334202DC524296
:1004B00000F027B800F016B830B50B460146002012
:1004C0002022012409E021FA02F59D4205D303FA16
:1004D00002F5491B04FA02F52844151EA2F1010297
:1004E000F1DC30BD202A04DB203A00FA02F10020C2
:1004F00070479140C2F1200320FA03F31943904062
:100500007047202A04DB203A21FA02F000217047CC
:1005100021FA02F3D040C2F120029140084319466B
:10052000704710B5141E73F1000408DA401C41F145
:10053000000192185B411A4301D120F0010010BD67
:100540002DE9F04D92469B4611B1B1FA81F202E0DD
:10055000B0FA80F220329046FFF7C4FF04460F46FF
:1005600040EA0A0041EA0B0153465A46084313D0B9
:10057000114653EA010019D0C8F140025046FFF776
:10058000C0FF05460E46504659464246FFF7AAFFB1
:10059000084305D0012004E020463946BDE8F08D2F
:1005A0000020054346EAE0762C4337430A9863056A
:1005B000E40AA0EB08000022FD0A44EA47540A308E
:1005C00002D500200146E9E7010510196941DDE97E
:1005D000084500196941BDE8F04DA2E72DE9FE4F3D
:1005E000804681EA0300C00F0C46009021F00041D4
:1005F00023F00045B8EB0200A94105D24046214650
:1006000090461C460B46024623F00040104347D05C
:10061000270DC7F30A00C3F30A510290401A019054
:1006200040286BDAC3F3130040F4801B0098924615
:1006300020B10023D2EB030A63EB0B0B0198594660
:10064000C0F140025046FFF74DFF06460D465046AA
:100650005946019A00F006F910EB080061410024A8
:1006600087EA115284EAE7731A4340D0009A62B3D2
:10067000019A012A4FEA075215DC001B61EB0201C7
:100680004FF0004202EA0752CDE90042001C41F55A
:10069000801132462B46FFF753FF03B0BDE8F08FC1
:1006A00040462146F9E7001B61EB0201001C41F5C1
:1006B000801300185B412018A2F5001747EB0301D7
:1006C00040EAD570B6196D4111E06D084FEA360663
:1006D00045EAC0754FEA0752001B61EB0201001C9E
:1006E00041F5801149084FEA300000195141324666
:1006F0002B4603B0BDE8F04FFFF713BF009801226F
:1007000040000023D0EB020263EBE0730098214627
:100710004FEAE074B8EB000061EB0401E9E783F015
:1007200000435BE781F0004158E72DE9FE4F81EA85
:10073000030404F0004421F0004100944FF0000B4A
:1007400023F0004350EA01045ED052EA03045BD078
:10075000C3F30A54C1F30A552C44A4F2F3340194B0
:10076000A0FB0254C1F3130141F48011C3F313033E
:1007700043F4801301FB024400FB034E840A970AF2
:1007800044EA815447EA8357A4FB076802958D0A1F
:1007900005FB07854FEA932C04FB0C542705029DAB
:1007A0004FEA065847EA1637B5EB08056EEB070C1B
:1007B000870E920E47EA811742EA8312A7FB0201D5
:1007C000B6EB0B0164EB00042B0D43EA0C335E180F
:1007D00044EB1C50DA465146E7FB0201C5F3130413
:1007E0004FEA0B3343EA14534FEA0432019C43EAC5
:1007F0000603A4F10C040294009CCDE900B4FFF7B9
:100800009FFE03B0BDE8F08F00200146F9E700002D
:1008100030B5041E71F1000404DB4FF00044404287
:1008200064EB0101141E73F1000405DB1C464FF05C
:100830000043524263EB0403994208BF904230BD2B
:10084000064C074D06E0E06840F0010394E807001D
:1008500098471034AC42F6D3FFF7D6FCD85C0000C2
:10086000F85C0000202A06DBCB17203A41FA02F0A0
:1008700043EAE07306E041FA02F3D040C2F12002FD
:10088000914008431946704770B58C1810F8015B09
:1008900015F0070301D110F8013B2A1106D110F819
:1008A000012B03E010F8016B01F8016B5B1EF9D11D
:1008B0002B0705D40023521E0DD401F8013BFAE7A3
:1008C00010F8013BCB1A921C03E013F8015B01F80E
:1008D000015B521EF9D5A142D8D3002070BD0000A3
:1008E00070B500244FF400411F48006801F093FEEA
:1008F00005461DB91DA003F08BFA04E020A003F00B
:1009000087FA012070BD04211748006801F006FE37
:10091000044624B920A003F07BFA0120F2E723A0CB
:1009200003F076FA4FF44F70206024A0216803F0A2
:100930006FFA21460C48006801F043FE05463DB9B8
:1009400022A003F065FA0021092001F0B5FB08E0C0
:1009500022A003F05DFA0121092001F0ADFB012086
:10096000D0E70020CEE70000940000206D656D7098
:100970006F6F6C20696E6974206F6B210A00000034
:100980006D656D706F6F6C20696E6974206661694A
:100990006C6564210A0000006D656D20616C6C6FF0
:1009A00063206661696C6564210A00006D656D20D5
:1009B000616C6C6F63206F6B0A0000002A705F6EC1
:1009C000756D203D2025640A000000006D656D20D6
:1009D00066726565206F6B210A0000006D656D20F1
:1009E00066726565206661696C6564210A000000B5
:1009F00010B501210EA003F00BFA6423042201219B
:100A0000134801F07DF90446012C08D1214611A0BC
:100A100003F0FEF90021012001F04EFB06E015A0D5
:100A200003F0F6F90121084601F046FB10BD000075
:100A30004578616D706C655F4576656E7420776191
:100A40006974206576656E742030782578200A00F8
:100A5000AC8600204578616D706C655F4576656E8B
:100A6000742C72656164206576656E74203A307806
:100A700025780A004578616D706C655F4576656E16
:100A8000742C72656164206576656E742074696D7E
:100A9000656F75740A0000002DE9F04101F082F8DD
:100AA0008046B8F1000F03D041461BA003F0B0F917
:100AB00003F020F804460D460022134662406B40C6
:100AC0001A4303D021461BA003F0A2F9C82002F06C
:100AD000E3FD03F00FF80F46064600221146724070
:100AE00079400A4303D0314618A003F091F9321B34
:100AF00067EB0500C83A70F1000006D3002105201D
:100B000001F0DAFA0020BDE8F0810121052001F0B2
:100B1000D3FA0120F7E700004C4F535F4379636C31
:100B2000655065725469636B476574203D20256488
:100B3000200A00004C4F535F5469636B436F756E1E
:100B400074476574203D202564200A004C4F535F94
:100B50005469636B436F756E744765742061667486
:100B600065722064656C6179203D202564200A004F
:100B700010B58CB000241F4801900920ADF8080082
:100B80004FF4007007901CA008908020099002F09C
:100B900077FE01A90BA802F06FFC044634B1214690
:100BA00018A003F035F920460CB010BD1D48019087
:100BB00001A90AA802F060FC04462CB121461AA043
:100BC00003F026F92046EFE7182000231E4A0521EE
:100BD00000901EA002F00CF804461CB121461DA096
:100BE00003F016F923A003F013F902F023FF00200D
:100BF000DAE700007D5B000073656E645175657512
:100C000065000000637265617465207461736B3107
:100C1000206661696C6564212C6572726F723A2579
:100C2000780A0000B15A000063726561746520742F
:100C300061736B32206661696C6564212C65727228
:100C40006F723A25780A0000A8000020717565755A
:100C50006500000063726561746520717565756576
:100C6000206661696C757265212C6572726F723ACB
:100C700025780A0063726561746520746865207167
:100C8000756575652073756363657373210A00006C
:100C900010B592B02C4801F0D1FD02F0F1FD2421F5
:100CA00009A8FFF777FB2948099029A010904FF475
:100CB00034700F900520ADF8280009A9274802F0EC
:100CC000DBFB04462CB126A003F0A2F8012012B0F1
:100CD00010BD24216846FFF75DFB2748009027A040
:100CE00007904FF4347006900420ADF80400694674
:100CF000254802F0C1FB044624B124A003F088F883
:100D00000120E4E702F096FE4FF4967002F0C4FC76
:100D10000D48006801F0C4FD1048006802F0FCFCBA
:100D2000044624B11FA003F073F80120CFE7164852
:100D3000006802F0F1FC044624B120A003F068F83A
:100D40000120C4E70020C2E7C0000020D50D00004C
:100D50004D7574657854736B31000000C400002039
:100D60007461736B312063726561746520666169BB
:100D70006C6564202E0A0000ED0E00004D75746550
:100D80007854736B32000000C80000207461736BEC
:100D90003220637265617465206661696C656420E8
:100DA0002E0A00007461736B312064656C65746594
:100DB000206661696C6564202E0A00007461736BA3
:100DC000322064656C657465206661696C656420B9
:100DD0002E0A000010B517A003F01AF80A211F48C8
:100DE000006801F091FD04463CB91DA003F010F825
:100DF0001A48006801F02CFE10BD2148844216D12B
:100E000020A003F005F84FF0FF311448006801F00E
:100E10007BFD04465CB928A002F0FAFF0F48006889
:100E200001F016FE0021042001F046F9E4E700BFBE
:100E3000E2E700007461736B312074727920746F83
:100E400020676574206D757465782C2077616974EE
:100E5000203130205469636B2E0A0000C00000204E
:100E60007461736B3120676574206D7574657820CB
:100E7000675F546573746D757830312E0A00000019
:100E8000071D00027461736B312074696D656F75A5
:100E90007420616E642074727920746F20676574A9
:100EA00020206D757465782C207761697420666FD9
:100EB00072657665722E0A007461736B31207761FA
:100EC000697420666F72657665722C676F74206D29
:100ED0007574657820675F546573746D757830310B
:100EE00020737563636573732E0A000010B50FA03D
:100EF00002F08EFF4FF0FF311648006801F004FD4C
:100F000004461CB114A002F083FF10BD19A002F02A
:100F10007FFF642002F0C0FB23A002F079FF0D48A0
:100F2000006801F095FD00BFEFE700007461736B8E
:100F3000322074727920746F20676574206D757427
:100F400065782C207761697420666F7265766572AA
:100F50002E0A0000C00000207461736B32204C4FD9
:100F6000535F4D757850656E64206661696C656489
:100F7000202E0A007461736B3220676574206D75D2
:100F800074657820675F546573746D7578303120AF
:100F9000616E642073757370656E6420313030202B
:100FA0005469636B2E0A00007461736B32207265A2
:100FB00073756D656420616E6420706F7374207446
:100FC000686520675F546573746D757830310A0009
:100FD00010B515A002F01CFF0A212248006802F09B
:100FE00059F8044624B91F48006802F0D3F810BD30
:100FF0001D48844216D11D4802F00AFF4FF0FF3110
:101000001848006802F046F804465CB918A002F0DF
:10101000FFFE1448006802F0BDF80021032001F033
:101020004BF8E4E700BFE2E74578616D706C655FFF
:1010300053656D5461736B312074727920676574E8
:101040002073656D20675F757353656D4944202C6F
:1010500074696D656F7574203130207469636B73CA
:101060002E0A0000D400002007070002945C000054
:101070004578616D706C655F53656D5461736B315C
:1010800020776169745F666F726576657220616E44
:101090006420676F742073656D20675F7573536597
:1010A0006D494420737563636573732E0A000000F5
:1010B00010B50CA002F0ACFE4FF0FF3117480068ED
:1010C00001F0E8FF044614B915A002F0A1FE1420B7
:1010D00002F0E2FA22A002F09BFE1048006802F043
:1010E00059F810BD4578616D706C655F53656D543E
:1010F00061736B3220747279206765742073656D3B
:1011000020675F757353656D49442077616974206A
:10111000666F72657665722E0A000000D4000020AA
:101120004578616D706C655F53656D5461736B32AA
:10113000206765742073656D20675F757353656DF7
:10114000494420616E64207468656E2064656C613A
:10115000792032307469636B73202E0A000000001E
:101160004578616D706C655F53656D5461736B326A
:1011700020706F73742073656D20675F757353659E
:101180006D4944202E0A000010B592B00024314968
:10119000002001F019FF02F073FB242109A8FFF7DA
:1011A000F9F82D4809902DA010904FF4A0600F90F1
:1011B0000520ADF8280009A92B4802F05DF9044686
:1011C0002CB12AA002F024FE012012B010BD24216F
:1011D0006846FFF7DFF82B4800902BA007904FF4EC
:1011E000A06006900420ADF804006946294802F08A
:1011F00043F9044664B128A002F00AFE1A480068C8
:1012000002F08AFA10B12AA002F002FE0120DCE707
:1012100002F010FC0F48006801F0BCFF04462820D3
:1012200002F03AFA0B48006801F004FF0E4800682B
:1012300002F072FA18B11EA002F0EAFD012415486E
:10124000006802F069FA18B11FA002F0E1FD012464
:101250002046BAE7D4000020D10F00004D75746518
:101260007854736B31000000CC0000207461736B04
:101270003120637265617465206661696C65642004
:101280002E0A0000B11000004D7574657854736B20
:1012900032000000D00000207461736B3220637252
:1012A00065617465206661696C6564202E0A0000C2
:1012B0007461736B312064656C6574652066616967
:1012C0006C6564202E0A00007461736B32206465C3
:1012D0006C657465206661696C6564202E0A000087
:1012E00010B58AB0274800F0D5FC04462CB126A0E2
:1012F00002F08EFD01200AB010BD242101A8FFF7E5
:1013000049F82748019027A008904FF434700790BF
:101310000520ADF8080001A9254802F0ADF8044603
:1013200024B124A002F074FD0120E4E727A002F01C
:101330006FFD0121134800F091FD044624B12DA05A
:1013400002F066FD0120D6E70E4801682FA002F0EA
:101350005FFD0C480068C1430A4800F087FC09485B
:1013600001682AA002F054FD1148006802F0D4F987
:10137000044624B129A002F04BFD0120BBE7002068
:10138000B9E70000AC860020696E69742065766557
:101390006E74206661696C6564202E0A000000008E
:1013A000F10900004576656E7454736B31000000DE
:1013B000A00000207461736B206372656174652006
:1013C0006661696C6564202E0A0000004578616DD5
:1013D000706C655F5461736B456E7472795F4576AE
:1013E000656E74207772697465206576656E742009
:1013F0002E0A00006576656E742077726974652028
:101400006661696C6564202E0A0000004576656E91
:10141000744D61736B3A25640A0000007461736B4C
:101420002064656C657465206661696C6564202E56
:101430000A0000002DE9F04100240326322732463D
:101440003946204801F0BAF905462DB11EA002F038
:10145000DFFC0120BDE8F08121A002F0D9FC194891
:1014600001F02CF9044624B922A002F0D1FC01209D
:10147000F0E726A002F0CCFC4FF44F70206028A0CB
:10148000216802F0C5FC21460E4801F037F928A07A
:10149000216802F0BDFC21460A4801F03DF90546ED
:1014A0003DB92AA002F0B4FC0021082000F004FE9F
:1014B00006E02BA002F0ACFC0121082000F0FCFDAE
:1014C0000020C7E7B88600204D656D20626F782048
:1014D000696E6974206661696C65640A00000000C9
:1014E0004D656D20626F7820696E6974206F6B2185
:1014F0000A0000004D656D20626F7820616C6C6F92
:1015000063206661696C6564210A00004D656D2089
:10151000626F7820616C6C6F63206F6B0A00000053
:101520002A705F6E756D203D2025640A0000000062
:10153000636C6561722064617461206F6B0A202A9C
:10154000705F6E756D203D2025640A004D656D202D
:10155000626F782066726565206F6B210A0000005B
:101560004D656D20626F78206672656520666169E1
:101570006C6564210A00000010B519A002F048FC57
:10158000052002F089F8044624B11BA002F040FCBB
:10159000012010BD1EA002F03BFC2548006802F0AF
:1015A000D7F9044644B123A002F032FC0121002007
:1015B00000F082FD0120ECE725A002F029FC0021CB
:1015C000084600F079FD1A48006802F0A5F820B13D
:1015D00028A002F01DFC0120DBE70020D9E7000075
:1015E000456E746572205461736B48692048616E62
:1015F000646C65722E0D0A0044656C61792054613B
:10160000736B204661696C65642E0D0A0000000052
:101610005461736B4869204C4F535F5461736B4442
:10162000656C617920446F6E652E0D0A0000000024
:10163000D800002053757370656E64205461736B1D
:101640004869204661696C65642E0D0A000000003F
:101650005461736B4869204C4F535F5461736B52F4
:101660006573756D6520537563636573732E0D0A1D
:10167000000000005461736B48692064656C6574F8
:1016800065206661696C6564202E0A0010B515A09E
:1016900002F0BEFB0A2001F0FFFF044624B117A0B0
:1016A00002F0B6FB012010BD1AA002F0B1FB2248E7
:1016B000006802F0F5F8044644B120A002F0A8FB4F
:1016C0000121002000F0F8FC0120ECE7214800682F
:1016D00002F022F820B120A002F09AFB0120E2E7FC
:1016E0000020E0E7456E746572205461736B4C6FA7
:1016F0002048616E646C65722E0D0A0044656C6151
:1017000079205461736B4C6F204661696C65642E5F
:101710000D0A00005461736B4869204C4F535F54AD
:1017200061736B53757370656E6420537563636585
:1017300073732E0D0A000000D800002052657375E7
:101740006D65205461736B4869204661696C6564FE
:101750002E0D0A00DC0000205461736B4C6F206476
:10176000656C657465206661696C6564202E0A008D
:1017700010B58AB002F084F823A002F049FB294892
:1017800001900420ADF8080027A008904FF40070E5
:1017900007908020099001A9264801F06DFE0446BB
:1017A0003CB102F047F924A002F032FB01200AB05C
:1017B00010BD29A002F02CFB304801900520ADF8A7
:1017C00008002FA008904FF4007007908020099027
:1017D00001A92E4801F050FE044674B11548006876
:1017E00001F09AFF10B12AA002F012FB02F022F9D8
:1017F0002DA002F00DFB0120D9E733A002F008FB79
:1018000002F018F92046D2E74C4F535F5461736BD6
:101810004C6F636B28292053756363657373210DC7
:101820000A00000079150000484947485F4E414DC5
:1018300045000000D80000204578616D706C655F40
:101840005461736B486920637265617465204661F9
:10185000696C6564210D0A004578616D706C655F87
:101860005461736B486920637265617465205375B8
:101870006363657373210D0A000000008D1600007C
:101880004C4F575F4E414D4500000000DC000020EA
:101890005461736B48692064656C6574652066618A
:1018A000696C6564202E0A004578616D706C655F17
:1018B0005461736B4C6F206372656174652046617F
:1018C000696C6564210D0A004578616D706C655F17
:1018D0005461736B4C6F206372656174652053753E
:1018E0006363657373210D0A000000002DE9F04168
:1018F00038A002F08DFA08213A48006800F00EFE88
:10190000044620464060006000BF00BF416881423D
:1019100001D1012100E0002129B933A002F078FAB9
:101920000120BDE8F08134A002F072FA08212D48B0
:10193000006800F0F3FD054608212A48006800F021
:10194000EDFD064608212748006800F0E7FD074640
:101950002946204600F0CCFC3146284600F0C8FC61
:101960002868A04202D03068A84202D12AA002F022
:101970004FFA00BF3946206800F0BAFC00BF386853
:10198000B04202D129A002F043FA2DA002F040FAA1
:1019900000BFD5E900010860D5E9001048600020CB
:1019A0006860286000BF284602F080FF6068B0428F
:1019B00007D128A002F02CFA0021072000F07CFBC0
:1019C00006E02AA002F024FA0121072000F074FBAF
:1019D0000020A6E7696E697469616C2E2E2E2E2E8A
:1019E0002E0A000094000020696E697469616C2001
:1019F0006661696C65640A006E6F64652061646489
:101A000020616E64207461696C206164642E2E2EE6
:101A10002E2E2E0A00000000616464206E6F646543
:101A200020737563636573730A000000616464204A
:101A30007461696C20737563636573730A000000D9
:101A400064656C657465206E6F64652E2E2E2E2E77
:101A50002E0A000064656C657465206E6F646520F5
:101A6000737563636573730A0000000064656C65D9
:101A70007465206E6F6465206572726F720A000073
:101A80000EB5012002AB234A002100904FF47A707A
:101A900001F0E8FB012001AB1F4A014600906420E1
:101AA00001F0E0FB1DA002F0B3F9BDF8080001F061
:101AB00061FC20A002F0ACF9C82001F0EDFDBDF8FA
:101AC000080001F099FC21A002F0A2F9BDF808007D
:101AD00001F050FC4FF47A7001F0DEFDBDF8080013
:101AE00001F006FC1EA002F093F9BDF8040001F01D
:101AF00041FC21A002F08CF94FF47A7001F0CCFD8A
:101B0000BDF8040001F078FCBDF8040001F0F0FB22
:101B100000200EBD693D0000B93D000063726561A3
:101B200074652054696D65723120737563636573E4
:101B3000730A000073746172742054696D657231A8
:101B4000207375636573730A0000000073746F700F
:101B50002054696D657231207375636573730A0073
:101B600064656C6574652054696D657231207375A8
:101B7000636573730A0000007374617274205469A2
:101B80006D6572320A00000002465018401E9042F5
:101B900004D95018401E4B1E98437047481E22EA35
:101BA0000000FAE74FF47A50704710B50246144629
:101BB0002046002305E001464960096000BF5B1C28
:101BC00008301B2BF7D310BD2DE9F04105460E461A
:101BD0002F46304600F000FC04461E2C02D900209F
:101BE000BDE8F081042C00D80424201F07EBC000BE
:101BF000F6E710B503F034FE04460CB1204610BDE4
:101C00002046FCE770B50446FF25042C01DDFF20CB
:101C100070BD204602F066FD05462846F8E710B57F
:101C200002F07AFD10BD70B505460C46012C03D1BB
:101C3000284602F0A1FD02E0284602F093FD70BDA7
:101C400010B502F0A3FD10BD10B5FFF7F9FFFFF7C7
:101C5000E6FF00F001F810BD10B503F0C9FF10BD9C
:101C600000B50346184603F0FBFF00BD70B50446FF
:101C70000D460CB9064870BDFEF7F9FA0646206815
:101C8000284020603046FEF7FAFA0020F3E7000013
:101C9000061C0002014609B904487047002008608C
:101CA000081D4060006000BF0020F6E7061C00022F
:101CB0002DE9F04104460D4616460027FEF7D7FAF7
:101CC000804606F0020030B12068284058B12068F4
:101CD00000EA050707E035B120682840A84202D194
:101CE000206800EA05072FB106F0010010B1206856
:101CF000B84320604046FEF7C2FA3846BDE8F0819E
:101D00002DE9F05F8146884616461F464FF0000ACF
:101D1000B9F1000F02D14D48BDE8F09FB8F1000FB6
:101D200002D14A48001FF7E708F0007010B1474899
:101D3000801FF1E706F0020010B106F0040028B998
:101D400026F0070010B906F0060010B93F48801EC3
:101D5000E2E73F48006810B13C48C01EDCE7FEF7F0
:101D600086FA8346324641464846FFF7A1FF82463F
:101D7000BAF1000F64D127B95846FEF780FA5046F1
:101D8000CAE73448008828B15846FEF778FA2F4849
:101D9000401EC1E73048046804F13C0000F0D8FE62
:101DA000A08820F00400A08004F13C05A08840F049
:101DB0000800A080C4F85C80266600BFD9F8040043
:101DC00041686960286041680D60456000BF00BFE0
:101DD0007FB1781C68B1A08840F04000A0803946EF
:101DE000204603F09FFA5846FEF749FA01F0CCF876
:101DF00008E0A08820F04000A0805846FEF73FFA97
:101E000001F0C2F8207900F0400060B1FEF72FFA2F
:101E10008346A08820F04000A0805846FEF72FFAA5
:101E20000A48401F78E7FEF722FA834632464146C9
:101E30004846FFF73DFF82465846FEF720FA02E08B
:101E40005846FEF71CFA504666E70000061C0002E2
:101E50009000002020000020180000202DE9F0470D
:101E600005460E460027B84615B93948BDE8F08743
:101E700006F0007010B13648801FF7E7FEF7F7F95B
:101E80008146286830432860281D4168814201D17D
:101E9000012100E00021002955D1A868A0F13C04EF
:101EA0003FE0206CA0F13C0794F8600000F00200D5
:101EB00010B1E06D304050B994F8600000F00400BB
:101EC00070B3E06D29680840E16D884228D14FF079
:101ED000010800BFD4E90F010860D4E90F10486081
:101EE00000202064E06300BFA08820F00800A080EC
:101EF000207900F0400030B1204603F0E7FCA088D4
:101F000020F04000A080207900F0020040B9A088B5
:101F100040F00400A080E18804F13C0000F024FEC1
:101F20003C4604F13C00291D8842BAD1B8F1010FAA
:101F300005D14846FEF7A3F901F026F806E0484629
:101F4000FEF79DF902E04846FEF799F900208DE77B
:101F5000061C00022DE9F04105460027FF260A2D48
:101F600006DB29462EA001F053FF0120BDE8F081D9
:101F7000002449E0314800EB04100078A84242D127
:101F80002E4800EB0410406828B929462CA001F027
:101F90003FFF0120EAE7294901EB04114868804727
:101FA000074600BF254800EB0410407850B94FB9F0
:101FB000224800EB041000F108012DA001F028FFD9
:101FC000002610E01D4800EB0410407801280AD1DB
:101FD00001261A4800EB041000F108012A480268A3
:101FE0002AA001F015FF642001F056FB134800EB16
:101FF00004104078FF28D5D0104800EB041040783A
:10200000B042CFD102E0641C0A2CB3D300BF0A2C2B
:1020100001D10120AAE70EB10120A7E70020A5E722
:102020000D0A496E73706563744944203D205B2539
:10203000645D204572722E0D0A000000F000002041
:10204000496E73706563744944203D205B25645D6F
:10205000204572722C496E737065637466756E6389
:10206000206973204E554C4C2E0D0A0D0A000000BD
:10207000496E73706563742025732073756363659F
:1020800073730D0A0D0A0000E8000020496E73709A
:10209000656374202573206572726F722C67496EB8
:1020A0007370656374457272436E74203D205B25C6
:1020B000645D0D0A0D0A000070B505460E46002449
:1020C0000A2D05DB29460CA001F0A2FE012070BDFF
:1020D00000240AE00F4800EB04100078A84203D166
:1020E0000C4800EB04104670641C0A2CF2D301D19A
:1020F0000120ECE70020EAE70D0A496E7370656382
:10210000744944203D205B25645D204572722E0D8C
:102110000A000000F000002010B58AB0242101A8B8
:10212000FEF738F9094801904FF4A060079008A025
:1021300008900920ADF8080001A9084801F09CF9B1
:1021400004460CB10AB010BD00BFFBE7CD21000072
:10215000496E737065637454736B0000EC0000206B
:1021600070B505460C462846FFF74CFD01281AD1EC
:10217000322001F091FA2846FFF744FD01280DD1E5
:1021800001212046FFF74FFD09A001F041FE00BFED
:102190002846FFF737FD0128FAD008E00021204645
:1021A000FFF741FD03E000212046FFF73CFD70BD35
:1021B0000D0A496E7370656374204B6579207375E1
:1021C0006363657373200D0A000000000025002082
:1021D0001249086012A001F01BFE00240EE0E0B2DC
:1021E000FFF7B8FE054645B10C480068401C0B4996
:1021F000086001210846FFF716FD641C0A2CEEDB7F
:10220000064801680CA001F003FE16A001F000FED4
:1022100003E000210846FFF7A3FFFAE7E8000020EB
:102220000D0A4C6F7320496E73706563742073746C
:102230006172742E0D0A0000496E7370656374201C
:10224000636F6D706C657465642C67496E7370653F
:102250006374457272436E74203D205B25645D0D8E
:102260000A0D0A000D0A4C6F73204B6579206578C2
:10227000616D706C653A20706C6561736520707279
:102280006573732074686520557365724B6579209A
:102290006B6579200D0A000010B502F0E3FB0446DF
:1022A0000CB1012010BD0020FCE742684A600860C4
:1022B000426811604160704742684A600860426845
:1022C00011604160704742684A600860426811606E
:1022D0004160704742684A6008604268116041602E
:1022E000704742684A600860426811604160704708
:1022F00042684A6008604268116041607047D0E9F6
:1023000000121160D0E9002151600021416001609C
:102310007047D0E900121160D0E90021516000211E
:10232000416001607047D0E900121160D0E90021DE
:1023300051600021416001607047D0E900121160D6
:10234000D0E90021516000214160016070470146E1
:102350004868884201D1012070470020FCE701460F
:102360004868884201D1012070470020FCE70146FF
:102370004868884201D1012070470020FCE70146EF
:102380004868884201D1012070470020FCE7406086
:1023900000607047406000607047406000607047B8
:1023A00040600060704770B504460D4629462068BD
:1023B000FFF77BFF70BD70B504460D4629462068C7
:1023C000FFF77AFF70BD70B504460D4629462068B8
:1023D000FFF780FF70BD0000014601F0004010B122
:1023E0006FF0704070474C480840002847D001F01B
:1023F000FE40F8B101F0E04058B101F0804008B172
:102400001E20EFE701F0005008B11D20EAE71C2074
:10241000E8E701F0406030B101F0006008B11B2036
:10242000E0E71A20DEE701F0007008B11920D9E7D3
:102430001820D7E701F4700080B101F4400030B1FA
:1024400001F4000008B11720CCE71620CAE701F418
:10245000001008B11520C5E71420C3E701F440209F
:1024600030B101F4002008B11320BBE71220B9E716
:1024700001F4003008B11120B4E71020B2E701F4F4
:102480007F4020B301F4704080B101F4404030B18E
:1024900001F4004008B10F20A4E70E20A2E701F4E8
:1024A000005008B10D209DE70C209BE701F440602F
:1024B00030B101F4006008B10B2093E70A2091E7E6
:1024C00001F4007008B109208CE708208AE701F0C8
:1024D000F00080B101F0C00030B101F0800008B11F
:1024E00007207FE706207DE701F0200008B10520E6
:1024F00078E7042076E701F00C0030B101F0080025
:1025000008B103206EE702206CE701F0020008B179
:10251000012067E7002065E70000FF7F2DE9F0411B
:1025200005460C460026FDF7A2FE074600BF05B192
:1025300004B909E004F0004000B105E02146284656
:1025400002F0C8FA064600BF00BF3846FDF797FE06
:102550003046BDE8F0812DE9F05F80460F46144615
:102560004FF00009CA4600250026FDF780FE83468D
:1025700000BFB8F1000F00D007B91BE0381900F117
:10258000040909F0004000B114E04946404602F059
:10259000A1FA05462819401E611E20EA0106B5422F
:1025A00000D107E0A6EB050A4AF0804A46F804ACE1
:1025B000354600BF00BF5846FDF761FE2846BDE81E
:1025C000F09F2DE9F04705460C4601270026FDF750
:1025D0004EFE814600BFB04605B104B914E054F880
:1025E000046C06F0804010B126F08046A41BA4F1D4
:1025F00010084146284602F09BFA07461FB92946B3
:10260000404602F009FB00BF00BF4846FDF737FE19
:102610003846BDE8F0872DE9F04704468846002596
:1026200000270026A94614B1B8F1FF0F03D84FF0D8
:10263000FF30BDE8F087FDF71AFE82462646344695
:102640003660C6F8048004F10800FFF7AEFA04F122
:10265000E005281BA8EB00001038E8600020A86007
:1026600004F10800E968FFF7AFFA8146B9F1000FFD
:1026700005D15046FDF703FE4FF0FF30D9E700BF0C
:102680002946D9F80000FFF72CFE00BF04EB080034
:10269000A0F11007002038607860B860F860BD6075
:1026A0001020F860F86840F00040F860384602F00A
:1026B0003DFB5046FDF7E3FD0020BAE72DE9F04170
:1026C00005462F460026002415B90020BDE8F081FC
:1026D000FDF7CDFD804607F10806306820B134686B
:1026E00020683060044820604046FDF7C8FD0CB902
:1026F0000020EBE7201DE9E7A55A5AA570B504466E
:102700000D46264604B105B970BD3068011F284644
:10271000FDF740FE00BFF7E72DE9F04705460E46FE
:102720002C46012705B116B90120BDE8F087FDF759
:102730009EFD804600BF311F20460A46D0F800C0EB
:10274000BCF1000F02D14FF0010C25E000F10C0CA0
:10275000A2EB0C03D0F800C0B3FBFCF90CFB193C56
:10276000BCF1000F02D04FF0010C15E0D0F800C012
:10277000B3FBFCFCD0F80490CC4502D34FF0010C25
:102780000AE0DFF83490D2F800C0CC4502D04FF018
:10279000010C01E04FF0000CBCF1000F00D004E090
:1027A000A0680860A160002700BF00BF4046FDF799
:1027B00066FD3846B9E70000A55A5AA52DE9F0474D
:1027C00006460F4690463446002516B90120BDE85E
:1027D000F087B8F1000F01D10120F8E70C2F01D2EA
:1027E0000120F4E7FDF743FD824608F1070020F0E1
:1027F00003002060A7F10C002168B0FBF1F06060DD
:10280000606820B95046FDF73AFD0120DFE704F18A
:102810000C05A5604FF0000905E0206828442860F9
:102820002D6809F101096068401E4845F5D800206F
:1028300028605046FDF723FD0020C8E72DE9F04150
:10284000054615B91448BDE8F081FDF710FD0746AF
:102850001248FFF784FD28B13846FDF710FD0E48F9
:10286000401CF0E70D4846683046FFF752FDA6F1E0
:10287000080400206080012020700020A0822061D8
:1028800004F10800FFF786FD606828603846FDF710
:10289000F6FC0020D7E70000021D000274000020B3
:1028A00070B5054605EB45001449096801EBC00405
:1028B000FDF7DDFC06460A2D01D2207820B930460E
:1028C000FDF7DDFC0E4870BD04F10800FFF747FD81
:1028D00008B1608828B13046FDF7D1FC08480830BF
:1028E000F1E704F108010748FFF7E6FC002020703B
:1028F0003046FDF7C4FC0020E5E700007000002032
:10290000011D0002740000202DE9F04706460F4625
:1029100006EB46004949096801EBC005FDF7A7FC35
:1029200082460A2E01D2287828B95046FDF7A7FC26
:102930004348BDE8F0874348006828B15046FDF79A
:102940009EFC3F48001DF4E73F480468688850B982
:102950006888401C68802C61E088A8825046FDF79A
:102960008EFC0020E5E72869A04207D16888401C5A
:1029700068805046FDF783FC0020DAE72FB9504607
:10298000FDF77DFC2E48C01CD3E73048008820B1FD
:10299000DFF8AC8008F105084AE004F13C0000F0E3
:1029A000D7F8A08820F00400A080656204F13C09FB
:1029B000A08840F00800A0802869C088E18888428B
:1029C00003DDE188286902F02FFE494605F1080081
:1029D000FFF7F1FC781C68B1A08840F04000A080AF
:1029E0003946204602F09EFC5046FDF748FC00F0B8
:1029F000CBFA08E0A08820F04000A0805046FDF708
:102A00003EFC00F0C1FA207900F0400070B1FDF703
:102A10002EFC8246A08820F04000A0805046FDF7A2
:102A20002EFCDFF81C8008F1060805E0002080E796
:102A30005046FDF724FC00BF40467AE770000020B6
:102A4000011D00029000002018000020200000203E
:102A50002DE9F041064606EB46003949096801EBCD
:102A6000C004FDF704FC80460A2E01D2207828B964
:102A70004046FDF704FC3348BDE8F0813248006869
:102A800028B14046FDF7FBFB2E48001DF4E72F4818
:102A90000768608810B12069B84204D04046FDF74D
:102AA000EEFB2848E8E76088401E80B2608020B1D5
:102AB0004046FDF7E4FB0020DEE72069C088A18ADC
:102AC000884203D0A18A206902F0AEFD04F108001B
:102AD000FFF745FC70BBE068A0F13C05E068FFF73C
:102AE00018FCA88820F00800A880287900F0400091
:102AF00030B1284602F0EAFEA88820F04000A88005
:102B0000012060802561E888A08200206862287921
:102B100000F0020040B9A88840F00400A880E988CD
:102B200005F13C0000F020F84046FDF7A8FB00F05E
:102B30002BFA02E04046FDF7A2FB00209CE70000D4
:102B400070000020011D00029000002018000020ED
:102B500000BFD0E900121160D0E9002151600021CE
:102B60004160016000BF704710B50A460649096818
:102B700001EBC20319684C68446001604C68206036
:102B8000486000BF00BF10BD0000002001460020CB
:102B90000022074B1B6803EBC1035A6801E0401C8D
:102BA0005268034B1B6803EBC1039342F7D1704794
:102BB0000000002000210020014612E00B4A1268AC
:102BC00002EBC1004268824201D1012200E00022F2
:102BD0002AB90648006800EBC10040687047481CED
:102BE00001462029EAD30020F8E700000000002079
:102BF0002DE9F84F81460C4615469A460A9E15B9AE
:102C00001948BDE8F88F4FF6FB70864202DD164882
:102C10000938F6E704B116B91348401CF1E7FDF78F
:102C200026FB8046301D82B26B462946204602F0C4
:102C30001FF9074627B14046FDF721FB3846E0E77C
:102C400000981430FFF7A9FB00981C30FFF7A5FB94
:102C500000982430FFF7A1FB0098C4814046FDF79F
:102C60000EFB0020CDE700000C0600022DE9F0412C
:102C70000646771E0A2F02D32548BDE8F081FDF7EE
:102C8000F6FA804607EB470000EBC70021490968C8
:102C900001EB8004A08818B900BF1D4D6D1D31E007
:102CA00004F11C00FFF763FB18B900BF184DED1CC1
:102CB00028E004F11400FFF75AFB18B900BF144DC7
:102CC000ED1C1FE004F12400FFF751FB18B900BF11
:102CD0000F4DED1C16E0E089218A0844E188884206
:102CE00003D000BF0A4DAD1D0CE00B482168006801
:102CF000FFF767FC054615B100BF00BF02E00020EA
:102D0000A08000BF4046FDF7BAFA2846B5E70000AC
:102D1000050600027C000020940000202DE9FC5FE5
:102D200080460F4691461E4600200090A8F1010BF8
:102D3000BBF10A0F02D34048BDE8FC9F17B93E48DB
:102D4000401CF9E7B9F1000F02D13B48801CF3E7C2
:102D50002EB13A48006810B137480A30ECE7FDF769
:102D600086FA01900BEB4B0000EBCB00344909686D
:102D700001EB8004A08820B900BF2F480E300090DE
:102D800054E0208A50BB26B900BF2B480F3000907A
:102D90004CE02C48008820B100BF2748083800903C
:102DA00044E029480568324604F11C01284602F037
:102DB000B3F80198FDF763FA00F0E6F8FDF757FA6B
:102DC0000190287900F0400058B1A88820F0400018
:102DD000A88000BF1848C01F009027E0208A401E2E
:102DE000208261892289206801FB020ADAF800004A
:102DF00038606089401C80B26081E188884201D1DE
:102E00000020608104F11400FFF7B1FA50B904F119
:102E1000140002F0C3F80198FDF731FA00F0B4F89D
:102E2000002089E7E089401CE08100BF0198FDF7A0
:102E300026FA009880E700000E06000290000020AD
:102E40007C00002020000020180000202DE9FC5FFD
:102E500081460F4690461E4600200090A9F1010BC6
:102E6000BBF10A0F02D34348BDE8FC9F17B94148A4
:102E7000401CF9E7B8F1000F02D13E48801CF3E78F
:102E80002EB13D48006810B13A480838ECE7FDF72C
:102E9000EEF901900BEB4B0000EBCB0037490968D2
:102EA00001EB8004A08820B900BF3248C01C00900C
:102EB0005BE02089404504D200BF2E48001D0090F1
:102EC00053E0E08950BB26B900BF2A48401D00905E
:102ED0004BE02B48008820B100BF26480B380090FB
:102EE00043E028480568324604F11401284602F000
:102EF00013F80198FDF7C3F900F046F8FDF7B7F9AC
:102F00000190287900F0400058B1A88820F04000D6
:102F1000A88000BF17480A38009026E0E089401ECC
:102F2000E081A1892289206801FB020ACAF80070A9
:102F3000A089401C80B2A081E188884201D1002094
:102F4000A08104F11C00FFF712FA50B904F11C0033
:102F500002F024F80198FDF792F900F015F800202E
:102F600082E7208A401C208200BF0198FDF787F984
:102F7000009879E711060002900000207C000020F4
:102F8000200000201800002010B5FDF770F904465D
:102F9000FFF710FE3C380A49486008460068496857
:102FA000884208D00748008828B92046FDF767F90D
:102FB000FDF768F910BD2046FDF761F900BFF9E79C
:102FC00018000020200000202DE9F04105460E46A3
:102FD00016B91648BDE8F0814FF6FE70854202DD55
:102FE0001248801DF6E7FDF742F980461048FFF7CA
:102FF000C6F928B14046FDF742F90C48401CE9E704
:103000000B4847683846FFF78EF9A7F1080465803A
:103010000120207004F10800FFF7C2F960683060F9
:103020004046FDF72CF90020D4E70000020700021B
:103030008000002070B505461348006800EB0514B9
:10304000FDF715F906460A2D01D2207820B9304641
:10305000FDF715F90D4870BD04F10800FFF78FF971
:1030600028B93046FDF70BF908480830F3E704F1BA
:1030700008010748FFF72EF9002020703046FDF7C1
:10308000FEF80020E7E700008800002001070002AA
:10309000800000202DE9F047074688463848006840
:1030A00000EB0715FDF7E3F882460A2F01D22878D6
:1030B00028B95046FDF7E3F83248BDE8F087688844
:1030C000002807DD6888401E68805046FDF7D7F865
:1030D0000020F2E7B8F1000F02D12A4EF61C49E0B9
:1030E0002948006810B1274E361D43E02748008864
:1030F00010B1244E761D3DE02548046804F13C00E3
:10310000FFF726FDA08820F00400A080A56104F14F
:103110003C09A08840F00800A080494605F108005D
:10312000FFF751F908F1010040B1A08840F04000DC
:10313000A0804146204602F0F5F803E0A08820F088
:103140004000A0805046FDF79AF8FFF71DFF207958
:1031500000F0400060B1FDF78AF88246A08820F0B8
:103160004000A0805046FDF78AF8064EB61D05E0E7
:103170000020A2E75046FDF782F800BF30469CE7EA
:10318000880000200107000290000020200000209D
:10319000180000202DE9F04106462A48006800EB9F
:1031A00006150A2E02D32848BDE8F081FDF75FF826
:1031B0000746287820B93846FDF761F82248F3E73A
:1031C00068884FF6FE71884205D13846FDF757F8FA
:1031D0001D48C01DE8E705F10800FFF7D0F848BB1F
:1031E000E868A0F13C04E868FFF79DF8A08820F0AB
:1031F0000800A080207900F0400030B1204602F0A5
:1032000065FBA08820F04000A0800020A06120790C
:1032100000F0020040B9A08840F00400A080E188DE
:1032200004F13C00FFF7A0FC3846FDF728F8FFF753
:10323000ABFE05E06888401C68803846FDF71FF843
:103240000020B1E788000020010700020149086062
:10325000704700008C00002010B50024FCF7DAFF56
:10326000204610BD2DE9F04705460E461746984604
:10327000DDF8209015B91C48BDE8F08726B1012E75
:1032800002D01948401CF7E717B91748401EF3E76A
:10329000B8F1000F02D11448801CEDE7FCF7E7FFFE
:1032A00082461248006828B95046FCF7E8FF0E48ED
:1032B000C01CE1E70D4804680C49206808605046CE
:1032C000FCF7DDFFE76166710020A0712561656193
:1032D0002060E060C4F81890012020712089A8F8CF
:1032E00000000020C8E70000010300020C000020DD
:1032F0002DE9F041044600274FF6F070844202DBCE
:103300001A48BDE8F081FCF7B2FF80462046E1177D
:1033100004EB11710911A4EB01118EB2144800687D
:1033200000EB46152889A04204D04046FCF7A7FFD1
:103330000E48E6E7287920B1012809D002280BD1F0
:1033400002E00A4F7F1C0AE0284601F0C7FF00BFD9
:10335000284601F0A7FF02E0044F093700BF00BF75
:103360004046FCF78CFF3846CBE70000050300021F
:10337000080000202DE9F041044600274FF6F070C8
:10338000844202DB1A48BDE8F081FCF770FF8046FA
:103390002046E11704EB11710911A4EB01118EB263
:1033A0001448006800EB46152889A04204D0404626
:1033B000FCF765FF0E48E6E7287920B1012809D01F
:1033C00002280BD102E00A4F7F1C0AE0284601F0D8
:1033D00085FF00BF284601F0A3FE02E0044F093735
:1033E00000BF00BF4046FCF74AFF3846CBE700006D
:1033F00005030002080000202DE9F04104460027E3
:103400004FF6F070844202DB1948BDE8F081FCF70A
:103410002EFF80462046E11704EB11710911A4EB41
:1034200001118EB21348006800EB46152889A042AE
:1034300004D04046FCF723FF0D48E6E7287920B189
:10344000012805D002280AD105E0094F7F1C09E0B8
:10345000074F083706E0284601F040FF02E0044F1E
:10346000093700BF00BF4046FCF709FF3846CCE7EC
:1034700005030002080000202DE9F04105460F4633
:1034800000263946284600F045F8064616B1304673
:10349000BDE8F081286800EB800101EBC00019490C
:1034A000096801EBC004FCF7E2FE8046A08820F02A
:1034B0000200A080A08840F00400A080E18804F110
:1034C0003C00FFF751FBFFF775FB3C380E494860A5
:1034D0000E48006888B10E48008870B90846006838
:1034E0004968884209D00A48008830B94046FCF74C
:1034F000C6FE01F08FFD0020CAE74046FCF7BFFE84
:103500000020C5E714000020180000205000002013
:10351000200000202DE9F05F07460D464FF000091E
:103520004FF0FF3A17B95748BDE8F09F15B9554815
:10353000801FF9E7E86910B95248801EF4E728684F
:1035400010B95048C01EEFE7A8881F2802DD4D487B
:10355000001FE9E7A869B0F5004F02D949481930C2
:10356000E2E7A86910B94FF43470A8610821A8698E
:10357000FEF70AFBA86110214FF49870FEF704FBD8
:10358000A969884202D93F48401ECDE7FCF76FFE8B
:10359000834611E03C484068A0F13C043A49486841
:1035A000FEF7ADFE04F13C013848FEF77EFE3848D8
:1035B000E1680068FFF705F83348FEF7C8FE002809
:1035C000E8D03248FEF7C3FE28B1DFF8B8A00AF110
:1035D0000A0A00BF51E02D484068A0F13C042B4985
:1035E0004868FEF78CFE5846FCF749FED4F8109068
:1035F00008222748A9690068FEF7ADFF06465EB9B4
:10360000FCF735FE834604F13C012048FEF74DFEF1
:10361000DFF880A000BF30E032464846A96902F0DA
:10362000A7F98046C4F80080A868A062E968E16252
:103630002969216369696163E660A869A060002067
:10364000A061E06160620220A080A088296A09B1BF
:10365000802100E000210843A080A888E08028683D
:1036600060614FF0FF3020650020E065E869A063ED
:1036700000206066C7F8009056E75846FCF7FFFD4B
:10368000504651E7070200024000002038000020A9
:10369000940000200002000370B504461948006839
:1036A00008B1194870BD1948008808B11848F9E7F1
:1036B00014B900F0DDF9F5E7FCF7D9FD0546154929
:1036C000096801F13C00FFF743FA1248006880885E
:1036D00020F004000F49096888800E4908682146D7
:1036E00001F020FE0B480068808840F02000094966
:1036F000096888802846FCF7C2FDFFF745FC0020DA
:10370000D0E70000900000200D0200032000002000
:103710000E020002180000202DE9F04106464FF08D
:10372000FF374D480068864202D14C48BDE8F08121
:103730004B480068864202D348480D38F6E7FCF74C
:1037400096FD804606EB860000EBC60045490968F9
:1037500001EBC004A588207900F0010018B13F4FAB
:103760000A3F00BF73E005F0100028B13E48008812
:1037700010B13E4F00BF6AE005F0040040B104F113
:103780003C00FFF7E5F9A08820F00400A08009E0E4
:1037900005F0080010B905F4005018B104F13C0020
:1037A000FEF7ADFD05F0600010B1204602F08EF886
:1037B000A08820F00200A080A08840F00100A08036
:1037C0004FF0FF3020650020E065FFF7F3F93C384B
:1037D00027494860207900F0100038B304F13C011B
:1037E0002448FEF7E0FD1E48006800EB800101EB75
:1037F000C0001C49096801EBC0001D49086008466B
:1038000000680661A088096888801949E06809682D
:10381000C8601749A06B096888630120A0804046F2
:10382000FCF72DFD01F0F6FB00207FE70120A080D2
:1038300004F13C011048FEF738FD1048E1680068CB
:10384000FEF7BFFE4046FCF71AFD00206EE740463B
:10385000FCF715FD384669E7280000201402000235
:103860002400002014000020200000200B02000390
:1038700018000020400000203800002094000020A4
:1038800010B5FCF7F4FC044604480088401C0349CA
:1038900008802046FCF7F3FC10BD0000200000204B
:1038A0002DE9F04105464FF0FF370F2D02D924488E
:1038B000BDE8F08105EB850000EBC50021490968F2
:1038C00001EBC004FCF7D3FC8046A68806F001009B
:1038D00018B11B4FFF1C00BF2CE006F0020018B906
:1038E000174FBF1C00BF25E0A08820F00200A08079
:1038F000A08842F22A410840B8B9A08840F00400EC
:10390000A080E18804F13C00FFF72EF90E48006822
:1039100030B14046FCF7B3FCFFF736FB0020C7E7A9
:10392000FFF748F93C38094948604046FCF7A7FCD6
:103930000020BDE74046FCF7A2FC3846B8E700008F
:103940000702000214000020500000201800002090
:103950002DE9F04105464FF0FF372E4800688542BB
:1039600002D12D48BDE8F0812C480068854202D183
:1039700029480D30F6E72A480068854202D32648D8
:103980000D38EFE705EB850000EBC5002549096818
:1039900001EBC004FCF76BFC8046A68806F0010032
:1039A00018B11D4F0A3F00BF2FE006F0020018B10A
:1039B000194F0C3F00BF28E006F0100028B11A484C
:1039C000008810B1194F00BF1FE006F0040038B1A5
:1039D00004F13C00FFF7BCF8A08820F00400A080B0
:1039E000A08840F00200A080114800680069A84249
:1039F00006D14046FCF743FCFFF7C6FA0020B1E7CA
:103A00004046FCF73CFC0020ACE74046FCF737FCA6
:103A10003846A7E728000020140200022C000020EE
:103A200024000020140000202000002015020003C4
:103A30001800002010B5FCF71AFC04460B4800885B
:103A400000280DDD09480088401E08490880084606
:103A5000008828B92046FCF712FCFFF795FA10BD44
:103A60002046FCF70CFC00BFF9E700002000002016
:103A700070B500241C48006800691C490968884228
:103A800001D31B4870BDFCF7F2FB054616490968D7
:103A9000C888FFF77BF80446012C17D9124909683A
:103AA00001F13C00FEF72BFC0F480068808840F0D5
:103AB00004000D49096888800B4A1268D1880A4AB7
:103AC000126802F13C00FFF74FF805E02846FCF7CA
:103AD000D6FB07480930D5E72846FCF7D0FBFFF7AF
:103AE00053FA0020CEE70000180000202400002038
:103AF00007020002014903C9704700005800002076
:103B000010B5FCF7B4FB04460A480068401C09499C
:103B100008602046FCF7B3FB01F08EFEFCF7A7FB24
:103B2000044604480068401E024908602046FCF72D
:103B3000A6FB10BD90000020704710B5FFF7E0FF16
:103B400010BD000001480249086070470090D00392
:103B50009001002010B500F077FE40B100207349BD
:103B600008604FF08041C1F810017149086000F011
:103B700079FE002855D06F4800686F4908606D488D
:103B8000001D0068091D08606A4808300068091DAA
:103B9000086068480C300068091D086065481030EE
:103BA0000068091D0860634814300068091D08603A
:103BB0006048183000686049203108605D481C305A
:103BC0000068091D08605B4820300068091D086016
:103BD000584824300068091D08605648283000689D
:103BE000091D086053482C300068091D08605148C1
:103BF000303000685049403108604E483430006829
:103C0000091D08604B4838300068091D08604948A4
:103C10003C300068091D0860464840300068091DB6
:103C2000086000F02DFE10B144484549086000F0DE
:103C3000E1FD10B1FB204349086000F0E9FD38B117
:103C4000414801784148006861F303003F4908603A
:103C500000F0ECFD18B14FF400703D4908603D489C
:103C6000006840F470003B49086000BF00BF00BF1F
:103C7000BFF34F8F00BF00BF00BF00BF00BF00BF3A
:103C8000BFF36F8F00BF00BF00BF3348006800F074
:103C9000004030B93048001D006800F000400028A6
:103CA00040D001202D49086000BF2D480068002841
:103CB000FBD012202849086000BF2948006800286E
:103CC000FBD012212448001D016000BF2448006879
:103CD0000028FBD000202149086000BF2048006870
:103CE0000028FBD000BF00BF00BF00BF00BFBFF374
:103CF0004F8F00BF00BF00BF16487C38006800F43B
:103D0000E06018490843001D12497C39086000BF73
:103D100000BF00BFBFF34F8F00BF00BF00BF00BF99
:103D200000BFFDE7FFF70EFF10BD00000C010040D3
:103D3000380500400404001020C5004048810300FD
:103D40008C56004018F5004058020010E40E004068
:103D50004096024088ED00E00012001004E50140AA
:103D600000E401400000FA0570B505460848006807
:103D7000401C07490860FFF7BDFE0446044801687F
:103D800004A000F045F8214607A000F041F870BDFE
:103D9000E0000020675F74696D6572636F756E7413
:103DA000313D25640A0000007469636B5F6C6173C8
:103DB00074313D256C750A0070B50546FFF79AFE13
:103DC000044609480068401C074908600846016825
:103DD00006A000F01DF8214609A000F019F8002106
:103DE0000620FEF769F970BDE4000020675F746982
:103DF0006D6572636F756E74323D25640A00000054
:103E00007469636B5F6C617374323D256C750A0075
:103E10000FB4054B10B503A9044A029800F0CAF884
:103E200010BC5DF814FB00009D48000094010020C8
:103E300002E008C8121F08C1002AFAD17047704773
:103E4000002001E001C1121F002AFBD170470000D1
:103E50002DE9FF5FDDE90220010DDDF838B00243F6
:103E600018D044F61050A1F2FF3141430D140F98C1
:103E7000012820D0A5EB0B00401C5FEA000A4FF0A0
:103E80000004474EDFF81C91A046504616D5CAF1F3
:103E9000000728E00F98012443A2012808D0002140
:103EA00000980F9BC0E90021C0E90243BDE8FF9FD5
:103EB0006FEA0B01F4E7CBF10000DEE7074612E002
:103EC000F80707D02246334640464946FCF72DFC0A
:103ED000804689462246334610461946FCF725FCA3
:103EE00004460E467F10002FEAD1DDE90201BAF147
:103EF000000F42464B4602DAFCF717FC01E0FCF7E4
:103F000054FA04460E460022284BFCF781FC03D8E5
:103F10004FF0FF30014607E00022254B2046314696
:103F2000FCF75CFBFCF7B0FA102409E0002C0ADB7C
:103F30000A220023FCF7F6F9019B30321A55641E61
:103F400050EA0102F2D1641C019AC4F11103144435
:103F50000F9A012A03D0012208430DD10AE0084339
:103F600004D000204FF0110B0F9080E7A3EB0B055E
:103F70006D1E0DE05B4504DD4FF0000205F101050B
:103F800004E003DA4FF00002A5F10105002AECD0AD
:103F900000980F99C0E90231C0E9004586E70000AA
:103FA000000024400000F03F300000000000F0431B
:103FB0000000E03F2DE9FF4F95B09B46894606463D
:103FC00000250FE2252877D100242746F84A012151
:103FD000059400E0044316F8013F203B01FA03F08A
:103FE0001042F7D130782A2811D06FF02F033078A3
:103FF000A0F13002092A16D8059A44F0020402EB17
:10400000820203EB42021044761C0590EFE759F858
:10401000042B0592002A03DA504244F40054059020
:1040200044F00204761C30782E2816D116F8010FC1
:1040300044F004042A280DD06FF02F023078A0F14C
:104040003003092B09D807EB870302EB4303C7189A
:10405000761CF3E759F8047B761C30786C280FD077
:1040600006DC4C2817D068280DD06A2814D104E04B
:10407000742810D07A280FD10DE044F400140AE01F
:1040800044F4801401E044F440147278824202D176
:1040900004F58014761C761C307866280BD013DC6F
:1040A000582877D009DC002875D04528F6D0462856
:1040B000F4D047281AD19DE118E0632835D0642850
:1040C00079D0652812D195E1702873D008DC672873
:1040D000F1D069286FD06E280DD06F2806D1B5E0D9
:1040E00073282CD0752875D0782874D05A46179923
:1040F00090476D1C75E1C4F30250022809D00328D3
:104100000DD0D9F8001004280DD00D6009F1040974
:1041100067E1D9F80010EA17C1E90052F6E7D9F8CB
:1041200000100D80F2E70D70F0E719F8041B8DF810
:10413000001000208DF80100EA46012003E059F844
:1041400004AB4FF0FF3061074FF0000102D40DE0E7
:1041500008F101018846B9420FDA8045F8DB1AF808
:1041600008100029F4D108E008F1010188468142D5
:10417000FADB1AF808100029F6D105985B46A0EB87
:10418000080721463846179A00F094FA284400EBB5
:10419000080507E04DE029E10DE01AF8010B5A4649
:1041A00017999047B8F10108F7D25B462146384687
:1041B000179A13E142E00A220092C4F302524FF030
:1041C000000A022A08D059F804CB032A4FEAEC71FE
:1041D0000AD00DE029E02AE009F1070121F00702E9
:1041E000F2E802C1914609E00FFA8CFC4FEAEC714B
:1041F000042A03D14FFA8CFC4FEAEC71002907DA4C
:104200000A460021DCF1000C61EB02012D2202E0E4
:10421000220504D52B228DF80420012203E0E207B9
:1042200001D02022F7E7904659E00A2102E010224F
:104230000DE010214FF0000A00910BE010224FF02A
:10424000000A44F004040827009203E008224FF01B
:10425000000A0092C4F30252022A05D059F804CB96
:104260000021032A08D009E009F1070121F0070223
:10427000F2E802C1914605E01FFA8CFC042A01D144
:104280000CF0FF0C4FF00008220728D5702806D04C
:10429000009B83F0100353EA0A0305D00EE040228E
:1042A0008DF80420012208E05CEA010206D03022E9
:1042B0008DF804208DF8050002229046009B83F0C3
:1042C000080353EA0A030AD15CEA010201D162073A
:1042D00005D530228DF804204FF001087F1E5828A4
:1042E00004D034A003900EA802900DE036A0F9E7A8
:1042F00053466046009AFCF715F884460398825CA2
:104300000298401E029002705CEA0100F0D102980F
:1043100006A9081A00F1200A600702D524F48034A7
:1043200000E00127574502DDA7EB0A0000E000206E
:1043300000EB0A01009005984144401A0590E00303
:1043400006D45B462146179A059800F0B3F9054458
:10435000002706E001A85A46C05D179990476D1CDA
:104360007F1C4745F6DBE0030CD55B462146179AD8
:10437000059800F09FF9054404E030205A4617994B
:1043800090476D1C0099481E00900029F5DC08E05C
:10439000029802995A460078491C02911799904751
:1043A0006D1CBAF10001AAF1010AF1DC65E100001F
:1043B00009280100303132333435363738396162FB
:1043C00063646566000000003031323334353637BF
:1043D00038394142434445460000000000F058F996
:1043E0000544761C307800287FF4ECAD19B02846DF
:1043F000BDE8F08F620700D4062709F1070222F01A
:10440000070CFCE80223E14603F000485FEA080CD1
:1044100002D00FF2702C0DE05FEA045C02D50FF2BF
:10442000682C07E05FEAC47C02D00FF2602C01E048
:10443000AFF2700C4FF0FF3823F00043CDF850C0BE
:1044400065280CD006DC452809D046281DD0472811
:104450003DD13DE0662818D067287ED138E00021A4
:10446000112F01DB112000E0781CCDE9000106A925
:104470000EA8FFF7EDFCDDE90F010E9A0391002174
:10448000009207F1010A04914DE04FF000400097BF
:10449000CDE9011006A90EA8FFF7DAFCDDE90F024D
:1044A00003920E9B11990022DDF80CA00093049258
:1044B00011B9791C00EB010AB7EB0A0004D4C0F172
:1044C000FF3007F1010A0490AAEB0700019044E0D5
:1044D000012F00DA01270021112F01DD112000E05A
:1044E0003846CDE9000106A90EA8FFF7B1FCDDE9C9
:1044F0000F010E9A0391002104910092BA46210700
:104500000CD40399514500DA8A46BAF1010F05DD52
:10451000009AAAF10101515C302908D0B84202DAB0
:1045200010F1040F06DA0121CDE9011015E0AAF11E
:104530000101E9E7002805DC049901440491AAEB94
:10454000000102E0411C514500DD8A460499401AF1
:10455000401C01904FF000400290200704D40198C5
:10456000504501DBCDF8048000208DF84F00029803
:104570000DF14F07B0F1004F25D02B200E9002987F
:104580004FF0020800280CDA404202902D200E90D5
:1045900007E00A210298FBF78FFF3031029007F8FD
:1045A000011DB8F10001A8F10108F2DC0298002811
:1045B000EFD1791E0E980870307800F0200040F09E
:1045C000450007F8020D12A8C01B00F10708149857
:1045D000007800B1012000EB0A01019801EBE071C5
:1045E00005984144401A401E0590E00306D45B46FE
:1045F0002146179A059800F05DF805441498007854
:1046000018B15A46179990476D1CE00324D55B46B4
:104610002146179A059800F04DF805441CE00498CF
:10462000002807DBDDE90301884203DD0098405CD8
:10463000179901E0179930205A469047049805F1E0
:104640000105401C04900198401E019004D12E20C9
:104650005A46179990476D1CBAF10001AAF1010A58
:10466000DDDC05E017F8010B5A46179990476D1CE1
:10467000B8F10001A8F10108F4DC5B462146179A65
:104680000598ABE62D0000002B0000002000000084
:104690002DE9F041044600251E461746880404D43F
:1046A00005E039462020B0476D1C641EF9D5284628
:1046B000BDE8F0812DE9F041044600251E469046F4
:1046C000C80301D5302700E02027880404D505E081
:1046D00041463846B0476D1C641EF9D52846BDE8F2
:1046E000F0810000F8B504460A48005D0090684675
:1046F00000F032F9064600BFD6F810050099C84010
:1047000000F0010008B1012000E00020054685F01E
:104710000100F8BD895C00002DE9F84F00251BE081
:104720000F48465D03240027B846B946BA460096AE
:10473000684600F011F9834647EA480040EA8400E1
:1047400040EA092040EA0A410BF5E060009A40F88F
:10475000221000BF00BF6D1C042DE1D3BDE8F88F0F
:10476000895C000010B504460249085D012100F093
:1047700013F910BD8D5C000010B504460249085DB8
:10478000002100F009F910BD8D5C00002DE9F84F03
:1047900000241CE01148055D012637464FF0000853
:1047A000C146C2460095684600F0E6F8834646EAF0
:1047B000470040EA880040EA092040EA0A410BF538
:1047C000E060009A40F8221000BF00BF641C042C77
:1047D000E0D300F005F8BDE8F88F00008D5C000024
:1047E00010B5002403E02046FFF7BCFF641C042C36
:1047F000F9D310BD05480068082805D10348001DFD
:10480000006808B9012070470020FCE73001001063
:1048100005480068082805D10348001D006808B94C
:10482000012070470020FCE73001001005480068B7
:10483000082805D10348001D006808B90120704709
:104840000020FCE73001001005480068082805D169
:104850000348001D006808B9012070470020FCE7EC
:104860003001001005480068082805D10348001DE4
:10487000006808B9012070470020FCE730010010F3
:1048800005480068082805D10348001D006808B9DC
:10489000012070470020FCE73001001030B50446CD
:1048A0000D46E0B2FDF7DCF9204630BD10B500281A
:1048B00021D0114B0022001F196803E0814203D868
:1048C0000A4649680029F9D152B11368841A9C42FA
:1048D00004D1006818441060104602E0506000E007
:1048E000186039B102680B1A934203D10B681A445D
:1048F00002604968416010BD9801002010B5FDF7C5
:10490000CBFC04460CB1012010BDFDF772F9FDF798
:104910009BF9FDF701FCFEF79FFC00BFFEE70000DE
:10492000F0B5DDE9054500BF202802D24FF0A047D1
:1049300002E000F01F00074F3E4641EA420747EA07
:10494000830747EA042747EA054C06F5E06747F87E
:1049500020C0F0BD0003005001460868202802D2A4
:104960004FF0A0407047087800F01F000860014831
:10497000F8E700000003005001460868202802D232
:104980004FF0A0407047087800F01F000860014811
:10499000F8E7000000030050F8B504460D466DB975
:1049A00000946846FFF7E8FF06460121009A01FAE5
:1049B00002F0C6F80C0500BF00BF0DE00094684689
:1049C000FFF7DAFF06460121009A01FA02F0C6F865
:1049D000080500BF00BF00BFF8BD00F03DF800BFF4
:1049E000FEE7000010B5102404E00548054941F831
:1049F0002400641CFF2CF8D9FFF79EF810BD0000BE
:104A0000DB4900009C01002000BFFEE710B58AB022
:104A1000242101A8FBF7BEFC0A4801904FF4A060D6
:104A2000079009A008901F20ADF8080001A90948C7
:104A3000FEF722FD044614B120460AB010BD002046
:104A4000FBE70000094A000049646C65436F72652A
:104A5000303030002800002010B5FBF703FC04467E
:104A6000204610BD10B500F0C7FA00F09DF90446CD
:104A70000CB1204610BD1648007808B1FFF7B2FF10
:104A800000F006FD04460CB12046F3E700F0C6FA3C
:104A900004460CB12046EDE700F098F904460CB14D
:104AA0002046E7E700F01CFA04460CB12046E1E797
:104AB00000F0E0FA04460CB12046DBE700F050FFBE
:104AC000FFF7A4FF04460CB12046D3E70020D1E74E
:104AD000885C00002DE9F04107460E46002406F1EF
:104AE000130020F003052946384600F06DF804460F
:104AF00014B90020BDE8F08105F11400E16881429D
:104B000004D32A462146384600F020F92046FDF716
:104B100014FC204600F00AF9E06840F00040E06034
:104B2000E16821F0004000F061FD04F11000E1E7D0
:104B30002DE9F84F05460C462E4605F1E008706851
:104B40002844A0F1100A706847194FF000092B465D
:104B5000524641462046009700F0B7F810B90120B0
:104B6000BDE8F88FE06800F0004008B90120F7E7E1
:104B7000E06820F0004000EB04092B465246414615
:104B80004846009700F0A1F808B90120E8E7D9F8F5
:104B90000800A04201D00120E2E7444512D000976E
:104BA0002B4652464146A06800F08FF808B9012014
:104BB000D6E7A068C16821F000410844A04201D0B6
:104BC0000120CDE70020CBE770B505460E46002456
:104BD000314605F10800FCF7F7FF044618E0002015
:104BE0006168084605E0C168B14200D370BD416804
:104BF0000846A042F7D105F108002146024602F11D
:104C0000D0038B4201D1002301E001F108031C46CF
:104C1000002CE4D10020E9E72DE9F04104460E46DE
:104C20000027B846E16821F0004000F0C5FCE068CC
:104C300020F00040E060A06848B3A068C06800F0C1
:104C4000004020BBA568204600F05EF8E86820F030
:104C500000404719F86800F0004028B93846FDF7D1
:104C60006CFB384600F050F82846FDF766FB06F16D
:104C70000800E968FCF7A8FF8046B8F1000F01D1F1
:104C8000BDE8F08129464046FDF72BFB1BE0E068BC
:104C900020F000400719F86800F0004028B93846B5
:104CA000FDF74BFB384600F02FF806F10800E168ED
:104CB000FCF78AFF8046B8F1000F00D1E0E72146FB
:104CC0004046FDF70EFB00BFDAE730B50446039D12
:104CD000A14201D8944201D9002030BDE06800F023
:104CE000004038B120686040401C08B10020F4E763
:104CF0000120F2E72068984202D32068A84201D33D
:104D00000020EAE70120E8E700218268D268C36852
:104D10001A448368DA60C268111882688A6000BF2A
:104D2000002202604260826000BF7047C1430160A0
:104D30000549096821B1044909680969416002E02F
:104D40004FF0FF3141607047180000202DE9F04717
:104D500080460D46164600240027A146AC19A560E2
:104D6000E868801BE060EE60E06820F00040071912
:104D7000BC60F86800F0004028B93846FDF7DDFA5D
:104D80003846FFF7C1FF08F10800E168FCF71CFF97
:104D90008146B9F1000F01D1BDE8F08721464846B0
:104DA000FDF79FFA00BFF7E710B50648064908600F
:104DB0004FF4004104480068FDF72DFC04462046EE
:104DC00010BD00006C0600209400002070B5124851
:104DD000FDF7E0FAF02111480068FDF79FFB10494C
:104DE00008600846006808B90E4870BD00240EE04F
:104DF00004EB44000A49096801EBC0056C6000201F
:104E0000287005F108010448FDF7D5FA641C0A2C46
:104E1000EED30020E9E70000740000209400002099
:104E200070000020001D000270B5002400254FF422
:104E3000807529460C480068FDF770FB0B49086037
:104E40000846006800B970BD0020044608E0074924
:104E5000096801EBC4004060006000BF601C0446AC
:104E6000202CF4D300BFEEE79400002000000020C7
:104E70002DE9F047064688461746994615480468C6
:104E8000002507E0A08818B9681CC8F8000003E0F6
:104E90006D1C2C340A2DF5D300BF0A2D02D10E480B
:104EA000BDE8F0872C212046FBF774FA06FB07F1DA
:104EB0000A480068FDF732FB2060206810B90648F8
:104EC000801EEDE7E68027810120A080C9F8004020
:104ED0000020E5E77C00002004060002940000208A
:104EE00010B54FF4DC7109480068FDF717FB08495D
:104EF00008600846006808B9064810BD4FF4DC7128
:104F000003480068FBF746FA0020F6E7940000200B
:104F10007C000020010600022DE9F04104460D4608
:104F200017464FF00008002604F13C00FDF710FE84
:104F3000A08820F00400A08004F13C08A08840F480
:104F40000050A0802846FDF712FA30B100BF41465C
:104F50002868FDF7B8F900BF14E06868A0F13C06C6
:104F600007E0E088F188884200DA06E0306CA0F1C2
:104F70003C0606F13C00A842F3D100BF4146F06B6D
:104F8000FDF7A1F9781C38B1A08840F04000A0805E
:104F90003946204600F0C6F9BDE8F08170B50546F7
:104FA0006868A0F13C046868D0E900121160D0E99B
:104FB0000021516000214160016000BFA08820F401
:104FC0000050A080207900F0400030B1204600F071
:104FD0007DFCA08820F04000A080207900F0020035
:104FE00040B9A08840F00400A080E18804F13C00B2
:104FF000FDF7BAFD70BD00001020034908600348AA
:105000000349086070470000240000206C860020DF
:105010009800002010B5FBF735F910BD70B51148A8
:10502000FDF7BEF9A02110480068FDF777FA0F4997
:1050300008600846006808B90D4870BD00240CE0FF
:105040000A48006800EB04156C600020287005F128
:1050500008010448FDF7B7F9641C0A2CF0D30020BE
:10506000EBE7000080000020940000208800002072
:10507000000700022DE9F8430020224908604FF4A0
:105080000078414620480068FDF748FA044614B904
:105090001E48BDE8F88341462046FBF77BF91C48D3
:1050A00004601C480460002020812546203401272C
:1050B00005E027812C602546781C87B22034102F0C
:1050C000F7DB0822D0211448FDF778FB064616B11D
:1050D0000E48C01CDDE704200023104A1021009078
:1050E0001846FDF785FD064616B10848001DD0E7B5
:1050F00000F06EF8064616B10448401DC9E70020CE
:10510000C7E7000010000020940000200703000201
:10511000080000200C0000209C0500200400002056
:1051200010B50022002183793BB9437913B143794B
:10513000022B02D14369C36001E00369C3600F4BD6
:1051400019680AE0CB68C468A34200D907E0C368C5
:10515000CC681B1BC3600A4609680029F2D100BF56
:10516000016019B1CB68C4681B1BCB6012B9034B3B
:10517000186000E010600223037110BD10000020D1
:105180000EB50020029000BF4FF0FF33042202A9A9
:105190000D480068FDF7C2FD0446002CF4D10298CA
:1051A0000028F1D0029800680090029840680190B1
:1051B00006480299FDF7B0FA00980028E4D0DDE92E
:1051C00000108847E0E70000040000209C05002054
:1051D00010B58AB0242101A8FBF7DCF8094801903A
:1051E0004FF43470079008A008900020ADF8080034
:1051F0008020099001A90748FEF73EF904462046A1
:105200000AB010BD815100005377745F5461736B15
:10521000000000002C00002070B51F48046836E034
:105220001D49206808601D48FDF748FA05467DB114
:10523000E0692860A06968600023042229461848B4
:105240000068FDF703FE18B129461448FDF764FA1B
:105250006079A0B9204600F025F820894FF6E0716A
:10526000884203DA2089103020810EE02089C1179E
:1052700000EB11710911A0EB0111218105E0A0796A
:10528000401CA0712046FFF74BFF0348046814B18F
:10529000E0680028C4D070BD100000209C050020EC
:1052A00004000020034909680160024908600021E8
:1052B000017170470C00002010B50748006848B124
:1052C00005480068C068401E03490968C86008B9FD
:1052D000FFF7A2FF002010BD1000002010B502460D
:1052E000002100200E4B186801E001460068904242
:1052F000FBD103682BB10368DB68C46823440468EE
:10530000E36019B9064C0368236001E003680B6091
:1053100000230360012303710023837110BD00008B
:10532000100000202DE9F0470446884608F01F07CA
:105330004FEA581907B101E0A9F10109E06C00F04A
:10534000784040EA0900E06425488088074407F077
:105350001F07E06C67F3DF60E0642148006800EB42
:10536000C7067068B04205D104F144013046FDF72C
:105370001AF833E07068A0F1440500BFE86C20F033
:105380007840E16C21F0784188420CD8E06C20F044
:105390007840E96C21F07841401AE16C01F07841E5
:1053A0000843E0640CE0E86C20F07840E16C21F008
:1053B0007841401AE96C01F078410843E86406E05E
:1053C000A86CA0F1440505F14400B042D6D100BF5D
:1053D00004F1440105F14400FCF7E5FFBDE8F08766
:1053E000480000202DE9F041054605EB850000EB63
:1053F000C5002349096801EBC004E06930B1666962
:1054000004F128000FC8B047206204E0666904F187
:1054100028000FC8B047207900F0800050B1FAF79B
:1054200026FF07460020174908803946206900F00A
:1054300085F922E0FAF71BFF074600201149088092
:105440003846FAF71CFFFEF71BFAE06928B1E1695C
:105450004868FDF79FFE0020E061207900F004001D
:1054600038B104F13C00FDF773FBA08820F0040084
:10547000A080FEF7DFFAFDF787FDBDE8F0810000B0
:105480001400002020000020FAF7EFFE00BFFEE726
:1054900070B540480068401C682100FB01F63146A9
:1054A0003D480068FDF73AF83C4908600846006846
:1054B00008B93B4870BD314638480068FAF76AFFC2
:1054C0003848FCF764FF3848FCF761FF3748FCF7C1
:1054D0005EFF002420E0012004EB840101EBC40105
:1054E0002E4A126802EBC101888004EB840000EBB5
:1054F000C4002A49096801EBC000046104EB840080
:1055000000EBC400254A126802EBC00000F13C0128
:105510002548FCF748FF641C0F2CDCD924480021E7
:10552000016041601B48006800EB800101EBC00096
:105530001A49096801EBC0001D4908600846006867
:105540000461112009688880202019490968C880F1
:10555000FFF76AFC4FF4807631460F480068FCF78D
:10556000DDFF05460DB90E48A4E731462846FAF797
:1055700011FF1048056000200E498880002404E0D7
:105580002846FCF704FF641C0835202CF8D30020C3
:1055900090E7000024000020940000201400002068
:1055A00000020003300000203800002040000020EE
:1055B00018000020480000200146094A12681069BE
:1055C0000F2800D97047074A126802B1FAE7064A65
:1055D00052F82020521A044B43F8202000BFF1E774
:1055E00018000020900000206C86002001460B4A25
:1055F000126802B970470A4A126802B1FAE7074A0C
:10560000126810690F2800D9F4E7064A52F82020E2
:105610000A44044B43F8202000BFEBE718000020A9
:10562000900000206C86002070B504460D4620795D
:1056300000F0040090B104F13C00FDF789FAA08865
:1056400020F00400A080E580A08840F00400A08045
:10565000E18804F13C00FDF787FA00E0E58070BDC9
:105660002DE9F041002734498988481CC11700EB17
:10567000D1614911A0EB41112F4A91801046006879
:105680001146898800EBC1056868A84201D1BDE8D0
:10569000F0816868A0F1440443E0A688E06C20F043
:1056A000784018B1E06C401EE0643EE004F1440034
:1056B000FCF725FE06F0080058B1A08820F008008D
:1056C000A08004F13C00FCF71AFE0020A06160629B
:1056D00017E006F4806020B1A08820F48060A080EC
:1056E0000FE006F4005040B104F13C00FCF707FE67
:1056F000A08820F40050A08003E0A08820F02000C3
:10570000A08006F0020048B9A08840F00400A08004
:10571000E18804F13C00FDF727FA01276868A0F151
:10572000440404F14400A842B7D100BF0FB1FDF713
:105730002BFC00BFABE70000480000202DE9F04142
:1057400005460F4605EB850000EBC50036490968A4
:1057500001EBC004A68806F0040040B104F13C004F
:10576000FDF7F6F9A08820F00400A0800DE042F2D9
:105770000800304048B104F13C00FCF7C0FD06F0E1
:10578000600010B1204600F0A1F8A08820F00200CF
:10579000A080A08840F00100A0804FF0FF3020657D
:1057A0000020E065FDF706FA3C3820494860207982
:1057B00000F0100040B304F13C011D48FCF7F3FD7C
:1057C0001C48006800EB800101EBC0001649096825
:1057D00001EBC00015490860084600680561A08813
:1057E000096888801149E0680968C8600F49A06BA2
:1057F000096888630120A0803846FAF740FDFFF76A
:1058000009FC0020BDE8F081207900F0010030B1F2
:105810003846FAF734FDFFF7FDFB0020F2E7384683
:10582000FAF72DFD0020EDE71400002018000020FD
:10583000400000202400002010B50848D0E90030C6
:105840005A1C40F100000549C1E9002000F062F84F
:10585000FFF706FFFFF730FD10BD000058000020E5
:1058600070B500244FF47A40154908600846006876
:10587000FDF7ECFC12480168481EB0F1807F00D3B0
:105880001BE0481E4FF0E02250615017072200280D
:1058900007DA53071E0E0B4B00F00F052D1F5E5548
:1058A00003E053071D0E084B1D5400BF00204FF0AE
:1058B000E02290610720106100BF204670BD00000B
:1058C0009C00002018ED00E000E400E02DE9F0412C
:1058D0000446E06CC70E0E48006800EBC706A06CDB
:1058E000B0420ED0A06CA0F14405E86C20F07840E6
:1058F000E16C21F078410844E96C01F078410843FB
:10590000E86404F14400FCF7FAFCBDE8F081000013
:105910004800002010B50F4800680F490968884208
:105920000BD00D4800680B4908600846C1880B4839
:1059300000880844401E0749888006488188074837
:10594000008880B2814204D1002002490860FEF73D
:105950008FF810BD680000201800002058000020BB
:105960000020024908600A20C880704768000020B3
:1059700030B50446012304E04FF0CA3542F8235005
:105980005B1CB3EB910FF7D34FF0CC351560551876
:10599000A5F1CC00434D05606D1C45606D1C856014
:1059A0006D1CC5606D1C05616D1C45616D1C8561BC
:1059B0006D1CC5616D1C05626D1C45626D1C8562A8
:1059C0006D1CC5626D1C05636D1C45636D1C856394
:1059D0006D1CC5634FF0043505644FF00535456413
:1059E0004FF0063585644FF00735C5644FF0083534
:1059F00005654FF0093545654FF0103585654FF069
:105A00001135C5650025056644664FF0013585668C
:105A10006D00C5664FF0033505674FF012354567D9
:105A2000214D8567214DC5674FF08075C0F88050C6
:105A30004FF02A45C0F884506D1CC0F888506D1C8A
:105A4000C0F88C506D1CC0F890506D1CC0F894507C
:105A50006D1CC0F898506D1CC0F89C506D1CC0F8AF
:105A6000A0506D1CC0F8A4506D1CC0F8A8506D1C4F
:105A7000C0F8AC506D1CC0F8B0506D1CC0F8B450EC
:105A80006D1CC0F8B8506D1CC0F8BC506D1CC0F83F
:105A9000C0500025C0F8C450024D6D1CC0F8C8505D
:105AA00030BD0000100000AA89540000E55300003A
:105AB0002DE9F84306460F469046994600240025F6
:105AC00015E000231822694617480068FDF726F9FB
:105AD000044624B1214615A0FEF79AF908E01BA060
