:1000000018A9002001050000090500000B050000EB
:100010000D0500000F0500001105000000000000A4
:1000200000000000000000000000000013050000B8
:1000300015050000000000008F0400000B360000D2
:100040001B0500001B0500001B0500001B05000030
:100050001B0500001B0500001B0500001B05000020
:100060001B0500001B0500001B0500001B05000010
:100070001B0500001B0500001B0500001B05000000
:100080001B0500001B0500001B0500001B050000F0
:100090001B0500001B0500001B0500001B050000E0
:1000A0001B0500001B0500001B0500001B050000D0
:1000B0001B0500001B050000000000000000000000
:1000C0001B0500001B0500001B0500001B050000B0
:1000D0001B0500001B0500001B05000000000000C0
:1000E0000000000000000000000000000000000010
:1000F0000000000000000000000000000000000000
:1001000000000000000000000000000000000000EF
:1001100000000000000000000000000000000000DF
:10040000DFF80CD000F0F0F800480047D13D0000C4
:1004100018A90020344C354D256035484FF00101B6
:1004200001604FF0020080F314883248426831487E
:100430000260304B186887884FF0100847EA0807B9
:100440008780D0F800C00CF1640CBCE8FF000CF110
:10045000480C8CF309882DED010ABDEC010AAE466B
:1004600062B63047EFF30580704772B67047EFF31E
:10047000108072B67047EFF3108062B6704780F359
:10048000108870471C484FF0805101607047EFF3AF
:10049000108C72B6194A126822B12DE900509047AB
:1004A000BDE80050EFF3098020E9F01F20ED108B2C
:1004B000104D2E683060B7884FF0100827EA080703
:1004C000B7800C484068286087884FF0100847EADA
:1004D000080787800168B1EC108BB1E8F01F81F349
:1004E00009888CF31088704720ED00E00000F0F0E0
:1004F000500000201800002004ED00E0540000200F
:100500000648804706480047FEE7FEE7FEE7FEE7AD
:10051000FEE7FEE7FEE7FEE7FEE7FEE72536000022
:10052000010400002DE9F05F0546002092469B463D
:1005300088460646814640241BE0284641464746F9
:10054000224600F041F853465A46C01A914110D352
:1005500011461846224600F028F82D1A67EB0108CC
:100560004F4622460120002100F01FF817EB00093A
:100570004E41201EA4F10104DFDC484631462A46E4
:100580004346BDE8F09FD2B201E000F8012B491EBE
:10059000FBD270470022F6E710B513460A46044620
:1005A0001946FFF7F0FF204610BD202A04DB203A51
:1005B00000FA02F1002070479140C2F1200320FAB6
:1005C00003F3194390407047202A04DB203A21FAB4
:1005D00002F00021704721FA02F3D040C2F120025C
:1005E0009140084319467047064C074D06E0E06805
:1005F00040F0010394E8070098471034AC42F6D36A
:10060000FFF702FF2C5000004C50000070B58C1812
:1006100010F8015B15F0070301D110F8013B2A1116
:1006200006D110F8012B03E010F8016B01F8016B03
:100630005B1EF9D12B0705D40023521E0DD401F8FF
:10064000013BFAE710F8013BCB1A921C03E013F8C8
:10065000015B01F8015B521EF9D5A142D8D30020FD
:1006600070BD000070B500244FF400411F480068C1
:1006700001F039FD05461DB91DA003F0F9F804E0AD
:1006800020A003F0F5F8012070BD04211748006890
:1006900001F0ACFC044624B920A003F0E9F80120E5
:1006A000F2E723A003F0E4F84FF44F70206024A099
:1006B000216803F0DDF821460C48006801F0E9FCF0
:1006C00005463DB922A003F0D3F80021092001F02E
:1006D0001BFB08E022A003F0CBF80121092001F068
:1006E00013FB0120D0E70020CEE700008C000020A3
:1006F0006D656D706F6F6C20696E6974206F6B2112
:100700000A0000006D656D706F6F6C20696E697412
:10071000206661696C6564210A0000006D656D20CA
:10072000616C6C6F63206661696C6564210A00000E
:100730006D656D20616C6C6F63206F6B0A0000004B
:100740002A705F6E756D203D2025640A0000000050
:100750006D656D2066726565206F6B210A00000073
:100760006D656D2066726565206661696C656421E2
:100770000A00000010B501210EA003F079F86423EF
:1007800004220121134801F095F90446012C08D1F7
:10079000214611A003F06CF80021012001F0B4FA09
:1007A00006E015A003F064F80121084601F0ACFA58
:1007B00010BD00004578616D706C655F4576656EB3
:1007C000742077616974206576656E7420307825B1
:1007D00078200A00B48600204578616D706C655FF2
:1007E0004576656E742C72656164206576656E74FD
:1007F000203A307825780A004578616D706C655F25
:100800004576656E742C72656164206576656E74DC
:100810002074696D656F75740A0000002DE9F04160
:1008200001F082F88046B8F1000F03D041461BA0CA
:1008300003F01EF802F0C6FE04460D4600221346E1
:1008400062406B401A4303D021461BA003F010F80E
:10085000C82002F089FC02F0B5FE0F4606460022D1
:100860001146724079400A4303D0314618A002F085
:10087000FFFF321B67EB0500C83A70F1000006D39A
:100880000021052001F040FA0020BDE8F08101219F
:10089000052001F039FA0120F7E700004C4F535FC3
:1008A0004379636C655065725469636B4765742066
:1008B0003D202564200A00004C4F535F5469636B50
:1008C000436F756E74476574203D202564200A00CF
:1008D0004C4F535F5469636B436F756E7447657417
:1008E0002061667465722064656C6179203D202505
:1008F00064200A0010B58CB000241F480190092024
:10090000ADF808004FF4007007901CA008908020FC
:10091000099002F01DFD01A90BA802F015FB044689
:1009200034B1214618A002F0A3FF20460CB010BD40
:100930001D48019001A90AA802F006FB04462CB14B
:1009400021461AA002F094FF2046EFE7182000236A
:100950001E4A052100901EA001F0B2FE04461CB103
:1009600021461DA002F084FF23A002F081FF02F0C7
:10097000C9FD0020DAE70000694F000073656E646E
:10098000517565756500000063726561746520745A
:1009900061736B31206661696C6564212C657272CC
:1009A0006F723A25780A00009D4E000063726561FF
:1009B0007465207461736B32206661696C656421B3
:1009C0002C6572726F723A25780A0000AC00002024
:1009D00071756575650000006372656174652071ED
:1009E00075657565206661696C757265212C657227
:1009F000726F723A25780A006372656174652074BB
:100A000068652071756575652073756363657373BB
:100A1000210A000010B592B02C4801F077FC02F0DA
:100A200097FC242109A8FFF7B5FD2948099029A0C2
:100A300010904FF434700F900520ADF8280009A9EC
:100A4000274802F081FA04462CB126A002F010FFDC
:100A5000012012B010BD24216846FFF79BFD2748F6
:100A6000009027A007904FF4347006900420ADF852
:100A700004006946254802F067FA044624B124A020
:100A800002F0F6FE0120E4E702F03CFD4FF4967020
:100A900002F06AFB0D48006801F06AFC104800682B
:100AA00002F0A2FB044624B11FA002F0E1FE0120E7
:100AB000CFE71648006802F097FB044624B120A057
:100AC00002F0D6FE0120C4E70020C2E7C4000020E7
:100AD000590B00004D7574657854736B310000003C
:100AE000C80000207461736B3120637265617465A6
:100AF000206661696C6564202E0A0000710C00009C
:100B00004D7574657854736B32000000CC00002082
:100B10007461736B3220637265617465206661690C
:100B20006C6564202E0A00007461736B312064656B
:100B30006C657465206661696C6564202E0A00002E
:100B40007461736B322064656C65746520666169DD
:100B50006C6564202E0A000010B517A002F088FE14
:100B60000A211F48006801F037FC04463CB91DA06B
:100B700002F07EFE1A48006801F0D2FC10BD214848
:100B8000844216D120A002F073FE4FF0FF311448CA
:100B9000006801F021FC04465CB928A002F068FE60
:100BA0000F48006801F0BCFC0021042001F0ACF803
:100BB000E4E700BFE2E700007461736B31207472F8
:100BC0007920746F20676574206D757465782C20AA
:100BD00077616974203130205469636B2E0A0000FC
:100BE000C40000207461736B3120676574206D75DB
:100BF00074657820675F546573746D757830312E35
:100C00000A000000071D00027461736B31207469D3
:100C10006D656F757420616E642074727920746FD5
:100C20002067657420206D757465782C2077616964
:100C30007420666F72657665722E0A007461736B3C
:100C400031207761697420666F72657665722C67F2
:100C50006F74206D7574657820675F546573746D6B
:100C60007578303120737563636573732E0A0000E5
:100C700010B50FA002F0FCFD4FF0FF3116480068E0
:100C800001F0AAFB04461CB114A002F0F1FD10BD56
:100C900019A002F0EDFD642002F066FA23A002F034
:100CA000E7FD0D48006801F03BFC00BFEFE70000E6
:100CB0007461736B322074727920746F206765746D
:100CC000206D757465782C207761697420666F7269
:100CD000657665722E0A0000C40000207461736B93
:100CE00032204C4F535F4D757850656E64206661BD
:100CF000696C6564202E0A007461736B322067652D
:100D000074206D7574657820675F546573746D75B4
:100D100078303120616E642073757370656E642065
:100D2000313030205469636B2E0A00007461736B9C
:100D30003220726573756D656420616E6420706F1A
:100D400073742074686520675F546573746D75787B
:100D500030310A0010B515A002F08AFD0A212248A0
:100D6000006801F0FFFE044624B91F48006801F046
:100D700079FF10BD1D48844216D11D4802F078FD50
:100D80004FF0FF311848006801F0ECFE04465CB9F2
:100D900018A002F06DFD1448006801F063FF002107
:100DA000032000F0B1FFE4E700BFE2E74578616DA2
:100DB000706C655F53656D5461736B31207472792B
:100DC000206765742073656D20675F757353656D6B
:100DD0004944202C74696D656F757420313020741E
:100DE00069636B732E0A0000D80000200707000219
:100DF000E84F00004578616D706C655F53656D5418
:100E000061736B3120776169745F666F72657665B7
:100E10007220616E6420676F742073656D20675F58
:100E2000757353656D494420737563636573732EE1
:100E30000A00000010B50CA002F01AFD4FF0FF31BF
:100E40001748006801F08EFE044614B915A002F0A0
:100E50000FFD142002F088F922A002F009FD1048CD
:100E6000006801F0FFFE10BD4578616D706C655F34
:100E700053656D5461736B322074727920676574A9
:100E80002073656D20675F757353656D49442077E6
:100E900061697420666F72657665722E0A000000C3
:100EA000D80000204578616D706C655F53656D54A6
:100EB00061736B32206765742073656D20675F75A1
:100EC0007353656D494420616E64207468656E20BB
:100ED00064656C61792032307469636B73202E0A0B
:100EE000000000004578616D706C655F53656D545E
:100EF00061736B3220706F73742073656D20675F50
:100F0000757353656D4944202E0A000010B592B0E8
:100F100000243149002001F0BFFD02F019FA24211C
:100F200009A8FFF737FB2D4809902DA010904FF42A
:100F3000A0600F900520ADF8280009A92B4802F009
:100F400003F804462CB12AA002F092FC012012B052
:100F500010BD24216846FFF71DFB2B4800902BA0F5
:100F600007904FF4A06006900420ADF80400694695
:100F7000294801F0E9FF044664B128A002F078FC9A
:100F80001A48006802F030F910B12AA002F070FC93
:100F90000120DCE702F0B6FA0F48006801F062FEBB
:100FA0000446282002F0E0F80B48006801F0AAFD92
:100FB0000E48006802F018F918B11EA002F058FCA3
:100FC00001241548006802F00FF918B11FA002F0C3
:100FD0004FFC01242046BAE7D8000020550D000040
:100FE0004D7574657854736B31000000D00000209B
:100FF0007461736B31206372656174652066616929
:101000006C6564202E0A0000350E00004D75746575
:101010007854736B32000000D40000207461736B4D
:101020003220637265617465206661696C65642055
:101030002E0A00007461736B312064656C65746501
:10104000206661696C6564202E0A00007461736B10
:10105000322064656C657465206661696C65642026
:101060002E0A000010B58AB0274800F0EDFC0446B7
:101070002CB126A002F0FCFB01200AB010BD2421F7
:1010800001A8FFF787FA2748019027A008904FF49E
:10109000347007900520ADF8080001A9254801F03B
:1010A00053FF044624B124A002F0E2FB0120E4E750
:1010B00027A002F0DDFB0121134800F0A9FD044642
:1010C00024B12DA002F0D4FB0120D6E70E48016820
:1010D0002FA002F0CDFB0C480068C1430A4800F085
:1010E0009FFC094801682AA002F0C2FB1148006871
:1010F00002F07AF8044624B129A002F0B9FB0120DD
:10110000BBE70020B9E70000B4860020696E69746F
:10111000206576656E74206661696C6564202E0AB0
:1011200000000000750700004576656E7454736B0F
:1011300031000000A40000207461736B20637265AD
:10114000617465206661696C6564202E0A00000088
:101150004578616D706C655F5461736B456E747238
:10116000795F4576656E742077726974652065765F
:10117000656E74202E0A00006576656E74207772A5
:10118000697465206661696C6564202E0A00000040
:101190004576656E744D61736B3A25640A000000F4
:1011A0007461736B2064656C657465206661696C3D
:1011B0006564202E0A0000002DE9F041002403267A
:1011C000322732463946204801F060F805462DB1F5
:1011D0001EA002F04DFB0120BDE8F08121A002F02D
:1011E00047FB194800F0D2FF044624B922A002F0C0
:1011F0003FFB0120F0E726A002F03AFB4FF44F70CE
:10120000206028A0216802F033FB21460E4800F040
:10121000DDFF28A0216802F02BFB21460A4800F0E0
:10122000E3FF05463DB92AA002F022FB0021082079
:1012300000F06AFD06E02BA002F01AFB0121082055
:1012400000F062FD0020C7E7C08600204D656D20DC
:10125000626F7820696E6974206661696C65640AE2
:10126000000000004D656D20626F7820696E697422
:10127000206F6B210A0000004D656D20626F7820A1
:10128000616C6C6F63206661696C6564210A0000A3
:101290004D656D20626F7820616C6C6F63206F6BA1
:1012A0000A0000002A705F6E756D203D2025640ADB
:1012B00000000000636C6561722064617461206FDE
:1012C0006B0A202A705F6E756D203D2025640A0030
:1012D0004D656D20626F782066726565206F6B21A9
:1012E0000A0000004D656D20626F782066726565AA
:1012F000206661696C6564210A00000010B519A0C0
:1013000002F0B6FA052001F02FFF044624B11BA01D
:1013100002F0AEFA012010BD1EA002F0A9FA254885
:10132000006802F07DF8044644B123A002F0A0FA60
:101330000121002000F0E8FC0120ECE725A002F0EC
:1013400097FA0021084600F0DFFC1A48006801F017
:101350004BFF20B128A002F08BFA0120DBE7002030
:10136000D9E70000456E746572205461736B48695B
:101370002048616E646C65722E0D0A0044656C61D4
:1013800079205461736B204661696C65642E0D0A87
:10139000000000005461736B4869204C4F535F5448
:1013A00061736B44656C617920446F6E652E0D0A24
:1013B00000000000DC00002053757370656E64202F
:1013C0005461736B4869204661696C65642E0D0A2F
:1013D000000000005461736B4869204C4F535F5408
:1013E00061736B526573756D6520537563636573C7
:1013F000732E0D0A000000005461736B486920646D
:10140000656C657465206661696C6564202E0A00F0
:1014100010B515A002F02CFA0A2001F0A5FE044632
:1014200024B117A002F024FA012010BD1AA002F086
:101430001FFA2248006801F09BFF044644B120A037
:1014400002F016FA0121002000F05EFC0120ECE71A
:101450002148006801F0C8FE20B120A002F008FA7F
:101460000120E2E70020E0E7456E746572205461D8
:10147000736B4C6F2048616E646C65722E0D0A00B0
:1014800044656C6179205461736B4C6F20466169CF
:101490006C65642E0D0A00005461736B4869204C22
:1014A0004F535F5461736B53757370656E64205353
:1014B0007563636573732E0D0A000000DC00002065
:1014C000526573756D65205461736B486920466180
:1014D000696C65642E0D0A00E00000205461736B96
:1014E0004C6F2064656C657465206661696C656429
:1014F000202E0A0010B58AB001F02AFF23A002F0C6
:10150000B7F9294801900420ADF8080027A00890F9
:101510004FF4007007908020099001A9264801F03F
:1015200013FD04463CB101F0EDFF24A002F0A0F948
:1015300001200AB010BD29A002F09AF930480190AC
:101540000520ADF808002FA008904FF40070079018
:101550008020099001A92E4801F0F6FC044674B1E0
:101560001548006801F040FE10B12AA002F080F991
:1015700001F0C8FF2DA002F07BF90120D9E733A0CC
:1015800002F076F901F0BEFF2046D2E74C4F535FE0
:101590005461736B4C6F636B2829205375636365CB
:1015A0007373210D0A000000FD12000048494748EE
:1015B0005F4E414D45000000DC0000204578616D24
:1015C000706C655F5461736B486920637265617408
:1015D00065204661696C6564210D0A004578616D7E
:1015E000706C655F5461736B4869206372656174E8
:1015F000652053756363657373210D0A0000000055
:10160000111400004C4F575F4E414D450000000043
:10161000E00000205461736B48692064656C657458
:1016200065206661696C6564202E0A004578616DED
:10163000706C655F5461736B4C6F2063726561748D
:1016400065204661696C6564210D0A004578616D0D
:10165000706C655F5461736B4C6F2063726561746D
:10166000652053756363657373210D0A00000000E4
:101670002DE9F04138A002F0FBF808213A48006853
:1016800000F0B4FC044620464060006000BF00BF8C
:101690004168814201D1012100E0002129B933A034
:1016A00002F0E6F80120BDE8F08134A002F0E0F895
:1016B00008212D48006800F099FC054608212A48B9
:1016C000006800F093FC064608212748006800F0F7
:1016D0008DFC07462946204600F072FB314628461D
:1016E00000F06EFB2868A04202D03068A84202D108
:1016F0002AA002F0BDF800BF3946206800F060FB68
:1017000000BF3868B04202D129A002F0B1F82DA084
:1017100002F0AEF800BFD5E900010860D5E900107D
:10172000486000206860286000BF284602F028FB5F
:101730006068B04207D128A002F09AF80021072083
:1017400000F0E2FA06E02AA002F092F80121072058
:1017500000F0DAFA0020A6E7696E697469616C2E00
:101760002E2E2E2E2E0A00008C000020696E697429
:1017700069616C206661696C65640A006E6F6465FE
:101780002061646420616E64207461696C2061640E
:10179000642E2E2E2E2E2E0A00000000616464207E
:1017A0006E6F646520737563636573730A00000070
:1017B000616464207461696C20737563636573731D
:1017C0000A00000064656C657465206E6F64652EA8
:1017D0002E2E2E2E2E0A000064656C657465206E18
:1017E0006F646520737563636573730A000000009E
:1017F00064656C657465206E6F6465206572726FD8
:10180000720A00000EB5012002AB234A00210090AD
:101810004FF47A7001F08EFA012001AB1F4A0146A5
:101820000090642001F086FA1DA002F021F8BDF8B6
:10183000080001F007FB20A002F01AF8C82001F010
:1018400093FCBDF8080001F03FFB21A002F010F866
:10185000BDF8080001F0F6FA4FF47A7001F084FC4C
:10186000BDF8080001F0ACFA1EA002F001F8BDF8C6
:10187000040001F0E7FA21A001F0FAFF4FF47A70BA
:1018800001F072FCBDF8040001F01EFBBDF804007D
:1018900001F096FA00200EBDC9370000193800008B
:1018A0006372656174652054696D6572312073756A
:1018B00063636573730A0000737461727420546902
:1018C0006D657231207375636573730A00000000E3
:1018D00073746F702054696D657231207375636520
:1018E00073730A0064656C6574652054696D657274
:1018F00031207375636573730A000000737461723D
:10190000742054696D6572320A0000000246501856
:10191000401E904204D95018401E4B1E98437047F9
:10192000481E22EA0000FAE74FF47A50704710B5DB
:10193000024614462046002305E00146496009603E
:1019400000BF5B1C08301B2BF7D310BD2DE9F04105
:1019500005460E462F46304600F0A6FA04461E2CD9
:1019600002D90020BDE8F081042C00D80424201FF7
:1019700007EBC000F6E7000010B58AB0242101A8EB
:10198000FEF708FE0B4801904FF4A06007900AA0F4
:1019900008901E20ADF8080001A9094801F0D4FA0A
:1019A000044624B107A001F063FF0AB010BD00BFD8
:1019B000FBE70000E919000041706944656D6F00A4
:1019C000EC0000204170692064656D6F20746573C0
:1019D00074207461736B2063726561746520666145
:1019E000696C65640A000000FFF784FD02E0642072
:1019F00001F0BAFBFBE710B503F03EF904460CB169
:101A0000204610BD2046FCE77047704710B500F037
:101A100005F8FFF7FAFFFFF7F7FF10BD704700006A
:101A200070B504460D460CB9064870BDFEF71FFDA3
:101A300006462068284020603046FEF720FD002042
:101A4000F3E70000061C0002014609B9044870478C
:101A500000200860081D4060006000BF0020F6E71D
:101A6000061C00022DE9F04104460D4616460027EB
:101A7000FEF7FDFC804606F0020030B120682840E9
:101A800058B1206800EA050707E035B12068284012
:101A9000A84202D1206800EA05072FB106F0010034
:101AA00010B12068B84320604046FEF7E8FC384695
:101AB000BDE8F0812DE9F05F8146884616461F4655
:101AC0004FF0000AB9F1000F02D14D48BDE8F09F78
:101AD000B8F1000F02D14A48001FF7E708F0007084
:101AE00010B14748801FF1E706F0020010B106F080
:101AF000040028B926F0070010B906F0060010B956
:101B00003F48801EE2E73F48006810B13C48C01ED5
:101B1000DCE7FEF7ACFC8346324641464846FFF719
:101B2000A1FF8246BAF1000F64D127B95846FEF7EB
:101B3000A6FC5046CAE73448008828B15846FEF74C
:101B40009EFC2F48401EC1E73048046804F13C0069
:101B500000F066FDA08820F00400A08004F13C05A0
:101B6000A08840F00800A080C4F85C80266600BF12
:101B7000D9F8040041686960286041680D604560DB
:101B800000BF00BF7FB1781C68B1A08840F0400062
:101B9000A0803946204602F0D1FD5846FEF76FFC82
:101BA00000F05AFF08E0A08820F04000A0805846CE
:101BB000FEF765FC00F050FF207900F0400060B1B6
:101BC000FEF755FC8346A08820F04000A0805846D0
:101BD000FEF755FC0A48401F78E7FEF748FC8346AD
:101BE000324641464846FFF73DFF82465846FEF7DB
:101BF00046FC02E05846FEF742FC504666E700000D
:101C0000061C000298000020200000201800002080
:101C10002DE9F04705460E460027B84615B9394864
:101C2000BDE8F08706F0007010B13648801FF7E776
:101C3000FEF71DFC8146286830432860281D416856
:101C4000814201D1012100E00021002955D1A8687D
:101C5000A0F13C043FE0206CA0F13C0794F8600048
:101C600000F0020010B1E06D304050B994F860000F
:101C700000F0040070B3E06D29680840E16D88420F
:101C800028D14FF0010800BFD4E90F010860D4E962
:101C90000F10486000202064E06300BFA08820F09F
:101CA0000800A080207900F0400030B1204603F009
:101CB00003F8A08820F04000A080207900F0020006
:101CC00040B9A08840F00400A080E18804F13C0005
:101CD00000F0B2FC3C4604F13C00291D8842BAD118
:101CE000B8F1010F05D14846FEF7C9FB00F0B4FE7C
:101CF00006E04846FEF7C3FB02E04846FEF7BFFB9E
:101D000000208DE7061C000270B505460E46002433
:101D10000A2D05DB29460CA001F0AAFD012070BDAB
:101D200000240AE00F4800EB04100078A84203D119
:101D30000C4800EB04104670641C0A2CF2D301D14D
:101D40000120ECE70020EAE70D0A496E7370656335
:101D5000744944203D205B25645D204572722E0D40
:101D60000A0000000001002010B502F087F80446C8
:101D70000CB1012010BD0020FCE742684A600860F9
:101D8000426811604160704742684A60086042687A
:101D900011604160704742684A60086042681160A3
:101DA0004160704742684A60086042681160416063
:101DB000704742684A60086042681160416070473D
:101DC00042684A6008604268116041607047D0E92B
:101DD00000121160D0E900215160002141600160D2
:101DE0007047D0E900121160D0E900215160002154
:101DF000416001607047D0E900121160D0E9002114
:101E000051600021416001607047D0E9001211600B
:101E1000D0E9002151600021416001607047014616
:101E20004868884201D1012070470020FCE7014644
:101E30004868884201D1012070470020FCE7014634
:101E40004868884201D1012070470020FCE7014624
:101E50004868884201D1012070470020FCE74060BB
:101E600000607047406000607047406000607047ED
:101E700040600060704770B504460D4629462068F2
:101E8000FFF77BFF70BD70B504460D4629462068FC
:101E9000FFF77AFF70BD70B504460D4629462068ED
:101EA000FFF780FF70BD0000014601F0004010B157
:101EB0006FF0704070474C480840002847D001F050
:101EC000FE40F8B101F0E04058B101F0804008B1A7
:101ED0001E20EFE701F0005008B11D20EAE71C20AA
:101EE000E8E701F0406030B101F0006008B11B206C
:101EF000E0E71A20DEE701F0007008B11920D9E709
:101F00001820D7E701F4700080B101F4400030B12F
:101F100001F4000008B11720CCE71620CAE701F44D
:101F2000001008B11520C5E71420C3E701F44020D4
:101F300030B101F4002008B11320BBE71220B9E74B
:101F400001F4003008B11120B4E71020B2E701F429
:101F50007F4020B301F4704080B101F4404030B1C3
:101F600001F4004008B10F20A4E70E20A2E701F41D
:101F7000005008B10D209DE70C209BE701F4406064
:101F800030B101F4006008B10B2093E70A2091E71B
:101F900001F4007008B109208CE708208AE701F0FD
:101FA000F00080B101F0C00030B101F0800008B154
:101FB00007207FE706207DE701F0200008B105201B
:101FC00078E7042076E701F00C0030B101F008005A
:101FD00008B103206EE702206CE701F0020008B1AF
:101FE000012067E7002065E70000FF7F2DE9F04151
:101FF00005460C460026FEF73AFA074600BF05B133
:1020000004B909E004F0004000B105E0214628468B
:1020100001F06CFF064600BF00BF3846FEF72FFAFE
:102020003046BDE8F0812DE9F05F80460F4614464A
:102030004FF00009CA4600250026FEF718FA83462D
:1020400000BFB8F1000F00D007B91BE0381900F14C
:10205000040909F0004000B114E04946404601F08F
:1020600045FF05462819401E611E20EA0106B542BB
:1020700000D107E0A6EB050A4AF0804A46F804AC16
:10208000354600BF00BF5846FEF7F9F92846BDE8BF
:10209000F09F2DE9F04705460C4601270026FEF784
:1020A000E6F9814600BFB04605B104B914E054F822
:1020B000046C06F0804010B126F08046A41BA4F109
:1020C00010084146284601F03FFF07461FB9294640
:1020D000404601F0ADFF00BF00BF4846FEF7CFF914
:1020E0003846BDE8F0872DE9F047044688460025CC
:1020F00000270026A94614B1B8F1FF0F03D84FF00E
:10210000FF30BDE8F087FEF7B2F982462646344636
:102110003660C6F8048004F10800FFF708FC04F1FB
:10212000E005281BA8EB00001038E8600020A8603C
:1021300004F10800E968FFF709FC8146B9F1000FD6
:1021400005D15046FEF79BF94FF0FF30D9E700BFAD
:102150002946D9F80000FFF72CFE00BF04EB080069
:10216000A0F11007002038607860B860F860BD60AA
:102170001020F860F86840F00040F860384601F040
:10218000E1FF5046FEF77BF90020BAE72DE9F04168
:1021900005462F460026002415B90020BDE8F08131
:1021A000FEF765F9804607F10806306820B134680B
:1021B00020683060044820604046FEF760F90CB9A2
:1021C0000020EBE7201DE9E7A55A5AA570B50446A3
:1021D0000D46264604B105B970BD3068011F28467A
:1021E000FEF7D8F900BFF7E72DE9F04705460E46A0
:1021F0002C46012705B116B90120BDE8F087FEF78E
:1022000036F9804600BF311F20460A46D0F800C08C
:10221000BCF1000F02D14FF0010C25E000F10C0CD5
:10222000A2EB0C03D0F800C0B3FBFCF90CFB193C8B
:10223000BCF1000F02D04FF0010C15E0D0F800C047
:10224000B3FBFCFCD0F80490CC4502D34FF0010C5A
:102250000AE0DFF83490D2F800C0CC4502D04FF04D
:10226000010C01E04FF0000CBCF1000F00D004E0C5
:10227000A0680860A160002700BF00BF4046FEF7CD
:10228000FEF83846B9E70000A55A5AA52DE9F047EF
:1022900006460F4690463446002516B90120BDE893
:1022A000F087B8F1000F01D10120F8E70C2F01D21F
:1022B0000120F4E7FEF7DBF8824608F1070020F082
:1022C00003002060A7F10C002168B0FBF1F0606012
:1022D000606820B95046FEF7D2F80120DFE704F12C
:1022E0000C05A5604FF0000905E02068284428602F
:1022F0002D6809F101096068401E4845F5D80020A5
:1023000028605046FEF7BBF80020C8E72DE9F041F1
:10231000054615B91448BDE8F081FEF7A8F8074650
:102320001248FFF784FD28B13846FEF7A8F80E489A
:10233000401CF0E70D4846683046FFF752FDA6F115
:10234000080400206080012020700020A08220610D
:1023500004F10800FFF786FD606828603846FEF744
:102360008EF80020D7E70000021D00027400002054
:1023700070B5054605EB45001449096801EBC0043A
:10238000FEF775F806460A2D01D2207820B93046AE
:10239000FEF775F80E4870BD04F10800FFF747FD21
:1023A00008B1608828B13046FEF769F8084808305F
:1023B000F1E704F108010748FFF7E6FC0020207070
:1023C0003046FEF75CF80020E5E7000070000020D2
:1023D000011D0002740000202DE9F04706460F465B
:1023E00006EB46004949096801EBC005FEF73FF8D6
:1023F00082460A2E01D2287828B95046FEF73FF8C7
:102400004348BDE8F0874348006828B15046FEF7CE
:1024100036F83F48001DF4E73F480468688850B923
:102420006888401C68802C61E088A8825046FEF7CE
:1024300026F80020E5E72869A04207D16888401CFB
:1024400068805046FEF71BF80020DAE72FB95046A7
:10245000FEF715F82E48C01CD3E73048008820B19D
:10246000DFF8AC8008F105084AE004F13C0000F018
:10247000D7F8A08820F00400A080656204F13C0930
:10248000A08840F00800A0802869C088E1888842C0
:1024900003DDE188286902F0D3FA494605F1080016
:1024A000FFF7F1FC781C68B1A08840F04000A080E4
:1024B0003946204602F042F95046FDF7E0FF00F0B1
:1024C000CBFA08E0A08820F04000A0805046FDF73D
:1024D000D6FF00F0C1FA207900F0400070B1FDF79E
:1024E000C6FF8246A08820F04000A0805046FDF73D
:1024F000C6FFDFF81C8008F1060805E0002080E731
:102500005046FDF7BCFF00BF40467AE77000002050
:10251000011D00029800002018000020200000206B
:102520002DE9F041064606EB46003949096801EB02
:10253000C004FDF79CFF80460A2E01D2207828B9FE
:102540004046FDF79CFF3348BDE8F0813248006803
:1025500028B14046FDF793FF2E48001DF4E72F48B1
:102560000768608810B12069B84204D04046FDF782
:1025700086FF2848E8E76088401E80B2608020B16E
:102580004046FDF77CFF0020DEE72069C088A18A75
:10259000884203D0A18A206902F052FA04F10800AF
:1025A000FFF745FC70BBE068A0F13C05E068FFF771
:1025B00018FCA88820F00800A880287900F04000C6
:1025C00030B1284602F078FBA88820F04000A880AF
:1025D000012060802561E888A08200206862287957
:1025E00000F0020040B9A88840F00400A880E98803
:1025F00005F13C0000F020F84046FDF740FF00F0F8
:102600002BFA02E04046FDF73AFF00209CE700006D
:1026100070000020011D000298000020180000201A
:1026200000BFD0E900121160D0E900215160002103
:102630004160016000BF704710B50A46064909684D
:1026400001EBC20319684C68446001604C6820606B
:10265000486000BF00BF10BD000000200146002000
:102660000022074B1B6803EBC1035A6801E0401CC2
:102670005268034B1B6803EBC1039342F7D17047C9
:102680000000002000210020014612E00B4A1268E1
:1026900002EBC1004268824201D1012200E0002227
:1026A0002AB90648006800EBC10040687047481C22
:1026B00001462029EAD30020F8E7000000000020AE
:1026C0002DE9F84F81460C4615469A460A9E15B9E3
:1026D0001948BDE8F88F4FF6FB70864202DD1648B8
:1026E0000938F6E704B116B91348401CF1E7FDF7C5
:1026F000BEFE8046301D82B26B462946204601F060
:10270000C3FD074627B14046FDF7B9FE3846E0E76E
:1027100000981430FFF7A9FB00981C30FFF7A5FBC9
:1027200000982430FFF7A1FB0098C4814046FDF7D4
:10273000A6FE0020CDE700000C0600022DE9F041C6
:102740000646771E0A2F02D32548BDE8F081FDF723
:102750008EFE804607EB470000EBC7002149096861
:1027600001EB8004A08818B900BF1D4D6D1D31E03C
:1027700004F11C00FFF763FB18B900BF184DED1CF6
:1027800028E004F11400FFF75AFB18B900BF144DFC
:10279000ED1C1FE004F12400FFF751FB18B900BF46
:1027A0000F4DED1C16E0E089218A0844E18888423B
:1027B00003D000BF0A4DAD1D0CE00B482168006836
:1027C000FFF767FC054615B100BF00BF02E000201F
:1027D000A08000BF4046FDF752FE2846B5E7000046
:1027E000050600027C0000208C0000202DE9FC5F23
:1027F00080460F4691461E4600200090A8F1010B2E
:10280000BBF10A0F02D34048BDE8FC9F17B93E4810
:10281000401CF9E7B9F1000F02D13B48801CF3E7F7
:102820002EB13A48006810B137480A30ECE7FDF79E
:102830001EFE01900BEB4B0000EBCB003449096806
:1028400001EB8004A08820B900BF2F480E30009013
:1028500054E0208A50BB26B900BF2B480F300090AF
:102860004CE02C48008820B100BF27480838009071
:1028700044E029480568324604F11C01284601F06D
:1028800057FD0198FDF7FBFD00F0E6F8FDF7EFFDC1
:102890000190287900F0400058B1A88820F040004D
:1028A000A88000BF1848C01F009027E0208A401E63
:1028B000208261892289206801FB020ADAF800007F
:1028C00038606089401C80B26081E188884201D113
:1028D0000020608104F11400FFF7B1FA50B904F14F
:1028E000140001F067FD0198FDF7C9FD00F0B4F890
:1028F000002089E7E089401CE08100BF0198FDF7D6
:10290000BEFD009880E700000E060002980000203F
:102910007C00002020000020180000202DE9FC5F32
:1029200081460F4690461E4600200090A9F1010BFB
:10293000BBF10A0F02D34348BDE8FC9F17B94148D9
:10294000401CF9E7B8F1000F02D13E48801CF3E7C4
:102950002EB13D48006810B13A480838ECE7FDF761
:1029600086FD01900BEB4B0000EBCB00374909686B
:1029700001EB8004A08820B900BF3248C01C009041
:102980005BE02089404504D200BF2E48001D009026
:1029900053E0E08950BB26B900BF2A48401D009093
:1029A0004BE02B48008820B100BF26480B38009030
:1029B00043E028480568324604F11401284601F036
:1029C000B7FC0198FDF75BFD00F046F8FDF74FFD01
:1029D0000190287900F0400058B1A88820F040000C
:1029E000A88000BF17480A38009026E0E089401E02
:1029F000E081A1892289206801FB020ACAF80070DF
:102A0000A089401C80B2A081E188884201D10020C9
:102A1000A08104F11C00FFF712FA50B904F11C0068
:102A200001F0C8FC0198FDF72AFD00F015F8002020
:102A300082E7208A401C208200BF0198FDF71FFD1D
:102A4000009879E711060002980000207C00002021
:102A5000200000201800002010B5FDF708FD0446F6
:102A6000FFF710FE3C380A4948600846006849688C
:102A7000884208D00748008828B92046FDF7FFFCA7
:102A8000FDF700FD10BD2046FDF7F9FC00BFF9E79A
:102A900018000020200000202DE9F04105460E46D8
:102AA00016B91648BDE8F0814FF6FE70854202DD8A
:102AB0001248801DF6E7FDF7DAFC80461048FFF764
:102AC000C6F928B14046FDF7DAFC0C48401CE9E79E
:102AD0000B4847683846FFF78EF9A7F10804658070
:102AE0000120207004F10800FFF7C2F9606830602F
:102AF0004046FDF7C4FC0020D4E7000002070002B6
:102B00008000002070B505461348006800EB0514EE
:102B1000FDF7ADFC06460A2D01D2207820B93046DB
:102B2000FDF7ADFC0D4870BD04F10800FFF78FF90B
:102B300028B93046FDF7A3FC08480830F3E704F154
:102B400008010748FFF72EF9002020703046FDF7F6
:102B500096FC0020E7E70000880000200107000243
:102B6000800000202DE9F047074688463848006875
:102B700000EB0715FDF77BFC82460A2F01D228786F
:102B800028B95046FDF77BFC3248BDE8F0876888DD
:102B9000002807DD6888401E68805046FDF76FFCFE
:102BA0000020F2E7B8F1000F02D12A4EF61C49E0EE
:102BB0002948006810B1274E361D43E02748008899
:102BC00010B1244E761D3DE02548046804F13C0018
:102BD000FFF726FDA08820F00400A080A56104F185
:102BE0003C09A08840F00800A080494605F1080093
:102BF000FFF751F908F1010040B1A08840F0400012
:102C0000A0804146204601F099FD03E0A08820F015
:102C10004000A0805046FDF732FCFFF71DFF2079F1
:102C200000F0400060B1FDF722FC8246A08820F051
:102C30004000A0805046FDF722FC064EB61D05E080
:102C40000020A2E75046FDF71AFC00BF30469CE783
:102C500088000020010700029800002020000020CA
:102C6000180000202DE9F04106462A48006800EBD4
:102C700006150A2E02D32848BDE8F081FDF7F7FBC0
:102C80000746287820B93846FDF7F9FB2248F3E7D4
:102C900068884FF6FE71884205D13846FDF7EFFB94
:102CA0001D48C01DE8E705F10800FFF7D0F848BB54
:102CB000E868A0F13C04E868FFF79DF8A08820F0E0
:102CC0000800A080207900F0400030B1204601F0DB
:102CD000F3FFA08820F04000A0800020A0612079B0
:102CE00000F0020040B9A08840F00400A080E18814
:102CF00004F13C00FFF7A0FC3846FDF7C0FBFFF7EE
:102D0000ABFE05E06888401C68803846FDF7B7FBDD
:102D10000020B1E788000020010700020149086097
:102D2000704700009400002010B50024FDF772FBEE
:102D3000204610BD2DE9F04705460E461746984639
:102D4000DDF8209015B91C48BDE8F08726B1012EAA
:102D500002D01948401CF7E717B91748401EF3E79F
:102D6000B8F1000F02D11448801CEDE7FDF77FFB9E
:102D700082461248006828B95046FDF780FB0E488D
:102D8000C01CE1E70D4804680C4920680860504603
:102D9000FDF775FBE76166710020A0712561656133
:102DA0002060E060C4F81890012020712089A8F804
:102DB00000000020C8E70000010300020C00002012
:102DC0002DE9F041044600274FF6F070844202DB03
:102DD0001A48BDE8F081FDF74AFB80462046E1171E
:102DE00004EB11710911A4EB01118EB214480068B3
:102DF00000EB46152889A04204D04046FDF73FFB72
:102E00000E48E6E7287920B1012809D002280BD125
:102E100002E00A4F7F1C0AE0284601F06BFC00BF6D
:102E2000284601F04BFC02E0044F093700BF00BF09
:102E30004046FDF724FB3846CBE7000005030002BF
:102E4000080000202DE9F041044600274FF6F070FD
:102E5000844202DB1A48BDE8F081FDF708FB80469A
:102E60002046E11704EB11710911A4EB01118EB298
:102E70001448006800EB46152889A04204D040465B
:102E8000FDF7FDFA0E48E6E7287920B1012809D0C0
:102E900002280BD102E00A4F7F1C0AE0284601F00D
:102EA00029FC00BF284601F047FB02E0044F093728
:102EB00000BF00BF4046FDF7E2FA3846CBE700000E
:102EC00005030002080000202DE9F0410446002718
:102ED0004FF6F070844202DB1948BDE8F081FDF73F
:102EE000C6FA80462046E11704EB11710911A4EBE4
:102EF00001118EB21348006800EB46152889A042E4
:102F000004D04046FDF7BBFA0D48E6E7287920B12A
:102F1000012805D002280AD105E0094F7F1C09E0ED
:102F2000074F083706E0284601F0E4FB02E0044FB3
:102F3000093700BF00BF4046FDF7A1FA3846CCE78D
:102F400005030002080000202DE9F04105460F4668
:102F500000263946284600F045F8064616B13046A8
:102F6000BDE8F081286800EB800101EBC000194941
:102F7000096801EBC004FDF77AFA8046A08820F0CA
:102F80000200A080A08840F00400A080E18804F145
:102F90003C00FFF751FBFFF775FB3C380E494860DA
:102FA0000E48006888B10E48008870B9084600686D
:102FB0004968884209D00A48008830B94046FDF780
:102FC0005EFA01F033FA0020CAE74046FDF757FAEF
:102FD0000020C5E714000020180000205000002049
:102FE000200000202DE9F05F07460D464FF0000954
:102FF0004FF0FF3A17B95748BDE8F09F15B955484B
:10300000801FF9E7E86910B95248801EF4E7286884
:1030100010B95048C01EEFE7A8881F2802DD4D48B0
:10302000001FE9E7A869B0F5004F02D949481930F7
:10303000E2E7A86910B94FF43470A8610821A869C3
:10304000FEF764FCA86110214FF49870FEF75EFC57
:10305000A969884202D93F48401ECDE7FDF707FA2B
:10306000834611E03C484068A0F13C043A49486876
:10307000FEF7ADFE04F13C013848FEF77EFE38480D
:10308000E1680068FFF705F83348FEF7C8FE00283E
:10309000E8D03248FEF7C3FE28B1DFF8B8A00AF145
:1030A0000A0A00BF51E02D484068A0F13C042B49BA
:1030B0004868FEF78CFE5846FDF7E1F9D4F8109009
:1030C00008222748A9690068FEF7ADFF06465EB9E9
:1030D000FDF7CDF9834604F13C012048FEF74DFE93
:1030E000DFF880A000BF30E032464846A96901F011
:1030F00035FE8046C4F80080A868A062E968E162F5
:103100002969216369696163E660A869A06000209C
:10311000A061E06160620220A080A088296A09B1F4
:10312000802100E000210843A080A888E080286872
:1031300060614FF0FF3020650020E065E869A06322
:1031400000206066C7F8009056E75846FDF797F9EB
:10315000504651E7070200024000002038000020DE
:103160008C0000200002000370B504461948006876
:1031700008B1194870BD1948008808B11848F9E726
:1031800014B900F0DDF9F5E7FDF771F905461549C9
:10319000096801F13C00FFF743FA12480068808893
:1031A00020F004000F49096888800E49086821460C
:1031B00001F0C4FA0B480068808840F020000949FB
:1031C000096888802846FDF75AF9FFF745FC00207A
:1031D000D0E70000980000200D020003200000202E
:1031E0000E020002180000202DE9F04106464FF0C3
:1031F000FF374D480068864202D14C48BDE8F08157
:103200004B480068864202D348480D38F6E7FDF780
:103210002EF9804606EB860000EBC600454909689A
:1032200001EBC004A588207900F0010018B13F4FE0
:103230000A3F00BF73E005F0100028B13E48008847
:1032400010B13E4F00BF6AE005F0040040B104F148
:103250003C00FFF7E5F9A08820F00400A08009E019
:1032600005F0080010B905F4005018B104F13C0055
:10327000FEF7ADFD05F0600010B1204601F01CFD29
:10328000A08820F00200A080A08840F00100A0806B
:103290004FF0FF3020650020E065FFF7F3F93C3880
:1032A00027494860207900F0100038B304F13C0150
:1032B0002448FEF7E0FD1E48006800EB800101EBAA
:1032C000C0001C49096801EBC0001D4908600846A0
:1032D00000680661A088096888801949E068096863
:1032E000C8601749A06B096888630120A080404628
:1032F000FDF7C5F801F09AF800207FE70120A080D3
:1033000004F13C011048FEF738FD1048E168006800
:10331000FEF7BFFE4046FDF7B2F800206EE74046DC
:10332000FDF7ADF8384669E72800002014020002D6
:103330002400002014000020200000200B020003C5
:103340001800002040000020380000208C000020E1
:1033500010B5FDF78CF8044604480088401C03496A
:1033600008802046FDF78BF810BD000020000020EB
:103370002DE9F04105464FF0FF370F2D02D92448C3
:10338000BDE8F08105EB850000EBC5002149096827
:1033900001EBC004FDF76BF88046A68806F001003B
:1033A00018B11B4FFF1C00BF2CE006F0020018B93B
:1033B000174FBF1C00BF25E0A08820F00200A080AE
:1033C000A08842F22A410840B8B9A08840F0040021
:1033D000A080E18804F13C00FFF72EF90E48006858
:1033E00030B14046FDF74BF8FFF736FB0020C7E74A
:1033F000FFF748F93C38094948604046FDF73FF877
:103400000020BDE74046FDF73AF83846B8E700002F
:1034100007020002140000205000002018000020C5
:103420002DE9F04105464FF0FF372E4800688542F0
:1034300002D12D48BDE8F0812C480068854202D1B8
:1034400029480D30F6E72A480068854202D326480D
:103450000D38EFE705EB850000EBC500254909684D
:1034600001EBC004FDF703F88046A68806F00100D2
:1034700018B11D4F0A3F00BF2FE006F0020018B13F
:10348000194F0C3F00BF28E006F0100028B11A4881
:10349000008810B1194F00BF1FE006F0040038B1DA
:1034A00004F13C00FFF7BCF8A08820F00400A080E5
:1034B000A08840F00200A080114800680069A8427E
:1034C00006D14046FCF7DBFFFFF7C6FA0020B1E764
:1034D0004046FCF7D4FF0020ACE74046FCF7CFFFA6
:1034E0003846A7E728000020140200022C00002024
:1034F00024000020140000202000002015020003FA
:103500001800002010B5FCF7B2FF04460B480088F5
:1035100000280DDD09480088401E0849088008463B
:10352000008828B92046FCF7AAFFFFF795FA10BDDE
:103530002046FCF7A4FF00BFF9E7000020000020B0
:1035400070B500241C48006800691C49096888425D
:1035500001D31B4870BDFCF78AFF05461649096870
:10356000C888FFF77BF80446012C17D9124909686F
:1035700001F13C00FEF72BFC0F480068808840F00A
:1035800004000D49096888800B4A1268D1880A4AEC
:10359000126802F13C00FFF74FF805E02846FCF7FF
:1035A0006EFF07480930D5E72846FCF768FFFFF7AC
:1035B00053FA0020CEE7000018000020240000206D
:1035C00007020002014903C97047000058000020AB
:1035D00010B5FCF74CFF04460A480068401C094936
:1035E00008602046FCF74BFF01F032FBFCF73FFF81
:1035F000044604480068401E024908602046FCF763
:103600003EFF10BD98000020704710B5FFF7E0FFA7
:1036100010BD000001480249086070470090D003C7
:10362000A000002010B500F0CDFA10B15C485D4953
:10363000486700F0DFFA28B15B480068C0F3423009
:103640005A49086000F000FB28B15948006820F092
:1036500080705749086000F00FFB48B100205549C1
:1036600008604FF08041C1F810015049091F0860FF
:1036700000F02CFB18B103204C496431086000F0C5
:103680003DFB68B105204C49086001204A4978316A
:10369000086000204849083108603F20091F086081
:1036A00000F044FB002855D04448006844490860B5
:1036B0004248001D0068091D086040480830006845
:1036C000091D08603D480C300068091D08603B4832
:1036D00010300068091D0860384814300068091D62
:1036E0000860364818300068354920310860334892
:1036F0001C300068091D0860304820300068091D32
:1037000008602E4824300068091D08602B482830C6
:103710000068091D086029482C300068091D0860F0
:10372000264830300068264940310860234834304C
:103730000068091D0860214838300068091D0860CC
:103740001E483C300068091D08601C484030006875
:10375000091D086000F00CFA30B1134814300068FD
:1037600000F04F001749086011487438006840F4B1
:1037700070000F497439086000BF00BF00BFBFF37D
:103780004F8F00BF00BF00BF00BF00BF00BFBFF32F
:103790006F8F00BF00BF00BFFFF73CFF10BD0000F0
:1037A0000DF0ADBA00C00740440200103C050040D7
:1037B000FCED00E00C010040105600400404001035
:1037C00020C50040E40E004070B50546084800687A
:1037D000401C07490860FFF7F5FE044604480168ED
:1037E00004A000F045F8214607A000F041F870BDA4
:1037F000E4000020675F74696D6572636F756E74B5
:10380000313D25640A0000007469636B5F6C61736D
:1038100074313D256C750A0070B50546FFF7D2FE80
:10382000044609480068401C0749086008460168CA
:1038300006A000F01DF8214609A000F019F80021AB
:103840000620FEF761FA70BDE8000020675F74692A
:103850006D6572636F756E74323D25640A000000F9
:103860007469636B5F6C617374323D256C750A001B
:103870000FB4054B10B503A9044A029800F018F8DC
:1038800010BC5DF814FB00005D3D0000F00000205E
:1038900002E008C8121F08C1002AFAD17047704719
:1038A000002001E001C1121F002AFBD17047000077
:1038B0002DE9FF4F8DB09B460F460446002606E0DB
:1038C00025280BD05A460F999047641C761C207807
:1038D0000028F5D111B03046BDE8F08F0025A8468C
:1038E0000122984900E0054314F8013F203B02FA09
:1038F00003F00842F7D120782E2817D114F8010FD1
:1039000045F004052A280ED06FF02F022078A0F190
:10391000300109290AD808EB880102EB410100EBCC
:103920000108641CF2E757F8048B641C20786C28AB
:103930000DD004DC4C2812D06A2811D104E0742880
:103940000DD07A280CD10AE045F4001507E0617823
:1039500045F48015814202D1641C05F58015641C74
:103960002278692A45D008DC002AB3D0582A69D0C9
:10397000632A10D0642A08D13BE0702A67D0732AEA
:1039800013D0752A5CD0782A5CD010465A460F991D
:103990009047761CD3E017F8040B8DF80000002048
:1039A0008DF80100E946012003E057F8049B4FF031
:1039B000FF3069074FF0000501D40AE06D1C454552
:1039C0000DDA8542FADB19F805100029F6D106E078
:1039D0006D1C8542FCDB19F805100029F8D12E4436
:1039E00004E019F8010B5A460F9990476D1EF8D262
:1039F000A5E00A200021CDE90801C5F30250022804
:103A00000DD001CFC117031E71F100030DDA4FF085
:103A1000000CD0EB0C006CEB01012D2308E0FF1D26
:103A200027F00707F7E80201EDE72B0504D52B2364
:103A30008DF8283001233BE0EB0739D02023F7E74E
:103A40000A2000E010200021CDE9080107E0102045
:103A5000002145F00405CDE908014FF00808C5F341
:103A6000025002280FD001CF00214FF0000A2B078F
:103A70001FD5702A0DD0DDE908C38CF0100C5CEA6C
:103A8000030C0CD015E0FF1D27F00707F7E8020133
:103A9000EBE740228DF828204FF0010A0BE050EAB6
:103AA000010306D030238DF828308DF82920022319
:103AB0009A46582A04D024A20DF120090B9209E05D
:103AC00026A2F9E7DDE90823FCF72CFD0B9B9B5CA4
:103AD00009F8013D50EA0102F4D1ADEB09002030B4
:103AE0000890680701D44FF001080899884502DD65
:103AF000A8EB010000E000208046002506E00AA8AF
:103B00005A46405D0F9990476D1C761C5545F6DB73
:103B100004E030205A460F999047761CB8F1000116
:103B2000A8F10108F5DC05E019F8010B5A460F99D8
:103B30009047761C0899481E08900029F4DC641C04
:103B4000C5E60000092801003031323334353637FC
:103B500038396162636465660000000030313233D9
:103B60003435363738394142434445460000000079
:103B700013480078062820D11148001D007800F075
:103B80000F00D0B90E480830007800F0F00030285F
:103B900001D1012070470A480830007800F0F00099
:103BA000402801D10120F5E705480830007800F0F1
:103BB000F000502801D10120ECE70020EAE70000E6
:103BC000E00F00F00A48007806280ED10848001DD2
:103BD000007800F00F0040B905480830007800F088
:103BE000F000302801D1012070470020FCE70000E0
:103BF000E00F00F013480078062820D11148001D7E
:103C0000007800F00F00D0B90E480830007800F0BE
:103C1000F000302801D1012070470A4808300078B0
:103C200000F0F000402801D10120F5E705480830F8
:103C3000007800F0F000502801D10120ECE70020CE
:103C4000EAE70000E00F00F00A48007806280ED1ED
:103C50000848001D007800F00F0040B90548083002
:103C6000007800F0F000302801D1012070470020DA
:103C7000FCE70000E00F00F013480078062820D190
:103C80001148001D007800F00F00D0B90E48083030
:103C9000007800F0F000302801D1012070470A4878
:103CA0000830007800F0F000402801D10120F5E74D
:103CB00005480830007800F0F000502801D10120BC
:103CC000ECE70020EAE70000E00F00F00A48007887
:103CD00006280ED10848001D007800F00F0040B9FA
:103CE00005480830007800F0F000302801D10120AC
:103CF00070470020FCE70000E00F00F00A48007861
:103D000006280ED10848001D007800F00F0040B9C9
:103D100005480830007800F0F000302801D101207B
:103D200070470020FCE70000E00F00F00A48007830
:103D300006280ED10848001D007800F00F0040B999
:103D400005480830007800F0F000502801D101202B
:103D500070470020FCE70000E00F00F0074A1268FF
:103D600002F0807242B100BF4FF060421268002A38
:103D7000FAD04FF06043187070470000FCED00E08F
:103D800010B5002821D0114B0022001F196803E054
:103D9000814203D80A4649680029F9D152B1136813
:103DA000841A9C4204D1006818441060104602E056
:103DB000506000E0186039B102680B1A934203D1D9
:103DC0000B681A4402604968416010BDA0010020E0
:103DD00010B5FDF7C9FF04460CB1012010BDFDF779
:103DE0000AFEFDF713FEFDF7C7FDFEF79DFF00BFBE
:103DF000FEE700F03DF800BFFEE7000010B510241C
:103E000004E00548054941F82400641CFF2CF8D95A
:103E1000FFF7FAFB10BD0000F33D0000A4010020F5
:103E200000BFFEE710B58AB0242101A8FCF7B2FB61
:103E30000A4801904FF4A060079009A008901F2045
:103E4000ADF8080001A90948FFF77EF8044614B14F
:103E500020460AB010BD0020FBE70000213E000014
:103E600049646C65436F7265303030002800002073
:103E700010B5FCF7F7FA0446204610BD10B500F067
:103E8000C7FA00F09DF904460CB1204610BD164853
:103E9000007808B1FFF7B2FF00F006FD04460CB150
:103EA0002046F3E700F0C6FA04460CB12046EDE7E1
:103EB00000F098F904460CB12046E7E700F01CFA40
:103EC00004460CB12046E1E700F0E0FA04460CB1EC
:103ED0002046DBE700F03AFFFFF7A4FF04460CB1F1
:103EE0002046D3E70020D1E7E44F00002DE9F04160
:103EF00007460E46002406F1130020F0030529466C
:103F0000384600F06DF8044614B90020BDE8F08191
:103F100005F11400E168814204D32A46214638465F
:103F200000F020F92046FDF770FF204600F00AF966
:103F3000E06840F00040E060E16821F0004000F0FF
:103F400061FD04F11000E1E72DE9F84F05460C464C
:103F50002E4605F1E00870682844A0F1100A706848
:103F600047194FF000092B4652464146204600971C
:103F700000F0B7F810B90120BDE8F88FE06800F054
:103F8000004008B90120F7E7E06820F0004000EBAE
:103F900004092B46524641464846009700F0A1F8D6
:103FA00008B90120E8E7D9F80800A04201D00120B3
:103FB000E2E7444512D000972B4652464146A0689E
:103FC00000F08FF808B90120D6E7A068C16821F099
:103FD00000410844A04201D00120CDE70020CBE7FA
:103FE00070B505460E460024314605F10800FDF780
:103FF000ADFC044618E000206168084605E0C16891
:10400000B14200D370BD41680846A042F7D105F126
:1040100008002146024602F1D0038B4201D1002361
:1040200001E001F108031C46002CE4D10020E9E77F
:104030002DE9F04104460E460027B846E16821F01C
:10404000004000F0C5FCE06820F00040E060A0689F
:1040500048B3A068C06800F0004020BBA5682046B7
:1040600000F05EF8E86820F000404719F86800F0BA
:10407000004028B93846FDF7C8FE384600F050F831
:104080002846FDF7C2FE06F10800E968FDF75EFC70
:104090008046B8F1000F01D1BDE8F08129464046C5
:1040A000FDF787FE1BE0E06820F000400719F86884
:1040B00000F0004028B93846FDF7A7FE384600F06A
:1040C0002FF806F10800E168FDF740FC8046B8F1E2
:1040D000000F00D1E0E721464046FDF76AFE00BF31
:1040E000DAE730B50446039DA14201D8944201D9D4
:1040F000002030BDE06800F0004038B1206860402A
:10410000401C08B10020F4E70120F2E72068984243
:1041100002D32068A84201D30020EAE70120E8E7A3
:1041200000218268D268C3681A448368DA60C26872
:10413000111882688A6000BF0022026042608260BB
:1041400000BF7047C14301600549096821B10449B6
:1041500009680969416002E04FF0FF314160704732
:10416000180000202DE9F04780460D461646002431
:104170000027A146AC19A560E868801BE060EE60EE
:10418000E06820F000400719BC60F86800F00040CB
:1041900028B93846FDF739FE3846FFF7C1FF08F168
:1041A0000800E168FDF7D2FB8146B9F1000F01D1AB
:1041B000BDE8F08721464846FDF7FBFD00BFF7E765
:1041C00010B50648064908604FF4004104480068ED
:1041D000FDF789FF0446204610BD0000740600204C
:1041E0008C00002070B51248FDF73CFEF02111480C
:1041F0000068FDF7FBFE104908600846006808B932
:104200000E4870BD00240EE004EB44000A49096822
:1042100001EBC0056C600020287005F1080104481E
:10422000FDF731FE641C0A2CEED30020E9E7000004
:10423000740000208C00002070000020001D00028F
:1042400070B5002400254FF4807529460C4800689D
:10425000FDF7CCFE0B4908600846006800B970BD48
:104260000020044608E00749096801EBC4004060EB
:10427000006000BF601C0446202CF4D300BFEEE7B2
:104280008C000020000000202DE9F04706468846FB
:104290001746994615480468002507E0A08818B914
:1042A000681CC8F8000003E06D1C2C340A2DF5D3FF
:1042B00000BF0A2D02D10E48BDE8F0872C21204610
:1042C000FCF768F906FB07F10A480068FDF78EFE67
:1042D0002060206810B90648801EEDE7E68027813F
:1042E0000120A080C9F800400020E5E77C00002004
:1042F000040600028C00002010B54FF4DC71094860
:104300000068FDF773FE084908600846006808B9B0
:10431000064810BD4FF4DC7103480068FCF73AF919
:104320000020F6E78C0000207C000020010600023F
:104330002DE9F04104460D4617464FF000080026CF
:1043400004F13C00FEF76CF9A08820F00400A08086
:1043500004F13C08A08840F40050A0802846FDF7F6
:104360006EFD30B100BF41462868FDF714FD00BF67
:1043700014E06868A0F13C0607E0E088F188884214
:1043800000DA06E0306CA0F13C0606F13C00A842E1
:10439000F3D100BF4146F06BFDF7FDFC781C38B14E
:1043A000A08840F04000A0803946204600F0C6F9C1
:1043B000BDE8F08170B505466868A0F13C04686806
:1043C000D0E900121160D0E9002151600021416064
:1043D000016000BFA08820F40050A080207900F088
:1043E000400030B1204600F067FCA08820F040007B
:1043F000A080207900F0020040B9A08840F00400BD
:10440000A080E18804F13C00FEF716F970BD0000C1
:104410001020034908600348034908607047000002
:1044200024000020748600209000002010B5FCF7C6
:1044300029F810BD70B51148FDF71AFDA0211048EC
:104440000068FDF7D3FD0F4908600846006808B909
:104450000D4870BD00240CE00A48006800EB04150C
:104460006C600020287005F108010448FDF713FD79
:10447000641C0A2CF0D30020EBE700008000002031
:104480008C00002088000020000700022DE9F8437E
:104490000020224908604FF4007841462048006817
:1044A000FDF7A4FD044614B91E48BDE8F883414653
:1044B0002046FCF76FF81C4804601C48046000208C
:1044C000208125462034012705E027812C602546E0
:1044D000781C87B22034102FF7DB0822D021144833
:1044E000FDF7D4FE064616B10E48C01CDDE70420D9
:1044F0000023104A102100901846FEF7E1F8064606
:1045000016B10848001DD0E700F06EF8064616B157
:104510000448401DC9E70020C7E700001000002044
:104520008C00002007030002080000200C0000207F
:10453000A40500200400002010B50022002183798A
:104540003BB9437913B14379022B02D14369C3606C
:1045500001E00369C3600F4B19680AE0CB68C468C7
:10456000A34200D907E0C368CC681B1BC3600A469E
:1045700009680029F2D100BF016019B1CB68C46895
:104580001B1BCB6012B9034B186000E010600223C4
:10459000037110BD100000200EB50020029000BF76
:1045A0004FF0FF33042202A90D480068FEF71EF900
:1045B0000446002CF4D102980028F1D0029800683B
:1045C000009002984068019006480299FDF70CFEA1
:1045D00000980028E4D0DDE900108847E0E70000FB
:1045E00004000020A405002010B58AB0242101A8F1
:1045F000FBF7D0FF094801904FF43470079008A0F2
:1046000008900020ADF808008020099001A9074813
:10461000FEF79AFC044620460AB010BD99450000FA
:104620005377745F5461736B000000002C0000200E
:1046300070B51F48046836E01D49206808601D48B1
:10464000FDF7A4FD05467DB1E0692860A0696860BA
:1046500000230422294618480068FEF75FF918B1C4
:1046600029461448FDF7C0FD6079A0B9204600F046
:1046700025F820894FF6E071884203DA208910304E
:1046800020810EE02089C11700EB11710911A0EB08
:104690000111218105E0A079401CA0712046FFF79F
:1046A0004BFF0348046814B1E0680028C4D070BD13
:1046B00010000020A4050020040000200349096820
:1046C0000160024908600021017170470C00002060
:1046D00010B50748006848B105480068C068401E2A
:1046E00003490968C86008B9FFF7A2FF002010BDA0
:1046F0001000002010B50246002100200E4B186863
:1047000001E0014600689042FBD103682BB10368C9
:10471000DB68C46823440468E36019B9064C036885
:10472000236001E003680B60002303600123037131
:104730000023837110BD0000100000202DE9F04718
:104740000446884608F01F074FEA581907B101E0F0
:10475000A9F10109E06C00F0784040EA0900E0644A
:1047600025488088074407F01F07E06C67F3DF6087
:10477000E0642148006800EBC7067068B04205D1CC
:1047800004F144013046FDF776FB33E07068A0F198
:10479000440500BFE86C20F07840E16C21F07841DE
:1047A00088420CD8E06C20F07840E96C21F0784128
:1047B000401AE16C01F078410843E0640CE0E86CD9
:1047C00020F07840E16C21F07841401AE96C01F06A
:1047D00078410843E86406E0A86CA0F1440505F1BF
:1047E0004400B042D6D100BF04F1440105F14400B9
:1047F000FDF741FBBDE8F087480000202DE9F041BE
:10480000054605EB850000EBC5002349096801EB6F
:10481000C004E06930B1666904F128000FC8B047F0
:10482000206204E0666904F128000FC8B0472079CF
:1048300000F0800050B1FBF71AFE07460020174930
:1048400008803946206900F085F922E0FBF70FFE69
:1048500007460020114908803846FBF710FEFEF796
:1048600077FDE06928B1E1694868FEF7FBF90020AF
:10487000E061207900F0040038B104F13C00FDF75C
:10488000CFFEA08820F00400A080FEF73BFEFEF7DC
:10489000E3F8BDE8F08100001400002020000020B3
:1048A000FBF7E3FD00BFFEE770B540480068401C21
:1048B000682100FB01F631463D480068FDF796FB94
:1048C0003C4908600846006808B93B4870BD31465D
:1048D00038480068FBF75EFE3848FDF7C0FA3848F4
:1048E000FDF7BDFA3748FDF7BAFA002420E00120B1
:1048F00004EB840101EBC4012E4A126802EBC101F2
:10490000888004EB840000EBC4002A49096801EBAD
:10491000C000046104EB840000EBC400254A126867
:1049200002EBC00000F13C012548FDF7A4FA641C2D
:104930000F2CDCD924480021016041601B4800682D
:1049400000EB800101EBC0001A49096801EBC000CF
:104950001D490860084600680461112009688880C4
:10496000202019490968C880FFF76AFC4FF4807657
:1049700031460F480068FDF739FB05460DB90E4872
:10498000A4E731462846FBF705FE104805600020E5
:104990000E498880002404E02846FDF760FA641C74
:1049A0000835202CF8D3002090E7000024000020D8
:1049B0008C000020140000200002000330000020C2
:1049C000380000204000002018000020480000208F
:1049D0000146094A126810690F2800D97047074A32
:1049E000126802B1FAE7064A52F82020521A044B24
:1049F00043F8202000BFF1E71800002098000020B5
:104A00007486002001460B4A126802B970470A4AB0
:104A1000126802B1FAE7074A126810690F2800D934
:104A2000F4E7064A52F820200A44044B43F82020B9
:104A300000BFEBE7180000209800002074860020DB
:104A400070B504460D46207900F0040090B104F1E1
:104A50003C00FDF7E5FDA08820F00400A080E58083
:104A6000A08840F00400A080E18804F13C00FDF73C
:104A7000E3FD00E0E58070BD2DE9F04100273449F9
:104A80008988481CC11700EBD1614911A0EB411185
:104A90002F4A9180104600681146898800EBC105B5
:104AA0006868A84201D1BDE8F0816868A0F14404BB
:104AB00043E0A688E06C20F0784018B1E06C401E1E
:104AC000E0643EE004F14400FDF781F906F00800DF
:104AD00058B1A08820F00800A08004F13C00FDF748
:104AE00076F90020A061606217E006F4806020B1D2
:104AF000A08820F48060A0800FE006F4005040B150
:104B000004F13C00FDF763F9A08820F40050A08078
:104B100003E0A08820F02000A08006F0020048B941
:104B2000A08840F00400A080E18804F13C00FDF77B
:104B300083FD01276868A0F1440404F14400A84201
:104B4000B7D100BF0FB1FDF787FF00BFABE7000093
:104B5000480000202DE9F04105460F4605EB850091
:104B600000EBC5003649096801EBC004A68806F0D1
:104B7000040040B104F13C00FDF752FDA08820F094
:104B80000400A0800DE042F20800304048B104F17A
:104B90003C00FDF71CF906F0600010B1204600F063
:104BA0008BF8A08820F00200A080A08840F00100CF
:104BB000A0804FF0FF3020650020E065FDF762FD2A
:104BC0003C3820494860207900F0100040B304F1DF
:104BD0003C011D48FDF74FF91C48006800EB8001BF
:104BE00001EBC0001649096801EBC00015490860D7
:104BF000084600680561A088096888801149E06856
:104C00000968C8600F49A06B096888630120A0800B
:104C10003846FBF734FCFFF709FC0020BDE8F081C3
:104C2000207900F0010030B13846FBF728FCFFF78F
:104C3000FDFB0020F2E73846FBF721FC0020EDE702
:104C40001400002018000020400000202400002054
:104C500010B50848D0E900305A1C40F10000054961
:104C6000C1E9002000F04CF8FFF706FFFFF730FD28
:104C700010BD00005800002010B500244FF47A50F9
:104C80000B49086008460068FEF748F808480068C5
:104C9000401E4FF0E0214861702006490870002056
:104CA0004FF0E021886107200861204610BD000018
:104CB0009C00002023ED00E02DE9F0410446E06C6B
:104CC000C70E0E48006800EBC706A06CB0420ED0BD
:104CD000A06CA0F14405E86C20F07840E16C21F074
:104CE00078410844E96C01F078410843E86404F134
:104CF0004400FDF76CF8BDE8F0810000480000209A
:104D000010B50F4800680F49096888420BD00D485C
:104D100000680B4908600846C1880B4800880844B1
:104D2000401E07498880064881880748008880B26D
:104D3000814204D1002002490860FEF701FC10BD49
:104D400068000020180000205800002000200249C0
:104D500008600A20C88070476800002030B504460B
:104D6000012304E04FF0CA3542F823505B1CB3EB3B
:104D7000910FF7D34FF0CC3515605518A5F1CC0045
:104D8000434D05606D1C45606D1C85606D1CC560E4
:104D90006D1C05616D1C45616D1C85616D1CC561D7
:104DA0006D1C05626D1C45626D1C85626D1CC562C3
:104DB0006D1C05636D1C45636D1C85636D1CC563AF
:104DC0004FF0043505644FF0053545644FF0063566
:104DD00085644FF00735C5644FF0083505654FF021
:104DE000093545654FF0103585654FF01135C565BE
:104DF0000025056644664FF0013585666D00C56681
:104E00004FF0033505674FF012354567214D856733
:104E1000214DC5674FF08075C0F880504FF02A458E
:104E2000C0F884506D1CC0F888506D1CC0F88C50C0
:104E30006D1CC0F890506D1CC0F894506D1CC0F8EB
:104E400098506D1CC0F89C506D1CC0F8A0506D1C93
:104E5000C0F8A4506D1CC0F8A8506D1CC0F8AC5030
:104E60006D1CC0F8B0506D1CC0F8B4506D1CC0F87B
:104E7000B8506D1CC0F8BC506D1CC0F8C050002567
:104E8000C0F8C450024D6D1CC0F8C85030BD0000C1
:104E9000100000AAA1480000FD4700002DE9F843DA
:104EA00006460F46904699460024002515E000234B
:104EB0001822694617480068FDF798FC044624B19B
:104EC000214615A0FEF7D4FC08E01BA00099FEF7D0
:104ED000CFFC6D1C0520FEF747F9E8E700BF02E0B4
:104EE0000120FEF741F90B480068FDF727FC002878
:104EF000F6D116A0FEF7BCFC052D04D1002102203E
:104F0000FCF702FF03E001210220FCF7FDFE002078
:104F1000BDE8F883AC00002072656376206D657390
:104F200073616765206661696C7572652C65727264
:104F30006F723A25780A000072656376206D65739A
:104F4000736167653A25730A0000000064656C654B
:104F50007465207468652071756575652073756367
:104F600063657373210A00002DE9F0470746884600
:104F700091469A4600240025122616E004F13000DE
:104F8000C1B2B01E0B4A1154641C002332460949B9
:104F900009480068FDF7C2FC05461DB1294607A077
:104FA000FEF766FC0520FEF7DFF8052CE6D30020AF
:104FB000BDE8F087B0000020AC00002073656E648F
:104FC000206D657373616765206661696C757265D4
:104FD0002C6572726F723A25780A00000024F40082
:104FE000E8030000000000004578616D706C655FAB
:104FF00053656D5461736B312074696D656F7574A1
:1050000020616E6420747279206765742073656D09
:1050100020675F757353656D49442077616974201B
:10502000666F72657665722E0A0000004C500000B3
:1050300000000020A40500000C060000F050000055
:10504000A405002074A30000A038000001A1C490B2
:10505000D00300124074657374206973206D65730A
:1050600073616765207822FF23F514455441534B43
:105070001A0110236510364556454E542A02202247
:1050800008544D53471A0310230D0F5453454D1A1E
:1050900004101B150A2035555445581A05101A1DC1
:1050A00030275359535449431A06101B05186035CD
:1050B000494D45521A07102371162C4C49535F1164
:1050C0001A08101BB911303B5F4D522A0980220685
:1050D0005A4410812301050B10F33D040110A91857
:1050E000238F0403FF0B3601FF01FF01C500000001
:020000040008F2
:0400000000FFFFFFFF
:00000001FF
