:020000040000FA
:100000008824002029010000310100003301000094
:1000100000000000000000000000000000000000E0
:10002000000000000000000000000000350100009A
:100030000000000000000000A9070000153F0000BC
:100040003B0100003B0100003B0100003B010000C0
:100050003B0100003B0100003B0100003B010000B0
:100060003B0100003B0100003B0100003B010000A0
:10007000354100003B0100003B0100003B01000056
:100080003B0100003B0100003B0100003B01000080
:100090003B0100003B0100003B0100003B01000070
:1000A0003B0100003B0100003B0100003B01000060
:1000B0003B0100003B0100003B0100003B01000050
:1000C0000348854600F078F900480047C94A000017
:1000D00088240020104C114D256011480121016039
:1000E000022080F314880F4842680E4802600D4BCE
:1000F000186887881026374387800368243307CB26
:100100001B1DF0CB83F30988143B1B68AE4687F3B5
:10011000038862B6304700BF20ED00E00000F0F039
:1001200050F0FF1F18F0FF1F0448804704480047A5
:10013000FEE7FEE7FEE7FEE7FEE7FEE71D3F000005
:10014000C100000030B50B460146002020220124EA
:1001500009E00D46D5409D4205D31D469540491BFB
:100160002546954040191546521E002DF1DC30BD44
:1001700070B500242546002801DA012440420029F8
:1001800001DA01254942FFF7DDFFAC4200D04042D1
:10019000002C00D0494270BDF0B51FB406460020C7
:1001A00082B005464024019100901BE0019922464F
:1001B0000F46304600F0DAF8049A059B801A994100
:1001C00010D310461946224600F0C0F8361A8F4167
:1001D0000197224601200021009F00F0B7F838184F
:1001E0004D4100902046641E0028DFDC019B0098F2
:1001F0002946324607B0F0BDD2B201E00270401C81
:10020000491EFBD270470022F6E710B513460A4696
:1002100004461946FFF7F0FF204610BDF0B50C4626
:100220005C4085B0E40FE40703944C0000266408AA
:1002300059009446490802460296224321D062465C
:100240000A431ED06200570D4A000E032303550DCA
:10025000012402462C492405781B1B0B360B401841
:1002600023432643614600901C46501AB44103D3F1
:100270000098401C009002E0921800985B41002812
:1002800003DA0020014605B0F0BD00200121090578
:100290000746864611E064461D46141BB54106D349
:1002A0006546521BB341744607430C43A646CD072F
:1002B00040084908284392185B4105460D43EAD19E
:1002C0001046184313D06046194650407140084309
:1002D00006D06046101AB34106D20122002306E080
:1002E00000220123DB0702E00122D24353100098D1
:1002F00074460105381C6141029C039D0019694147
:1003000000F086F8BFE70000FD0300004A00090383
:100310000123090B1B0519430A4B10B5520D9A42D4
:1003200002DA0020014610BD064B34339A4203DC4A
:100330009A1A00F01BF810BD034BD21800F006F813
:1003400010BD0000FF030000CDFBFFFF10B5202A09
:1003500004DB0146203A9140002010BD914020234B
:100360009C1A0346E3401943904010BD10B5202A63
:1003700004DB0846203AD040002110BD0B46D34094
:10038000D0402024A21A91400843194610BD000015
:1003900010B5002904DB0124E40740428C412146CA
:1003A000002B04DB1C460123DB075242A341994288
:1003B00000D1904210BD0000064C0125064E05E01C
:1003C000E36807CC2B430C3C98471034B442F7D376
:1003D000FFF77AFED45C0000F45C0000FF200449C3
:1003E00009690907C90F002900D1002070470000E2
:1003F00080F00F400048704780BB00007047704796
:10040000FFFFFFFFFFFFFFFFFFFFFFFFFEFFFFFFFD
:1004100010B5002B08DA0024401C614192185B41A2
:100420001A4301D14008400010BDF0B51FB482B09E
:1004300005460C0003D0084603F09CFE02E003F0E2
:1004400099FE20300246009021462846FFF77EFFA5
:10045000049B059A04460F4618431143084314D0E1
:10046000184610431BD0009840210A1A18460599D7
:10047000FFF77CFF05460E46009A05990498FFF7A2
:1004800065FF084305D0012004E02046394607B047
:10049000F0BD0020C11705430E432C43374300999C
:1004A0000E986305401A7905E40A00220C43FD0A00
:1004B0000A3002D500200146E9E70105101969411B
:1004C0000C9C0D9D00196941FFF7A2FFDFE70000BA
:1004D000F0B507460846584087B0C00F0490480062
:1004E0000E46590040084908BC1A884105D23846D2
:1004F00031461E4617460B46024658004008104338
:100500004CD0300D039040055900400D490D059029
:10051000401A0290402872DA18030121000B0905E5
:100520000843019004980092002805D00199524296
:100530000020884100920190029840210A1A0199F6
:100540000098FFF703FF05460C466B4607CB00F00B
:10055000D9F8C0197141039A0E0D0023D7175640E0
:100560001A467A40164344D0049A002A2DD0029AA3
:10057000012A039A15DC1205C01A9141012636059D
:10058000001C7141D20F059ED20700930192029682
:100590002A462346FFF749FF07B0F0BD38463146EB
:1005A000FAE71605224A0F46B218C01AB7410121D0
:1005B0000905001C4F4100187F4111461818794168
:1005C000E20F10436D19644113E0E2076D08154313
:1005D0006408C2071443039A01261205C01A914108
:1005E0003605001C7141CE07400830434908C01849
:1005F00051412A462346FFF70BFFCDE7FFE704985A
:1006000001224000C117121A00238B410498314681
:10061000C417381AA141EEE730B40124E40763405F
:1006200030BC55E730B40124E407614030BC4FE7EB
:100630000000E0FFF0B51FB488B00B9909980024C2
:1006400048400999C00F490049080991C0070B9912
:100650000090490049080B9109990898A64608435B
:100660001CD00B990A98084318D00998012440001F
:10067000420D4800410D099824050003000B20435A
:1006800009900B980003000B20430B9050181C4955
:100690004018002201901446104605E00020014653
:1006A0000DB0F0BD032801DA034600E003239C46A9
:1006B000C11A0AAE0AE05F0008ADED5B4F00F75BC0
:1006C0007D430027AA187C41491C5B1E6145F2DD71
:1006D000410004AB5A522104120C0A43240C401C62
:1006E0000828DFDB01980290009970460191009084
:1006F000059B049A07990698FFF797FED0E700003C
:100700000DFCFFFF10B5202A06DBCB170846203A68
:100710001041C1170B4306E00B461341D040202483
:10072000A21A91400843194610BD70B58C1805787F
:10073000401C6B075B0F01D10378401C2A1106D1C6
:100740000278401C03E006780E70401C491C5B1EBA
:10075000F9D12B0705D40023521E0DD40B70491C70
:10076000FAE70378401CCB1A921C03E01D780D7049
:10077000491C5B1C521EF9D5A142D8D3002070BD84
:10078000EFF30580704772B67047EFF3108072B6D2
:100790007047EFF3108062B6704780F3108870479F
:1007A0001848194901607047EFF3108C72B6EFF3E7
:1007B00009802438F0C043464C4655465E4667469D
:1007C000F8C02438114D2E683060B78810239F433D
:1007D000B7800E4840682860878810231F438780B1
:1007E00001681031F8C99846A146AA46B346BC46EE
:1007F0002439F0C9143181F309888CF310887047CB
:1008000000BF000004ED00E00000001018F0FF1F22
:100810001048806B0121C90208430E4988630E48C5
:10082000C0680721090288430B49C8600846C068B0
:10083000891508430849C8600846C0680321084371
:100840000549C86005484069082188430349486153
:10085000704700000080044000B0044080F00F406A
:100860003249896B032212031143304A91630028F5
:1008700004D001281CD0022854D136E02C49496903
:100880000722120291432A4A516111464969921581
:100890001143274A51612749096820221143254AFB
:1008A00011601146496920221143224A51613AE000
:1008B0002149496B0722120291431F4A5163114695
:1008C000496B921511431C4A51631A49403109681A
:1008D000D2051143174A4032116011464969520549
:1008E0001143144A403251611DE01349C96B07227C
:1008F00012029143104AD1631146C96B92151143FC
:100900000D4AD1630B494031096852061143094A27
:100910004032116011464969D2051143054A4032FF
:10092000516100E000BF00BF70470000008004403C
:1009300000C00440C0F00F4040D00440002804D064
:10094000012809D002281BD110E00F490968202294
:1009500011430D4A116014E00B494031096801222E
:1009600052071143084A403211600AE006494031FB
:1009700009680122D2071143034A4032116000E0A6
:1009800000BF00BF70470000C0F00F40002804D037
:10099000012809D002281AD110E00E490968202246
:1009A00091430C4A116013E00A4940310968012261
:1009B00052079143074A4032116009E0054940312E
:1009C000096849004908034A4032116000E000BF4D
:1009D00000BF7047C0F00F40F0B585B007465048E3
:1009E00000905048406B0121890208434D494863FB
:1009F0004D4840680721090288434B494860084632
:100A000040684915084348494860084680680721FE
:100A100009028843444988600846806849150843AC
:100A2000414988603F4840680321890688433D4921
:100A30004860084640683D4908433A4948603C4898
:100A4000C0780C2188433A49C87000208870394822
:100A50000290042444E0601C784301460298FFF7AA
:100A600071FB85B23448854200DD37E0601C684385
:100A700001460298FFF766FB01900198C01B86B201
:100A8000002E01DA704286B2002E02D10495039442
:100A900028E00098B04202DD009604950394681C9B
:100AA00085B22548854200DD18E0601C6843014698
:100AB0000298FFF747FB01900198C01B86B2002EF9
:100AC00001DA704286B2002E02D10495039409E047
:100AD0000098B04201DD0495039400BF601CC4B2CD
:100AE000202CB8DD00BF1248007844096401049846
:100AF000C004C00E20430E49087004984870084690
:100B0000807A440964010398C006C00E20438872AD
:100B10000846C0780C2108430549C87005B0F0BDEF
:100B2000FFFF00000080044000900440000001042A
:100B300000A0064000366E01FF1F000070B50024C3
:100B40000521C9022048006801F024FF0546002D58
:100B500003D11EA003F0FEFA04E021A003F0FAFA8C
:100B6000012070BD04211848006801F085FE04468C
:100B7000002C04D120A003F0EDFA0120F1E723A01E
:100B800003F0E8FACF208000206024A0216803F061
:100B9000E1FA21460C48006801F0C9FE0546002D27
:100BA00007D122A003F0D6FA0021092001F002FCAF
:100BB00008E022A003F0CEFA0121092001F0FAFB9F
:100BC0000120CEE70020CCE78CF0FF1F6D656D7033
:100BD0006F6F6C20696E6974206F6B210A000000D2
:100BE0006D656D706F6F6C20696E697420666169E8
:100BF0006C6564210A0000006D656D20616C6C6F8E
:100C000063206661696C6564210A00006D656D2072
:100C1000616C6C6F63206F6B0A0000002A705F6E5E
:100C2000756D203D2025640A000000006D656D2073
:100C300066726565206F6B210A0000006D656D208E
:100C400066726565206661696C6564210A00000052
:100C500010B501210EA003F07DFA642304220121C6
:100C6000134801F0BBF90446012C08D1214611A01C
:100C700003F070FA0021012001F09CFB06E015A0B2
:100C800003F068FA0121084601F094FB10BD000052
:100C90004578616D706C655F4576656E742077612F
:100CA0006974206576656E742030782578200A0096
:100CB000201E00204578616D706C655F4576656E1D
:100CC000742C72656164206576656E74203A3078A4
:100CD00025780A004578616D706C655F4576656EB4
:100CE000742C72656164206576656E742074696D1C
:100CF000656F75740A000000F8B5FFF77BFB009084
:100D00000098002803D01BA0009903F023FA03F0F9
:100D1000DFF80D46044600210A4661406A4011434F
:100D200003D021461AA003F015FAC82002F0A0FE55
:100D300003F0CEF80F46064600210A4671407A407D
:100D4000114303D0314618A003F004FA3846311B92
:100D5000A841C8230022C91A904105D300210520CB
:100D600001F028FB0020F8BD0121052001F022FB45
:100D70000120F8E74C4F535F4379636C655065720F
:100D80005469636B476574203D202564200A000088
:100D90004C4F535F5469636B436F756E7447657452
:100DA000203D202564200A004C4F535F5469636B3B
:100DB000436F756E74476574206166746572206454
:100DC000656C6179203D202564200A0010B58CB047
:100DD0000024204801900920694608810120400232
:100DE00007901DA008908020099002F037FF01A90C
:100DF0000BA802F023FD0446002C06D0214619A0C2
:100E000003F0A8F920460CB010BD1E48019001A9BE
:100E10000AA802F013FD0446002C05D021461AA0B2
:100E200003F098F92046EEE7302000231E4A052102
:100E300000901EA002F0ACF80446002C03D021461E
:100E40001CA003F087F923A003F084F902F0E0FF6F
:100E50000020D8E7195C000073656E6451756575F4
:100E600065000000637265617465207461736B31A5
:100E7000206661696C6564212C6572726F723A2517
:100E8000780A0000515B000063726561746520742C
:100E900061736B32206661696C6564212C657272C6
:100EA0006F723A25780A0000ACF0FF1F7175657506
:100EB0006500000063726561746520717565756514
:100EC000206661696C757265212C6572726F723A69
:100ED00025780A0063726561746520746865207105
:100EE000756575652073756363657373210A00000A
:100EF00010B592B02E4801F065FE02F0AFFE24213D
:100F000009A8FFF780F92B4809902BA010902D20FD
:100F100000010F9005206946088509A9294802F0BB
:100F20008DFC0446002C05D027A003F013F9012006
:100F300012B010BD24216846FFF765F928480090DB
:100F400028A007902D200001069004206946888083
:100F5000274802F073FC0446002C04D025A003F0BF
:100F6000F9F80120E4E702F053FFFF202D3002F0F2
:100F70007FFD0F48006801F057FE1248006802F03C
:100F8000B9FD0446002C04D020A003F0E3F80120B2
:100F9000CEE71748006802F0ADFD0446002C04D0EF
:100FA00020A003F0D7F80120C2E70020C0E700002E
:100FB000C4F0FF1F3D1000004D7574657854736BCD
:100FC00031000000C8F0FF1F7461736B3120637241
:100FD00065617465206661696C6564202E0A000095
:100FE000591100004D7574657854736B3200000020
:100FF000CCF0FF1F7461736B32206372656174659E
:10100000206661696C6564202E0A00007461736B50
:10101000312064656C657465206661696C65642067
:101020002E0A00007461736B322064656C65746510
:10103000206661696C6564202E0A000010B518A056
:1010400003F088F80A212048006801F023FE0446D6
:10105000002C07D11DA003F07DF81B48006801F0AB
:10106000C1FE10BD2148844217D121A003F072F8BF
:101070000021C9431448006801F00CFE0446002C0E
:101080000BD128A003F066F80F48006801F0AAFE13
:101090000021042001F08EF9E3E700BFE1E7000042
:1010A0007461736B312074727920746F206765747A
:1010B000206D757465782C2077616974203130203B
:1010C0005469636B2E0A0000C4F0FF1F7461736BD8
:1010D0003120676574206D7574657820675F54658D
:1010E00073746D757830312E0A000000071D000200
:1010F0007461736B312074696D656F757420616EF6
:10110000642074727920746F2067657420206D7577
:101110007465782C207761697420666F72657665D6
:10112000722E0A007461736B3120776169742066D6
:101130006F72657665722C676F74206D7574657853
:1011400020675F546573746D7578303120737563F3
:10115000636573732E0A000010B50FA002F0FAFF4A
:101160000021C9431648006801F094FD0446002C94
:1011700003D014A002F0EEFF10BD19A002F0EAFFA8
:10118000642002F075FC23A002F0E4FF0C48006824
:1011900001F028FE00BFEFE77461736B32207472B8
:1011A0007920746F20676574206D757465782C20C4
:1011B0007761697420666F72657665722E0A000029
:1011C000C4F0FF1F7461736B32204C4F535F4D7539
:1011D0007850656E64206661696C6564202E0A0033
:1011E0007461736B3220676574206D757465782047
:1011F000675F546573746D7578303120616E64205B
:1012000073757370656E6420313030205469636B80
:101210002E0A00007461736B3220726573756D6500
:101220006420616E6420706F737420746865206739
:101230005F546573746D757830310A0010B516A06F
:1012400002F088FF0A212348006802F005F90446ED
:10125000002C04D11F48006802F084F910BD1E481C
:10126000844217D11D4802F075FF0021C943194877
:10127000006802F0F1F80446002C0BD118A002F02F
:1012800069FF1448006802F06DF90021032001F0A5
:1012900091F8E3E700BFE1E74578616D706C655F49
:1012A00053656D5461736B31207472792067657476
:1012B0002073656D20675F757353656D4944202CFD
:1012C00074696D656F7574203130207469636B7358
:1012D0002E0A0000D8F0FF1F07070002905C0000F4
:1012E0004578616D706C655F53656D5461736B31EA
:1012F00020776169745F666F726576657220616ED2
:101300006420676F742073656D20675F7573536524
:101310006D494420737563636573732E0A00000082
:1013200010B50DA002F016FF0021C943184800684F
:1013300002F092F80446002C02D116A002F00AFF37
:10134000142002F095FB23A002F004FF104800686F
:1013500002F008F910BD00004578616D706C655FA2
:1013600053656D5461736B322074727920676574B4
:101370002073656D20675F757353656D49442077F1
:1013800061697420666F72657665722E0A000000CE
:10139000D8F0FF1F4578616D706C655F53656D54C3
:1013A00061736B32206765742073656D20675F75AC
:1013B0007353656D494420616E64207468656E20C6
:1013C00064656C61792032307469636B73202E0A16
:1013D000000000004578616D706C655F53656D5469
:1013E00061736B3220706F73742073656D20675F5B
:1013F000757353656D4944202E0A000010B592B0F4
:1014000000243349002001F0BFFF02F027FC242113
:1014100009A8FEF7F8FE2F4809902FA0109003208E
:1014200000020F9005206946088509A92D4802F0A1
:1014300005FA0446002C05D02BA002F08BFE0120FB
:1014400012B010BD24216846FEF7DDFE2C48009046
:101450002CA0079003200002069004206946888093
:101460002B4802F0EBF90446002C0DD029A002F025
:1014700071FE1C48006802F03DFB002802D02BA042
:1014800002F068FE0120DBE702F0C2FC10480068B1
:1014900002F068F80446282002F0EAFA0C480068D6
:1014A00001F0A8FF0F48006802F024FB002803D0D9
:1014B0001EA002F04FFE01241548006802F01AFB3E
:1014C000002803D01FA002F045FE01242046B7E704
:1014D000D8F0FF1F3D1200004D7574657854736B92
:1014E00031000000D0F0FF1F7461736B3120637214
:1014F00065617465206661696C6564202E0A000070
:10150000211300004D7574657854736B3200000030
:10151000D4F0FF1F7461736B322063726561746570
:10152000206661696C6564202E0A00007461736B2B
:10153000312064656C657465206661696C65642042
:101540002E0A00007461736B322064656C657465EB
:10155000206661696C6564202E0A000010B58AB0AF
:10156000294800F0FFFC0446002C05D027A002F01B
:10157000F1FD01200AB010BD242101A8FEF743FEB1
:101580002848019028A008902D20000107900520F0
:101590006946088101A9274802F050F90446002C49
:1015A00004D025A002F0D6FD0120E3E728A002F038
:1015B000D1FD0121144800F0C9FD0446002C04D0DF
:1015C0002DA002F0C7FD0120D4E70F48016830A02C
:1015D00002F0C0FD0C480068C1430B4800F0AEFCAF
:1015E000094801682AA002F0B5FD1248006802F01F
:1015F00081FA0446002C04D029A002F0ABFD0120A2
:10160000B8E70020B6E70000201E0020696E69746C
:10161000206576656E74206661696C6564202E0AAB
:1016200000000000510C00004576656E7454736B29
:1016300031000000A4F0FF1F7461736B20637265BA
:10164000617465206661696C6564202E0A00000083
:101650004578616D706C655F5461736B456E747233
:10166000795F4576656E742077726974652065765A
:10167000656E74202E0A00006576656E74207772A0
:10168000697465206661696C6564202E0A0000003B
:101690004576656E744D61736B3A25640A000000EF
:1016A0007461736B2064656C657465206661696C38
:1016B0006564202E0A000000F8B5002403263227B6
:1016C00032463946214801F039FA0546002D04D04A
:1016D0001FA002F03FFD0120F8BD23A002F03AFD5B
:1016E0001A4801F0ADF90446002C04D123A002F001
:1016F00031FD0120F0E727A002F02CFDCF20800073
:10170000206029A0216802F025FD21460F4801F044
:10171000B7F929A0216802F01DFD21460B4801F010
:10172000BFF90546002D07D12AA002F013FD0021C4
:10173000082000F03FFE06E02BA002F00BFD012187
:10174000082000F037FE0020C6E700002C1E002015
:101750004D656D20626F7820696E697420666169DD
:101760006C65640A000000004D656D20626F782092
:10177000696E6974206F6B210A0000004D656D2051
:10178000626F7820616C6C6F63206661696C656460
:10179000210A00004D656D20626F7820616C6C6FCE
:1017A00063206F6B0A0000002A705F6E756D203D2C
:1017B0002025640A00000000636C6561722064618A
:1017C0007461206F6B0A202A705F6E756D203D205A
:1017D00025640A004D656D20626F7820667265652C
:1017E000206F6B210A0000004D656D20626F78202C
:1017F00066726565206661696C6564210A00000097
:1018000010B51AA002F0A6FC052002F031F904463A
:10181000002C04D01BA002F09DFC012010BD1FA0D5
:1018200002F098FC2548006802F080FA0446002C7B
:1018300008D023A002F08EFC0121002000F0BAFDA8
:101840000120EBE725A002F085FC0021084600F00E
:10185000B1FD1A48006802F04DF9002804D028A014
:1018600002F078FC0120D9E70020D7E7456E7465C7
:1018700072205461736B48692048616E646C6572B4
:101880002E0D0A0044656C6179205461736B20460B
:1018900061696C65642E0D0A000000005461736B71
:1018A0004869204C4F535F5461736B44656C617998
:1018B00020446F6E652E0D0A00000000DCF0FF1F53
:1018C00053757370656E64205461736B486920466C
:1018D00061696C65642E0D0A000000005461736B31
:1018E0004869204C4F535F5461736B526573756D3B
:1018F0006520537563636573732E0D0A0000000045
:101900005461736B48692064656C65746520666119
:10191000696C6564202E0A0010B517A002F01AFC4D
:10192000052002F0A5F80446002C04D018A002F00F
:1019300011FC012010BD1CA002F00CFC2348006823
:1019400002F09CF90446002C08D021A002F002FC11
:101950000121002000F02EFD0120EBE72248006865
:1019600002F0C8F8002804D020A002F0F3FB012008
:10197000E0E70020DEE70000456E746572205461E8
:10198000736B4C6F2048616E646C65722E0D0A009B
:1019900044656C6179205461736B4C6F20466169BA
:1019A0006C65642E0D0A00005461736B4869204C0D
:1019B0004F535F5461736B53757370656E6420533E
:1019C0007563636573732E0D0A000000DCF0FF1F62
:1019D000526573756D65205461736B48692046616B
:1019E000696C65642E0D0A00E0F0FF1F5461736B93
:1019F0004C6F2064656C657465206661696C656414
:101A0000202E0A0010B58AB002F028F925A002F0B5
:101A1000A1FB2B48019004206946088129A0089069
:101A20000120800207908020099001A9284801F038
:101A300005FF0446002C07D002F0EAF925A002F0C9
:101A400089FB01200AB010BD2AA002F083FB3248B6
:101A5000019005206946088130A00890012080028D
:101A600007908020099001A92F4801F0E7FE044665
:101A7000002C0FD01648006802F03CF8002802D075
:101A80002AA002F067FB02F0C3F92EA002F062FB6D
:101A90000120D7E733A002F05DFB02F0B9F9204640
:101AA000D0E700004C4F535F5461736B4C6F636B16
:101AB00028292053756363657373210D0A000000A4
:101AC00001180000484947485F4E414D450000005D
:101AD000DCF0FF1F4578616D706C655F5461736B5E
:101AE000486920637265617465204661696C65644C
:101AF000210D0A004578616D706C655F5461736BF0
:101B0000486920637265617465205375636365730A
:101B100073210D0A00000000191900004C4F575F97
:101B20004E414D4500000000E0F0FF1F5461736B13
:101B300048692064656C657465206661696C6564DC
:101B4000202E0A004578616D706C655F5461736B7F
:101B50004C6F20637265617465204661696C6564D1
:101B6000210D0A004578616D706C655F5461736B7F
:101B70004C6F206372656174652053756363657390
:101B800073210D0A00000000F8B539A002F0E2FA56
:101B900008213B48006800F06FFE04462046406084
:101BA000006000BF00BF4168814201D1012100E017
:101BB0000021002904D133A002F0CCFA0120F8BDA5
:101BC00034A002F0C7FA08212D48006800F054FE46
:101BD000054608212A48006800F04EFE0646082106
:101BE0002748006800F048FE07462946204600F0D6
:101BF000F8FC3146284600F0F4FC2868A04202D0E8
:101C00003068A84202D12BA002F0A4FA00BF3946E6
:101C1000206800F0E6FC00BF3868B04202D12AA07C
:101C200002F098FA2DA002F095FA00BF69682868C2
:101C3000086029686868486000206860286000BF04
:101C4000284602F017FF6068B04207D128A002F0D2
:101C500081FA0021072000F0ADFB06E02AA002F087
:101C600079FA0121072000F0A5FB0020A7E700007A
:101C7000696E697469616C2E2E2E2E2E2E0A00005C
:101C80008CF0FF1F696E697469616C206661696C14
:101C900065640A006E6F64652061646420616E642F
:101CA000207461696C206164642E2E2E2E2E2E0A03
:101CB00000000000616464206E6F646520737563CA
:101CC000636573730A000000616464207461696C69
:101CD00020737563636573730A00000064656C6547
:101CE0007465206E6F64652E2E2E2E2E2E0A000037
:101CF00064656C657465206E6F64652073756363DD
:101D00006573730A0000000064656C657465206E7D
:101D10006F6465206572726F720A00000EB5012053
:101D200002AB234A002100907D20C00001F086FC18
:101D3000012001AB1F4A01460090642001F07EFCA7
:101D40001DA002F007FA6846008901F0FBFC20A004
:101D500002F000FAC82001F08BFE6846008901F00D
:101D60002FFD21A002F0F6F96846008901F0EAFC97
:101D70007D20C00001F07CFE6846008901F0A4FCD3
:101D80001EA002F0E7F96846808801F0DBFC21A084
:101D900002F0E0F97D20C00001F06AFE684680880C
:101DA00001F00EFD6846808801F08EFC00200EBD1B
:101DB0008D400000DD400000637265617465205451
:101DC000696D65723120737563636573730A000012
:101DD00073746172742054696D6572312073756318
:101DE0006573730A0000000073746F702054696D8E
:101DF000657231207375636573730A0064656C6581
:101E000074652054696D65723120737563657373F1
:101E10000A00000073746172742054696D65723237
:101E20000A00000002465018401E904204D9501883
:101E3000401E4B1E984370474B1E10469843FAE7CE
:101E400010B5024614462046002305E001464960CD
:101E5000096000BF5B1C08301B2BF7D310BDF8B521
:101E600005460E462F46304600F02EFC04461E2C3A
:101E700001D90020F8BD042C00D80424201FC00084
:101E8000C019F7E710B503F0A1FD0446002C01D0FE
:101E9000204610BD2046FCE700B50246FF23012A7C
:101EA00002D1FEF79BFA0346184600BD00B5FEF7C7
:101EB000AFFC00BD10B504460B46012C04D0022C2B
:101EC0000CD0032C1ED113E0012B03D10020FEF710
:101ED0005DFD02E00020FEF731FD14E0012B03D18F
:101EE0000120FEF753FD02E00120FEF727FD0AE086
:101EF000012B03D10220FEF749FD02E00220FEF78C
:101F00001DFD00E000BF00BF10BD00B50020FEF7C2
:101F1000A7FC0120FEF7A4FC0220FEF7A1FC00BDF7
:101F200010B500F005F8FFF7F0FFFFF7BFFF10BD99
:101F300010B5E1204002FEF74FFD10BD70B504461C
:101F40000D46002C01D1064870BDFEF71EFC06466A
:101F50002068284020603046FEF71FFC0020F3E791
:101F6000061C00020146002901D1054870470020E7
:101F70000860081D4060006000BF0020F6E7000018
:101F8000061C0002F8B504460D4616460027FEF76B
:101F9000FCFB009002203040002807D02068284039
:101FA00000280CD020682840074608E0002D06D005
:101FB00020682840A84202D1206828400746002F08
:101FC00006D0F007C00F002802D02068B843206078
:101FD0000098FEF7E2FB3846F8BD0000FFB583B07D
:101FE00016461F46002002900398002802D153484D
:101FF00007B0F0BD0498002802D15048001FF7E751
:102000000121490604980840002802D04B48801F4F
:10201000EEE702203040002803D0042030400028A2
:1020200007D1F008C000002803D106203040002866
:1020300002D14248801EDBE741480068002802D0F8
:102040003E48C01ED4E7FEF7A0FB0190324604993B
:102050000398FFF797FF02900298002869D1002F9C
:1020600004D10198FEF799FB0298C1E73548008832
:10207000002805D00198FEF790FB3048401EB7E7D6
:102080003148046820463C3000F030FFA08804212D
:102090008843A08025463C35A08808210843A080BD
:1020A0000498E065266600BF039948684168696046
:1020B000286041680D60456000BF00BF002F10D050
:1020C000781C00280DD0A08840210843A080394604
:1020D000204603F0D9F90198FEF75FFB01F032F9D1
:1020E00008E0A08840218843A0800198FEF755FBB6
:1020F00001F028F9A0884021084000280CD0FEF704
:1021000044FB0190A08840218843A0800198FEF7FD
:1021100044FB0A48401F6BE7FEF737FB019032464D
:1021200004990398FFF72EFF02900198FEF735FB04
:1021300002E00198FEF731FB029859E7061C000205
:1021400098F0FF1F20F0FF1F18F0FF1FFEB5054697
:102150000E46002700200090002D01D13B48FEBD17
:10216000012040063040002802D03848801FF6E7A2
:10217000FEF70BFB0190286830432860281D41685A
:10218000814201D1012100E00021002958D1A86835
:1021900004463C3C42E0206C07463C3F0221206E56
:1021A0000840002803D0E06D304000280AD1042107
:1021B000206E0840002830D0E06D29680840E16DAD
:1021C00088422AD10120009000BF216CE06B08609A
:1021D000E16B206C486000202064E06300BFA088B1
:1021E00008218843A080A08840210840002806D00C
:1021F000204603F00BFCA08840218843A080A088E3
:1022000002210840002808D1A08804210843A080AA
:10221000E18820463C3000F075FE3C4620463C30CC
:10222000291D8842B7D10098012805D10198FEF7F1
:10223000B4FA01F087F806E00198FEF7AEFA02E082
:102240000198FEF7AAFA002089E70000061C0002A8
:10225000F8B505460027FF260A2D05DB29462FA0E5
:1022600001F078FF0120F8BD002449E02001324947
:10227000085CA84243D1200140184068002805D1DD
:1022800029462EA001F066FF0120ECE721012A4A31
:10229000891848688047074600BF20012649401832
:1022A000407800280BD1002F09D120010A46801860
:1022B000014608312DA001F04DFF002610E020015D
:1022C0001D494018407801280AD1012620010A46FC
:1022D0008018014608312B4802682BA001F03AFF14
:1022E000642001F0C5FB2001134940184078FF2805
:1022F000D3D0200140184078B042CED102E0641C17
:102300000A2CB3D300BF0A2C01D10120ABE7002E69
:1023100001D00120A7E70020A5E700000D0A204911
:102320006E73706563744944203D205B25645D20B5
:102330004572722E0D0A0000F4F0FF1F496E737093
:102340006563744944203D205B25645D20457272BD
:102350002C496E737065637466756E6320697320B3
:102360004E554C4C2E0D0A0D0A000000496E73703C
:1023700065637420257320737563636573730D0A39
:102380000D0A0000ECF0FF1F496E73706563742046
:102390002573206572726F722C67496E7370656366
:1023A00074457272436E74203D205B25645D0D0A96
:1023B0000D0A000070B505460E4600240A2D05DB07
:1023C00029460BA001F0C6FE012070BD002408E0E4
:1023D00020010E49085CA84202D120014018467035
:1023E000641C0A2CF4D301D10120EEE70020ECE7B5
:1023F0000D0A20496E73706563744944203D205B6B
:1024000025645D204572722E0D0A0000F4F0FF1F56
:1024100010B58AB0242101A8FDF7F5FE0A48019005
:1024200003200002079009A008900920694608814E
:1024300001A9094801F002FA0446002C01D00AB0B3
:1024400010BD00BFFBE70000B9240000496E7370A7
:1024500065637454736B0000F0F0FF1F70B50546A0
:102460000C462846FFF718FD002814D1322001F051
:10247000FFFA2846FFF710FD002807D1012120466A
:10248000FFF718FD06A001F065FE08E000212046D8
:10249000FFF710FD03E000212046FFF70BFD70BDA4
:1024A0000D0A204B65792074657374206578616D21
:1024B000706C65200D0A000000250020134908609B
:1024C00013A001F047FE00240FE0E0B2FFF7C0FECA
:1024D0000546002D08D00D480068401C0B490860D7
:1024E00001210220FFF7E6FC641C0A2CEDDB074803
:1024F00001680DA001F02EFE16A001F02BFE03E0F6
:1025000001210846FFF7AAFFFAE70000ECF0FF1FE1
:102510000D0A204C6F7320496E73706563742073CD
:10252000746172742E0D0A00496E737065637420B5
:10253000636F6D706C657465642C67496E7370654C
:102540006374457272436E74203D205B25645D0D9B
:102550000A0D0A000D0A204C6F73204B6579206527
:1025600078616D706C653A20706C65617365207080
:10257000726573732074686520557365724B657955
:10258000206B6579200D0A0010B502F0F3FA0446BD
:10259000002C01D0012010BD0020FCE742684A60F9
:1025A0000860426811604160704742684A60086094
:1025B000426811604160704742684A600860426842
:1025C00011604160704742684A600860426811606B
:1025D0004160704742684A6008604268116041602B
:1025E000704742684A600860426811604160704705
:1025F00042680168116002684168516000214160D1
:10260000016070474268016811600268416851606A
:1026100000214160016070474268016811600268F2
:102620004168516000214160016070474268016863
:10263000116002684168516000214160016070478B
:1026400001464868884201D1012070470020FCE71C
:1026500001464868884201D1012070470020FCE70C
:1026600001464868884201D1012070470020FCE7FC
:1026700001464868884201D1012070470020FCE7EC
:1026800040600060704740600060704740600060DC
:10269000704740600060704770B504460D4629469B
:1026A0002068FFF77BFF70BD70B504460D462946D4
:1026B0002068FFF77AFF70BD70B504460D462946C5
:1026C0002068FFF780FF70BD0146C80FC0070028D3
:1026D00001D06748704767480840002863D07F20D2
:1026E0000006084000282BD00720000708400028DB
:1026F0000FD0012080070840002801D01E20E9E704
:10270000012040070840002801D01D20E2E71C20DE
:10271000E0E7032080060840002808D00120C0061A
:102720000840002801D01B20D4E71A20D2E701205E
:1027300040060840002801D01920CBE71820C9E73F
:102740000F2000050840002816D00320800508400F
:10275000002808D00120C0050840002801D017201B
:10276000B8E71620B6E7012040050840002801D050
:102770001520AFE71420ADE70320800408400028AF
:1027800008D00120C0040840002801D01320A1E790
:1027900012209FE7012040040840002801D01120AA
:1027A00098E7102096E7FF2000020840002832D06A
:1027B0000F2000030840002816D0032080030840A3
:1027C000002808D00120C0030840002801D00F20B5
:1027D00080E70E207EE7012040030840002801D05A
:1027E0000D2077E70C2075E70320800208400028C1
:1027F00008D00120C0020840002801D00B2069E762
:102800000A2067E7012040020840002801D0092083
:1028100060E708205EE7F0200840002813D0C020C1
:102820000840002807D080200840002801D0072059
:1028300050E706204EE720200840002801D0052060
:1028400048E7042046E70C200840002807D008206D
:102850000840002801D003203CE702203AE702208C
:102860000840002801D0012034E7002032E70000B2
:10287000FFFFFF0F0000FF7FF8B505460C4600265E
:10288000FDF783FF074600BF002D01D0002C00D1CB
:102890000AE0E00FC007002800D005E021462846E6
:1028A00002F0A8F9064600BF00BF3846FDF775FFE5
:1028B0003046F8BDF7B584B00F46144600200390AB
:1028C000029000250026FDF760FF019000BF0498EC
:1028D000002801D0002F00D122E03819001D0390FC
:1028E0000398C00FC007002800D019E0039904988E
:1028F00002F080F905462819401E611E88430646ED
:10290000B54200D10CE0701B0290012189070298AA
:1029100008430290314680390298C867354600BFA7
:1029200000BF0198FDF739FF284607B0F0BDFEB59E
:1029300005460C4601270026FDF727FF019000BF42
:1029400000200090002D01D0002C00D11CE020467A
:102950008038C66F012080073040002805D0012153
:102960008907304688430646A41B2046103800904D
:102970002846009902F06BF90746002F03D129463B
:10298000009802F0DEF900BF00BF0198FDF705FFD7
:102990003846FEBDF3B583B0044600250027002667
:1029A00000200190002C02D00498FF2803D80020BA
:1029B000C04305B0F0BDFDF7E8FE02902646344660
:1029C00036600498706020460830FFF739FA2546D3
:1029D000E035291B0498401A1038E8600020A860F0
:1029E00020460830E968FFF73AFA0190019800287C
:1029F00005D10298FDF7D1FE0020C043D9E700BF02
:102A0000019908682946FFF7E5FD00BF04982018E2
:102A10000746103F002038607860B860F860BD60FD
:102A20001020F8600121C907F8680843F8603846AB
:102A300002F016FA0298FDF7B0FE0020B9E7000098
:102A4000F8B505462F4600260024002D00D1F8BD1C
:102A5000FDF79BFE00903E4608363068002804D003
:102A6000346820683060054820600098FDF795FEC6
:102A7000002C01D10020EAE7201DE8E7A55A5AA55D
:102A800070B504460D462646002C01D0002D00D11D
:102A900070BD3068011F2846FDF7B5FB00BFF7E7A2
:102AA000F0B585B006460F46354601200490002E4D
:102AB00001D0002F02D1012005B0F0BDFDF765FE69
:102AC000039000BF381F02902C46029801902068A6
:102AD000002801D101201DE021460C310198401A47
:102AE000009021680098FDF72DFB002901D00120FE
:102AF00010E021680098FDF725FB6168884201D34A
:102B0000012007E0019800680B49884201D00120AC
:102B100000E00020002800D007E0A96802980160CA
:102B20000298A8600020049000BF00BF0398FDF742
:102B300034FE0498C0E70000A55A5AA5F7B582B044
:102B400006460F4634460025002E02D1012005B06E
:102B5000F0BD0498002801D10120F8E70C2F01D224
:102B60000120F4E7FDF711FE00900498C01D8008D5
:102B70008000206038460C382168FDF7E3FA606079
:102B80006068002804D10098FDF707FE0120DEE709
:102B900025460C35A5600020019006E0206840190C
:102BA00028602D680198401C01906068401E0199C2
:102BB0008842F3D8002028600098FDF7EEFD002041
:102BC000C5E70000F8B50546002D01D11448F8BD51
:102BD000FDF7DBFD07461348FFF73AFD002805D057
:102BE0003846FDF7DAFD0E48401CF0E70D48466810
:102BF0003046FFF707FD3446083C00206080012086
:102C000020700020A082206120460830FFF73BFDA5
:102C1000606828603846FDF7C0FD0020D7E7000057
:102C2000021D000274F0FF1F70B5054618206843AE
:102C3000154909684418FDF7A8FD06460A2D02D279
:102C40002078002804D13046FDF7A7FD0F4870BD5D
:102C500020460830FFF7FCFC002802D060880028DE
:102C600005D03046FDF799FD08480830EFE72146CA
:102C700008310748FFF799FC002020703046FDF727
:102C80008CFD0020E3E7000070F0FF1F011D000233
:102C900074F0FF1FFEB506460F46182070434C49DE
:102CA00009684518FDF771FD02900A2E02D22878B6
:102CB000002804D10298FDF770FD4648FEBD464845
:102CC0000068002805D00298FDF767FD4148001D07
:102CD000F4E742480468688800280AD16888401CE4
:102CE00068802C61E088A8820298FDF756FD0020DC
:102CF000E4E72869A04207D16888401C68800298F0
:102D0000FDF74BFD0020D9E7002F05D10298FDF714
:102D100044FD3048C01CD1E731480088002803D06A
:102D20002C48401D01904CE020463C3000F0DEF87D
:102D3000A08804218843A080656220463C30009032
:102D4000A08808210843A0802869C088E1888842BB
:102D500003DDE188286902F017FD28460830009954
:102D6000FFF7A2FC781C00280DD0A0884021084362
:102D7000A0803946204602F087FB0298FDF70DFD42
:102D800000F0E0FA08E0A08840218843A080029883
:102D9000FDF703FD00F0D6FAA08840210840002886
:102DA0000DD0FDF7F2FC0290A08840218843A0805E
:102DB0000298FDF7F2FC0748801D019005E0002015
:102DC0007CE70298FDF7E9FC00BF019876E7000078
:102DD00070F0FF1F011D000298F0FF1F18F0FF1F89
:102DE00020F0FF1FF8B50646182070433B490968DC
:102DF0004418FDF7CAFC00900A2E02D22078002861
:102E000004D10098FDF7C9FC3548F8BD3548006885
:102E1000002805D00098FDF7C0FC3148001DF4E7FC
:102E2000314807686088002802D02069B84204D081
:102E30000098FDF7B2FC2A48E7E76088401E80B2A0
:102E40006080002804D00098FDF7A7FC0020DCE794
:102E50002069C088A18A884203D0A18A206902F033
:102E600093FC20460830FFF7F3FB002830D1E068E0
:102E700005463C3DE068FFF7C5FBA888082188436C
:102E8000A880A88840210840002806D0284602F0E3
:102E9000BDFDA88840218843A8800120608025616D
:102EA000E888A08200206862A888022108400028E3
:102EB00008D1A88804210843A880E98828463C3026
:102EC00000F020F80098FDF768FC00F03BFA02E003
:102ED0000098FDF762FC002097E7000070F0FF1FEC
:102EE000011D000298F0FF1F18F0FF1F00BF42688D
:102EF0000168116002684168516000214160016011
:102F000000BF704710B50A46D100064C24680B1963
:102F100019684C68446001604C682060486000BFDC
:102F200000BF10BD00F0FF1F10B5014600200022B9
:102F3000CB00074C24681B195A6801E0401C5268FA
:102F4000CB00034C24681B199342F7D110BD00003D
:102F500000F0FF1F00210020014613E0CA000B4BC8
:102F60001B68D0184268824201D1012200E0002291
:102F7000002A05D1C800054A1268801840687047C9
:102F8000481C01462029E9D30020F8E700F0FF1F84
:102F9000FEB50C461546089E002D01D11948FEBD10
:102FA0001948864202DD17480938F8E7002C01D09D
:102FB000002E02D11348401CF1E7FDF7E6FB00901C
:102FC000301D82B201AB2946204601F0F1FF0746D1
:102FD000002F04D00098FDF7E0FB3846DFE70198AA
:102FE0001430FFF753FB01981C30FFF74FFB01989B
:102FF0002430FFF74BFB0198C4810098FDF7CDFB0F
:103000000020CCE70C060002FBFF0000F8B50646E6
:10301000771E072F01D32648F8BDFDF7B6FB0090B9
:103020002C207843234909684418A088002803D13C
:1030300000BF1F4D6D1D35E020461C30FFF710FB13
:10304000002803D100BF1A4DED1C2BE020461430A0
:10305000FFF706FB002803D100BF154DED1C21E052
:1030600020462430FFF7FCFA002803D100BF104DA2
:10307000ED1C17E0E089218A4018E188884203D0DE
:1030800000BF0B4DAD1D0DE00B4821680068FFF738
:103090004EFC0546002D02D000BF00BF02E000201C
:1030A000A08000BF0098FDF778FB2846B4E7000039
:1030B000050600027CF0FF1F8CF0FF1FFFB585B0F6
:1030C0000F461E46002002900598401E0190019870
:1030D000072802D3434809B0F0BD002F02D1414870
:1030E000401CF8E70798002802D13E48801CF2E710
:1030F000002E06D03C480068002802D039480A302B
:10310000E9E7FDF742FB03902C210198484337493A
:1031100009684418A088002804D100BF31480E3047
:10312000029059E0208A00282CD1002E04D100BF43
:103130002C480F3002904FE02D480088002804D022
:1031400000BF28480838029046E02A480568324601
:1031500021461C31284601F083FF0398FDF71DFB33
:1031600000F0F0F8FDF711FB0390A888402108401B
:1031700000280AD0A8888843A88000BF1948C01F2B
:10318000029029E0208A401E2082608921894843DC
:103190002168401804900498006838606089401CD9
:1031A00080B26081E188884201D1002060812046A0
:1031B0001430FFF755FA00280AD12046143001F0E8
:1031C00090FF0398FDF7E9FA00F0BCF8002082E7D1
:1031D000E089401CE08100BF0398FDF7DEFA029809
:1031E00079E700000E06000298F0FF1F7CF0FF1F39
:1031F00020F0FF1F18F0FF1FFFB585B00F461E46D9
:10320000002002900598401E01900198072802D3E3
:10321000474809B0F0BD002F02D14548401CF8E7EF
:103220000798002802D14248801CF2E7002E06D001
:1032300040480068002802D03D480838E9E7FDF71B
:10324000A4FA03902C21019848433B49096844188B
:10325000A088002804D100BF3548C01C029061E05E
:1032600021890798814204D200BF3148001D029095
:1032700058E0E08900282CD1002E04D100BF2C4852
:10328000401D02904EE02D480088002804D000BF69
:1032900027480B38029045E0294805683246214608
:1032A0001431284601F0DCFE0398FDF776FA00F0B1
:1032B00049F8FDF76AFA0390A888402108400028E1
:1032C0000AD0A8888843A88000BF19480A3802900D
:1032D00028E0E089401EE081A089218948432168D7
:1032E0004018049004980760A089401C80B2A08117
:1032F000E188884201D10020A08120461C30FFF7E0
:10330000AFF900280AD120461C3001F0EAFE0398EC
:10331000FDF743FA00F016F800207AE7208A401CF7
:10332000208200BF0398FDF738FA029871E7000089
:103330001106000298F0FF1F7CF0FF1F20F0FF1F16
:1033400018F0FF1F10B5FDF720FA0446FFF702FE44
:103350003C380B494860084600684968884209D0F3
:1033600008480088002805D12046FDF716FAFDF729
:1033700017FA10BD2046FDF710FA00BFF9E700006C
:1033800018F0FF1F20F0FF1FF8B505460E46002E6F
:1033900001D11548F8BD1548854202DD1248801D4F
:1033A000F8E7FDF7F2F900901148FFF761F90028FE
:1033B00005D00098FDF7F1F90B48401CEAE70C48EE
:1033C00047683846FFF728F93C46083C65800120ED
:1033D000207020460830FFF75CF960683060009884
:1033E000FDF7DBF90020D5E702070002FEFF000031
:1033F00080F0FF1F70B5054628011449096844187C
:10340000FDF7C3F906460A2D02D22078002804D120
:103410003046FDF7C2F90E4870BD20460830FFF770
:1034200027F9002805D13046FDF7B7F908480830DC
:10343000F2E7214608310748FFF7C5F80020207061
:103440003046FDF7AAF90020E6E7000088F0FF1FEC
:103450000107000280F0FF1FF3B583B00746380173
:103460003B4909684518FDF790F902900A2F02D2EE
:103470002878002805D10298FDF78FF9354805B066
:10348000F0BD6888002807DD6888401E68800298C3
:10349000FDF783F90020F2E70498002802D12D4EB1
:1034A000F61C4EE02C480068002802D0294E361D3C
:1034B00047E02A480088002802D0264E761D40E0CA
:1034C0002748046820463C30FFF710FDA0880421FF
:1034D0008843A080A56120463C300190A088082147
:1034E0000843A080284608300199FFF7E5F80498C2
:1034F000401C002808D0A08840210843A080204616
:10350000049901F0C1FF03E0A08840218843A08016
:103510000298FDF742F9FFF715FFA0884021084007
:1035200000280CD0FDF731F90290A0884021884393
:10353000A0800298FDF731F9064EB61D05E0002087
:103540009DE70298FDF729F900BF304697E7000094
:1035500088F0FF1F0107000298F0FF1F20F0FF1FF7
:1035600018F0FF1FF8B5064630012B4909684518C9
:103570000A2E01D32948F8BDFDF707F90746287838
:10358000002804D13846FDF708F92448F3E7688895
:103590002349884205D13846FDF7FFF81F48C01D72
:1035A000E9E728460830FFF763F800282BD1E868E0
:1035B00004463C3CE868FFF72FF8A08808218843C0
:1035C000A080A08840210840002806D0204602F0B4
:1035D0001DFAA08840218843A0800020A061A08817
:1035E00002210840002808D1A08804210843A080B7
:1035F000E18820463C30FFF785FC3846FDF7CDF8E2
:10360000FFF7A0FE05E06888401C68803846FDF79B
:10361000C4F80020AFE7000088F0FF1F0107000298
:10362000FEFF0000014908607047000094F0FF1F92
:1036300010B50024FCF74EFD204610BDFFB581B04B
:1036400005460E461746002D02D11D4805B0F0BDB7
:10365000002E04D0012E02D01948401CF6E7002F9E
:1036600002D11748401EF1E70498002802D11448FF
:10367000801CEBE7FDF789F80090124800680028ED
:1036800005D10098FDF789F80D48C01CDEE70D480C
:1036900004680C49206808600098FDF77EF8E7612F
:1036A00066710020A071256165612060E0600A9864
:1036B000A061012020712189049801800020C5E7C4
:1036C000010300020CF0FF1FF8B5054600271A4859
:1036D000854201DB1948F8BDFDF757F80090072136
:1036E0002846FCF745FD8EB270011549096844185B
:1036F0002089A84204D00098FDF74FF80F48EAE768
:103700002079002804D0012809D002280BD102E03A
:103710000A4F7F1C0AE0204601F090FE00BF2046C1
:1037200001F06EFE02E0054F093700BF00BF0098B0
:10373000FDF733F83846CEE7FEFF00000503000230
:1037400008F0FF1FF8B5054600271A48854201DB3F
:103750001948F8BDFDF719F8009007212846FCF735
:1037600007FD8EB270011549096844182089A842E6
:1037700004D00098FDF711F80F48EAE720790028F7
:1037800004D0012809D002280BD102E00A4F7F1C87
:103790000AE0204601F052FE00BF204601F068FD1D
:1037A00002E0054F093700BF00BF0098FCF7F5FFA6
:1037B0003846CEE7FEFF00000503000208F0FF1FB9
:1037C000F8B5054600271A48854201DB1948F8BDBF
:1037D000FCF7DBFF009007212846FCF7C9FC8EB2FE
:1037E00070011549096844182089A84204D000983E
:1037F000FCF7D3FF0F48EAE72079002804D001281E
:1038000005D002280AD105E00A4F7F1C09E0094FC4
:10381000083706E0204601F011FE02E0054F0937A7
:1038200000BF00BF0098FCF7B8FF3846CFE70000A4
:10383000FEFF00000503000208F0FF1FF8B5054673
:103840000F4600263946284600F046F80646002E68
:1038500001D03046F8BD6821286848431A490968F4
:103860004418FCF792FF0090A08802218843A080B2
:10387000A08804210843A080E18820463C30FFF75F
:1038800041FBFFF767FB3C3810494860104800686F
:10389000002813D00F48008800280FD10846006880
:1038A000496888420AD00B480088002806D1009851
:1038B000FCF773FF01F054FC0020CBE70098FCF705
:1038C0006CFF0020C6E7000014F0FF1F18F0FF1F78
:1038D00050F0FF1F20F0FF1FF0B585B007460D46E2
:1038E00000200390401E0090002F02D15B4805B0DD
:1038F000F0BD002D02D15948801FF8E7E869002883
:1039000002D15648801EF2E72868002802D15348A9
:10391000C01EECE7A8881F2802DD5048001FE6E71C
:103920000521C902A869884202D94C481930DEE74E
:10393000A869002802D12D200001A8610821A869EA
:10394000FEF770FAA8611021FF203130FEF76AFA05
:10395000A969884202D94148401EC8E7FCF715FF13
:10396000029011E03E48406804463C3C3C494868AF
:10397000FEF73EFE21463C313A48FEF70FFE3A483C
:10398000E1680068FEF7D3FF3548FEF759FE0028CE
:10399000E8D03448FEF754FE002804D02F480A30FF
:1039A000009000BF54E02F48406804463C3C2D493D
:1039B0004868FEF71DFE0298FCF7EFFE20690390B1
:1039C00008222948A9690068FEF774FF0646002E00
:1039D0000BD1FCF7DAFE029021463C312148FEF77C
:1039E000DDFD2248009000BF32E03246A96903980D
:1039F00002F05CF8019001982060A868A062E96874
:103A0000E1622969216369696163E660A869A06070
:103A10000020A061E06160620220A080A088296A85
:103A2000002901D0802100E000210843A080A8885F
:103A3000E080286860610020C04320650020E065C8
:103A4000E869A063002060660398386000204EE7B4
:103A50000298FCF7A2FE009849E700000702000266
:103A600040F0FF1F38F0FF1F8CF0FF1F0002000323
:103A700070B504461A480068002801D0194870BD86
:103A800019480088002801D01848F8E7002C02D116
:103A900000F0DCF9F3E7FCF778FE05461449096805
:103AA00008463C30FFF722FA11480068808804215C
:103AB00088430F49096888800D490868214601F04C
:103AC000E3FC0B4800688088202108430849096806
:103AD00088802846FCF761FEFFF734FC0020CEE723
:103AE00098F0FF1F0D02000320F0FF1F0E020002DE
:103AF00018F0FF1FF8B506460027FF434D48006841
:103B0000864201D14C48F8BD4C480068864202D339
:103B100049480D38F7E7FCF738FE009068207043FD
:103B2000474909684418A5882079C007C00F0028B4
:103B300003D0414F0A3F00BF77E010202840002803
:103B400006D040480088002802D03F4F00BF6CE0FC
:103B500004202840002808D020463C30FFF7C6F952
:103B6000A08804218843A0800CE008202840002879
:103B700004D1012040032840002803D020463C30D7
:103B8000FEF736FD60202840002802D0204601F0D4
:103B90003DFFA08802218843A080A088012108431E
:103BA000A080881E20650020E065FFF7D3F93C382F
:103BB00026494860A08810210840002824D02146CA
:103BC0003C312348FEF768FD1C48006868214843E3
:103BD0001B49096840181D490860084600680661CD
:103BE000A088096888801949E0680968C860174991
:103BF000A06B096888630120A0800098FCF7CDFDC8
:103C000001F0AEFA00207EE70120A08021463C3181
:103C10001048FEF7C3FC1048E1680068FEF787FE15
:103C20000098FCF7BAFD00206DE70098FCF7B5FDA1
:103C3000384668E728F0FF1F1402000224F0FF1F37
:103C400014F0FF1F20F0FF1F0B02000318F0FF1FEE
:103C500040F0FF1F38F0FF1F8CF0FF1F10B5FCF77E
:103C600094FD044604480088401C0349088020460F
:103C7000FCF793FD10BD000020F0FF1FF8B50546CE
:103C80000027FF43072D01D92348F8BD682068436A
:103C9000224909684418FCF778FD0090A688F007CF
:103CA000C00F002803D01C4FFF1C00BF2EE00220D5
:103CB0003040002803D1184FBF1C00BF26E0A08869
:103CC00002218843A080A08815490840002818D107
:103CD000A08804210843A080E18820463C30FFF7FB
:103CE00011F910480068002806D00098FCF755FD2F
:103CF000FFF728FB0020C8E7FFF72CF93C380A49FA
:103D000048600098FCF749FD0020BEE70098FCF7EA
:103D100044FD3846B9E700000702000214F0FF1F17
:103D20002A24000050F0FF1F18F0FF1FF8B50546C9
:103D30000027FF432E480068854201D12D48F8BD79
:103D40002D480068854202D12A480D30F7E72B48FC
:103D50000068854202D327480D38F0E768206843A1
:103D6000274909684418FCF710FD0090A688F00761
:103D7000C00F002803D01F4F0A3F00BF33E00220CE
:103D80003040002803D01B4F0C3F00BF2BE0102019
:103D90003040002806D01B480088002802D01A4F67
:103DA00000BF20E004203040002807D020463C30EF
:103DB000FFF79CF8A08804218843A080A0880221F6
:103DC0000843A080114800680069A84206D1009805
:103DD000FCF7E3FCFFF7B6FA0020B0E70098FCF729
:103DE000DCFC0020ABE70098FCF7D7FC3846A6E7E0
:103DF00028F0FF1F140200022CF0FF1F24F0FF1F09
:103E000014F0FF1F20F0FF1F1502000318F0FF1F22
:103E100010B5FCF7BAFC04460B48008800280EDDFC
:103E200009480088401E0849088008460088002884
:103E300005D12046FCF7B1FCFFF784FA10BD2046FF
:103E4000FCF7ABFC00BFF9E720F0FF1F70B50024C2
:103E50001C48006800691C490968884201D31B4856
:103E600070BDFCF792FC054616490968C888FFF743
:103E70005BF80446012C17D91249096808463C3002
:103E8000FEF7B6FB0F4800688088042108430D49FF
:103E9000096888800B4A1268D1880A4A126810465D
:103EA0003C30FFF72FF805E02846FCF776FC074882
:103EB0000930D5E72846FCF770FCFFF743FA0020ED
:103EC000CEE7000018F0FF1F24F0FF1F07020002DA
:103ED000014903C97047000058F0FF1F10B5FCF7F7
:103EE00054FC04460A480068401C09490860204602
:103EF000FCF753FC01F056FDFCF747FC0446044870
:103F00000068401E024908602046FCF746FC10BDD0
:103F100098F0FF1F10B5FFF7E1FF10BD4D48807806
:103F200008210840002804D04A48807808434949BD
:103F300088700020484908604848806BC9140843CD
:103F4000464988634648406846490840FF21013198
:103F500008434349486044480078C007C00F002820
:103F60000AD03C48807808210840002804D039480D
:103F700080780843374988702A203C49087001201E
:103F800000043649403148603948006803218904FB
:103F90008843401836490860304840683549084031
:103FA000354940182D4948600846806B491508433B
:103FB0002A49886331488068314908402F49886020
:103FC0000846C0682E4908402C49C86000202D4989
:103FD000087208464078BF21084024210843294937
:103FE00048708020284908709A202649087000BF30
:103FF00024488079022108400028F9D000BF2148D8
:104000008079102108400028F9D11E48C078C006E8
:10401000C00E1C49C8700320087100204871084672
:104020004079402108431749487100BF15488079FD
:10403000402108400028F9D0124800788006800E00
:104040001049087000BF0F4880790C2108400C28E7
:10405000F9D1704700D0074000810440008004403F
:1040600000B00440FFF9FFFE00F0074000E0074009
:1040700000700440FFFFFAF000000101409004408E
:10408000FFF8FFFE004006400050064070B50546B0
:1040900008480068401C07490860FFF719FF0446FC
:1040A0000448016804A000F055F8214607A000F07C
:1040B00051F870BDE4F0FF1F675F74696D6572634E
:1040C0006F756E74313D25640A0000007469636B7E
:1040D0005F6C617374313D256C750A0070B50546DF
:1040E000FFF7F6FE044609480068401C07490860CF
:1040F0000846016806A000F02DF8214609A000F04E
:1041000029F800210620FEF755F970BDE8F0FF1FE1
:10411000675F74696D6572636F756E74323D256497
:104120000A0000007469636B5F6C617374323D2533
:104130006C750A000548007920210840002803D04A
:104140000248C079024908707047000000A006408C
:10415000A0F0FF1F0FB410B503A9044B044A029846
:1041600000F0DAF810BC08BC04B01847514A00004F
:1041700094F1FF1F2021020C01D010211046020AE9
:1041800001D010460839020901D01046091F8208E3
:1041900001D01046891E420801D0881E7047081AB7
:1041A000704702E008C8121F08C1002AFAD1704700
:1041B000002001E001C1121F002AFBD1704700005E
:1041C000F0B51FB484B007980699020D014314D0CE
:1041D0004A484B491018484305140F9801280E9877
:1041E0001CD0281A401C0024464E474900940191D7
:1041F0000290002814DA474227E00F98012443A3D5
:10420000012808D0002104980F9A84600360C260DE
:10421000416009B0F0BD0E98C143F4E74042E2E7C7
:10422000074612E0F80707D0224633460199009866
:10423000FCF700FA019100902246334610461946D9
:10424000FCF7F8F904460E467F10002FEAD10298D9
:10425000019B0028009A0799069802DAFCF7EAF910
:1042600001E0FBF7DBFF04460E460022284BFCF77B
:104270008FF803D80020C043014607E00022254BF9
:1042800020463146FCF724F9FCF740F8102409E0F9
:10429000002C0ADB0A220023FBF77EFF059B30324D
:1042A0001A55641E02460A43F2D11122641C059B72
:1042B000121B1C190F9B012B03D0012308430ED1A5
:1042C0000AE0084304D011200E9000200F9084E7EC
:1042D0000E98151A6D1E0BE00E98824202DD002327
:1042E0006D1C03E0824201DA00236D1E002BEED02C
:1042F00004980F998260C16030C08AE701FCFFFF1B
:10430000104D0000000024400000F03F300000008D
:104310000000F0430000E03FFFB597B006460025DF
:1043200018E2252877D100242746FD49049400E0AF
:104330000443761C32780120203A90400842F7D19D
:1043400030782A280ED002223078014630390929E7
:1043500016D804990A235943303940181443761C5F
:104360000490F1E7189802C804911890002904DA23
:104370000120400304434842049002200443761C79
:1043800030782E2814D1042004437078761C2A2813
:1043900009D11898761C80C8189009E00A214F436B
:1043A000303FC719761C3078014630390929F5D9D4
:1043B00030786C2810D006DC4C281AD068280ED033
:1043C0006A2817D104E0742813D07A2812D110E09B
:1043D0000120400504430CE00121090501E003210F
:1043E00009050C437178814203D10120000524188E
:1043F000761C761C3078119066280BD013DC582878
:104400007DD009DC00287BD04528F6D04628F4D0A2
:1044100047281AD1A5E118E0632835D0642870D068
:10442000652812D19DE170286CD008DC6728F1D096
:1044300069287BD06E280DD06F2806D1BAE073288A
:104440002ED0752871D0782859D01A9A199990478A
:104450006D1C7EE16002400F022809D003280DD0B8
:104460000428189801680DD00D60001D189070E1A7
:104470001898EA1701680D604A60F6E71898016815
:104480000D80F2E70D70F0E718986A460178117216
:10449000001D18900020507202A80090012005E035
:1044A000189802C8189000200091C04361070DD5EC
:1044B000002101E00199491C0191B94212DA8142BF
:1044C000F8DB009A515C0029F4D10BE0002101E0F7
:1044D0000199491C01918142FADB019A0099895C9A
:1044E0000029F5D1019904981A9B471A21463846AC
:1044F000199A00F097FA0199401945180BE04FE01E
:104500002CE113E04EE0009800990078491C0091DE
:104510001A9A199990470198401E0190401CF2D1B7
:10452000214638461A9B199A10E137E00A200021EB
:10453000009001916002410F022907D0189A01CA28
:104540001892C2179446032908D00AE01898C01D93
:10455000C108C90005C91891944607E000B2C21706
:104560009446042902D140B2C1178C46002261460C
:10457000944506DA0A460021404291418C462D219D
:1045800002E0210504D52B216A461173012103E0C5
:10459000E10701D02021F7E7029155E00A200AE067
:1045A000102008E010200090002104200443019115
:1045B000082703E008200021019100906002410FCC
:1045C000022907D0189A01CA18920022944603299A
:1045D00008D008E01898C01DC108C90005C9189185
:1045E000944603E080B2042900D1C0B200210291B8
:1045F000210729D51199702906D0009A1021019B15
:104600004A401A4305D00EE040216A461173012149
:1046100008E06146014306D030216A4611731199C2
:10462000517302210291009A0821019B4A401A43CA
:104630000AD16146014301D1610705D530216A469F
:10464000117301217F1E02911199582904D035A1BF
:104650000E910DA90D910DE037A1F9E76146019B7F
:10466000009AFBF799FD0E9B8C469B5C0D9A521E9F
:104670000D92137061460143F0D10D9805A9081AF7
:1046800020300190600703D501200004844300E03E
:1046900001270198874201DD381A00E000200199C6
:1046A00000904118029809180498401A0490E003F9
:1046B00006D421461A9B199A049800F0B3F94519BB
:1046C000002706E003A81A9AC05D199990476D1C4F
:1046D0007F1C02988742F5DBE0030CD521461A9B2C
:1046E000199A049800F09EF9451904E01A9A3020AE
:1046F000199990476D1C0099481E00900029F5DC1F
:1047000008E00D980D990078491C0D911A9A199995
:1047100090476D1C0199481E01900029F1DC63E16E
:104720000928010030313233343536373839616287
:10473000636465660000000030313233343536374B
:1047400038394142434445460000000000F05AF920
:104750004519761C3078002800D0E2E528461BB0C9
:10476000F0BD600700D406271898C01DC108C90015
:1047700048680A680831C30FDB071891190001D097
:104780009CA108E0210501D59BA104E0E10701D02F
:104790009AA100E09AA1430011985B081091652846
:1047A0000CD006DC452809D046281DD0472841D129
:1047B00041E0662818D067283CD13CE00021112F49
:1047C00001DB112000E0781C0191009008A911A8DC
:1047D000FFF7F6FC139905910021119A15927F1CA1
:1047E00012980197009150E00120C007039001202A
:1047F000019008A9009711A8FFF7E2FC139A1499F9
:1048000005920022119B009212981593059A01922D
:10481000002901D0104602E0791C40180190381A96
:1048200001D5019804E04042401E0090781C0190A0
:10483000C01B029043E0012F00DA01270021112F55
:1048400001DD112000E038460191009008A911A86F
:10485000FFF7B6FC13990591119A00211298159251
:104860000091019721070CD40599B94201DB019908
:1048700000E00191012904DD159A491E515C30299F
:1048800006D0B84201DA011D05DA0121029115E0D6
:104890000199491EEDE7002805DC009941180091B7
:1048A0000199091A03E0019A411C914200DD01912E
:1048B0000099401A401C02900120C0070390200775
:1048C00006D402990198814202DB0020C043029085
:1048D00000206946C87707AF012103980337C9074D
:1048E000884224D0022011902B2012900398002897
:1048F0000CDA404203902D20129007E00A21039821
:10490000FBF720FC30317F1E039039701199481E4F
:1049100011900029F2DC03980028EFD1791E12983B
:1049200008703078202108404530BF1E387006A836
:10493000C01BC01D039010980078002800D00120F3
:10494000019941180298C01709180398091804988A
:10495000401A401E0490E00306D421461A9B199A7F
:10496000049800F05FF8451910980078002803D0EB
:104970001A9A199990476D1CE00324D521461A9B79
:10498000199A049800F04EF845191CE00098002888
:1049900007DB00990598884203DD1598405C19995A
:1049A00001E0199930201A9A904700986D1C401C1C
:1049B00000900298401E0290002804D11A9A2E20DE
:1049C000199990476D1C0199481E01900029DDDC62
:1049D00005E038781A9A7F1C199990476D1C039945
:1049E000481E03900029F4DC21461A9B199A04986A
:1049F000ACE600002D0000002B00000020000000AD
:104A000000000000F8B5044600251E46174688043D
:104A100004D405E039462020B0476D1C641EF9D54A
:104A20002846F8BDFFB50446002581B01E46C803E0
:104A300001D5302700E02027880404D505E038465A
:104A40000399B0476D1C641EF9D5284605B0F0BD2A
:104A500000BF074A127980231A40002A05D1044A70
:104A6000127940231A40002AF3D0014BD8717047C5
:104A700000A0064010B5002823D0124B0022001FD2
:104A8000196803E0814203D80A4649680029F9D130
:104A9000002A0AD01368841A9C4204D100681818AE
:104AA0001060104602E0506000E01860002907D056
:104AB00002680B1A934203D10B68D218026049684E
:104AC000416010BD98F1FF1F10B5FDF75DFD044674
:104AD000002C01D0012010BDFDF7D4F9FDF720FA1C
:104AE000FDF796FCFEF7A4FD00BFFEE700F03CF8E2
:104AF00000BFFEE710B5102404E00548A100054AF8
:104B00005050641CFF2CF8D9FBF778FC10BD000056
:104B1000ED4A00009CF1FF1F00BFFEE710B58AB010
:104B2000242101A8FBF76FFB0A4801900320000233
:104B3000079009A008901F206946088101A909482B
:104B4000FEF77CFE0446002C02D020460AB010BDC1
:104B50000020FBE7194B000049646C65436F7265E8
:104B60003030300028F0FF1F10B5FBF709FE044677
:104B7000204610BD10B500F0E5FA00F0B3F9044688
:104B8000002C01D0204610BD19480078002801D023
:104B9000FFF7B0FF00F030FD0446002C01D02046A6
:104BA000F1E700F0E1FA0446002C01D02046EAE7E4
:104BB00000F0AAF90446002C01D02046E3E700F0FB
:104BC00031FA0446002C01D02046DCE700F0F8FA68
:104BD0000446002C01D02046D5E700F05FFFFFF728
:104BE0009DFF0446002C01D02046CCE70020CAE7F8
:104BF0008C5C0000F8B507460E46002430461330A2
:104C00008508AD002946384600F073F80446002CAC
:104C100000D1F8BD28461430E168814204D32A4609
:104C20002146384600F02EF92046FDF7FFFC2046CD
:104C300000F016F90121C907E0680843E060E16867
:104C40004800400800F07EFD20461030E1E7F0B556
:104C500085B005460C462E462846E0300390706825
:104C600040191038029070684719002001902B46B7
:104C700000972046029A039900F0BFF8002802D15D
:104C8000012005B0F0BDE068C00FC007002801D1C9
:104C90000120F6E7E06840004008001901902B462B
:104CA0000097029A0399019800F0A7F8002801D113
:104CB0000120E6E701988068A04201D00120E0E7EA
:104CC0000398844213D000972B46A068029A039958
:104CD00000F093F8002801D10120D2E7A068C16854
:104CE000490049084018A04201D00120C9E700202E
:104CF000C7E770B505460E46002431462846083001
:104D0000FDF7ADF8044618E000206168084605E0AC
:104D1000C168B14200D370BD41680846A042F7D1D6
:104D200028460830214602461346D0338B4201D133
:104D3000002301E00B4608331C46002CE4D1002080
:104D4000E9E7F8B504460E46002700200090E16828
:104D50004800400800F0DAFCE06840004008E060ED
:104D6000A06800282AD0A068C068C00FC00700282B
:104D700024D1A568204600F061F8E86840004008AA
:104D80004719F868C00FC007002805D13846FDF75D
:104D90004DFC384600F052F82846FDF747FC3046F7
:104DA0000830E968FDF75BF800900098002800D112
:104DB000F8BD29460098FDF70DFC1CE0E0684000B6
:104DC00040080719F868C00FC007002805D1384609
:104DD000FDF72CFC384600F031F830460830E16829
:104DE000FDF73DF800900098002800D1E0E721464B
:104DF0000098FDF7EFFB00BFDAE730B50446039DEE
:104E0000A14201D8944201D9002030BDE068C00F12
:104E1000C007002808D020686040401C002801D04E
:104E20000020F2E70120F0E72068984202D32068D2
:104E3000A84201D30020E8E70120E6E700218268CC
:104E4000D268C368D2188368DA60C26811188268B1
:104E50008A6000BF002202604260826000BF70472B
:104E6000C143016006490968002904D00449096862
:104E70000969416002E00021C943416070470000B8
:104E800018F0FF1FF7B582B00D4616460024002724
:104E900000200190AC19A560E868801BE060EE601E
:104EA000E068400040080719BC60F868C00FC00700
:104EB000002805D13846FDF7B9FB3846FFF7BEFF9D
:104EC000E16802980830FCF7CAFF019001980028B9
:104ED00001D105B0F0BD21460198FDF77BFB00BF75
:104EE000F7E7000010B50648064908600521C90229
:104EF00004480068FDF74EFD0446204610BD000042
:104F000000F6FF1F8CF0FF1F70B51248FDF7BBFBCA
:104F1000F02111480068FDF7AFFC10490860084611
:104F20000068002801D10E4870BD00240DE0182053
:104F300060430A49096845186C60002028702946BA
:104F400008310448FDF7B0FB641C0A2CEFD30020A5
:104F5000EAE7000074F0FF1F8CF0FF1F70F0FF1FE6
:104F6000001D000270B500240025FF2501352946EB
:104F70000D480068FDF780FC0C4908600846006891
:104F8000002800D170BD0020044608E0E100074A77
:104F9000126888184060006000BF601C0446202C26
:104FA000F4D300BFEEE700008CF0FF1F00F0FF1FFE
:104FB000FFB581B00646174617480468002508E08B
:104FC000A088002803D1681C0299086003E06D1CCA
:104FD0002C34072DF4D300BF072D02D10F4805B0A4
:104FE000F0BD2C212046FBF70EF9304678430146F0
:104FF0000B480068FDF740FC20602068002802D1C3
:105000000648801EEBE7E68027810120A0800498F7
:1050100004600020E3E700007CF0FF1F04060002AC
:105020008CF0FF1F10B5FF2135310A480068FDF7ED
:1050300023FC0949086008460068002801D1074898
:1050400010BDFF21353104480068FBF7DCF8002073
:10505000F6E700008CF0FF1F7CF0FF1F0106000246
:10506000F7B504460D460027002620463C30FDF7E4
:105070003DFFA08804218843A08027463C37A088B4
:10508000C9020843A0802846FDF7EAFA002806D0A6
:1050900000BF39462868FDF78FFA00BF14E0686842
:1050A00006463C3E07E0E088F188884200DA06E0E8
:1050B000306C06463C3E30463C30A842F3D100BF3F
:1050C0003946F06BFDF778FA0298401C002807D0AB
:1050D000A08840210843A0802046029900F0D4F91E
:1050E000FEBD70B50546686804463C3C6868426889
:1050F00001681160026841685160002141600160EF
:1051000000BFA088012149038843A080A0884021D6
:105110000840002806D0204600F078FCA0884021F6
:105120008843A080A08802210840002808D1A088D8
:1051300004210843A080E18820463C30FDF7E2FED0
:1051400070BD000008200349086003480349086057
:105150007047000024F0FF1F001E002090F0FF1F8A
:1051600010B5FBF71DFB10BD70B51148FDF791FAA6
:10517000A02110480068FDF77FFB0F490860084632
:105180000068002801D10D4870BD00240CE020010A
:105190000949096845186C600020287029460831C3
:1051A0000348FDF789FA641C0A2CF0D30020EBE7D2
:1051B00080F0FF1F8CF0FF1F88F0FF1F0007000228
:1051C000FEB5002023490860E020019022480199A3
:1051D0000068FDF751FB0446002C01D11F48FEBDBD
:1051E00020460199FBF70FF81D4804601D48046034
:1051F0000020208125462034012705E027812C60EE
:105200002546781C87B22034072FF7DB082264215B
:105210001548FDF793FC0646002E02D00F48C01C2F
:10522000DDE704200023114A072100901846FDF70E
:10523000AFFE0646002E02D00848001DCFE700F062
:1052400073F80646002E02D00448401DC7E7002030
:10525000C5E7000010F0FF1F8CF0FF1F07030002DE
:1052600008F0FF1F0CF0FF1F9CF5FF1F04F0FF1F4D
:1052700010B5002200218379002B08D14379002B3F
:1052800002D04379022B02D14369C36001E0036974
:10529000C360104B19680AE0CB68C468A34200D908
:1052A00007E0C368CC681B1BC3600A460968002975
:1052B000F2D100BF0160002903D0CB68C4681B1B7A
:1052C000CB60002A02D1034B186000E0106002237B
:1052D000037110BD10F0FF1F0EB50020029000BF3B
:1052E0000023DB43042202A90D480068FDF7E6FE17
:1052F0000446002CF4D102980028F1D002980068EE
:10530000009002984068019006480299FDF7C8FB9A
:1053100000980028E4D0009901988847E0E7000051
:1053200004F0FF1F9CF5FF1F10B58AB0242101A8CF
:10533000FAF769FF094801902D200001079008A0A5
:1053400008900020694608818020099001A907483B
:10535000FEF774FA044620460AB010BDD952000088
:105360005377745F5461736B000000002CF0FF1FD3
:1053700070B51F48046835E01D49206808601D4865
:10538000FDF75EFB0546002D10D0E0692860A0699E
:10539000686000230422294617480068FDF72CFFA7
:1053A000002803D029461348FDF77AFB60790028CE
:1053B00010D1204600F024F820891049884203DAF1
:1053C0002089C01D20810BE020890721FAF7D0FE3B
:1053D000218105E0A079401CA0712046FFF748FF1D
:1053E00003480468002C02D0E0680028C4D070BDD7
:1053F00010F0FF1F9CF5FF1F04F0FF1FF7FF0000D8
:105400000349096801600249086000210171704781
:105410000CF0FF1F10B50848006800280AD00648A5
:105420000068C068401E04490968C860002801D1AE
:10543000FFF79EFF002010BD10F0FF1F10B50246C1
:10544000002100200F4B186801E0014600689042DF
:10545000FBD10368002B05D00368DB68C4681B1907
:105460000468E360002903D1064C0368236001E06F
:1054700003680B6000230360012303710023837121
:1054800010BD000010F0FF1FF3B581B00446029874
:10549000C706FF0E029840090090002F00D002E0DE
:1054A0000098401E0090E06CC00EC00600990843B2
:1054B000E06426488088C719FF06FF0EE06C4001B3
:1054C0004009F9060843E06420480068F9004618DE
:1054D0007068B04205D1214644313046FDF7DCF812
:1054E00033E070680546443D00BFE86C4001400968
:1054F000E16C4901490988420CD8E06C400140093F
:10550000E96C49014909401AE16CC90EC906084312
:10551000E0640CE0E86C40014009E16C4901490994
:10552000401AE96CC90EC9060843E86406E0A86C95
:105530000546443D28464430B042D6D100BF2146FE
:10554000443128464430FDF7A7F8FEBD48F0FF1F60
:10555000F8B5054668206843234909684418E0699E
:10556000002806D06669204628300FC8B047206260
:1055700004E06669204628300FC8B047A088802123
:10558000084000280AD0FBF700F9009000201749D6
:1055900008802069009900F089F924E0FBF7F5F80C
:1055A00000900020114908800098FBF7F6F8FEF7FC
:1055B00055FBE069002805D0E1694868FDF7D2FF96
:1055C0000020E061A08804210840002807D0204680
:1055D0003C30FDF78BFCA08804218843A080FEF7B7
:1055E00017FCFDF7AFFEF8BD14F0FF1F20F0FF1F02
:1055F000FBF7C9F800BFFEE770B53B480068401CE8
:10560000682148430646314638480068FDF734F9BA
:105610003749086008460068002801D1354870BD48
:10562000314633480068FAF7EEFD3348FDF728F8B5
:105630003248FDF725F83248FDF722F8002417E03C
:105640000121682060432A4A1268801881806820FE
:105650006043274909684018046168206043244A70
:105660001268801801463C312448FDF715F8641C87
:10567000072CE5D923480021016041601A480068E1
:10568000682148431A49096840181E4908600846BD
:105690000068046111200968888020201949096880
:1056A000C880FFF75FFCFF26013631460F480068CF
:1056B000FDF7E2F80546002D01D10E48AFE731466F
:1056C0002846FAF7A0FD1048056000200E498880A2
:1056D000002404E02846FCF7D3FF641C0835202C86
:1056E000F8D300209BE7000024F0FF1F8CF0FF1F81
:1056F00014F0FF1F0002000330F0FF1F38F0FF1FFF
:1057000040F0FF1F18F0FF1F48F0FF1F10B50146C3
:10571000094A12681069072800D910BD074A1268A3
:10572000002A00D0F9E78200054B9A58521A8300EC
:10573000034CE25000BFF0E718F0FF1F98F0FF1F86
:10574000001E002010B501460C4A1268002A00D144
:1057500010BD0B4A1268002A00D0F9E7074A126808
:105760001069072800D9F3E78200064B9A585218AF
:105770008300044CE25000BFEAE7000018F0FF1F6E
:1057800098F0FF1F001E002070B504460D46A0884B
:1057900004210840002811D020463C30FDF7A6FB2C
:1057A000A08804218843A080E580A0880843A080C9
:1057B000E18820463C30FDF7A5FB00E0E58070BDA8
:1057C000F8B5002738498988481CC117C90E09183F
:1057D00049114901411A344A918010460068114626
:1057E0008988C90045186868A84200D1F8BD686872
:1057F0000446443C4CE0A688E06C40014009002887
:1058000003D0E06C401EE06446E020464430FCF7E4
:10581000EFFE0820304000280BD0A08808218843E4
:10582000A08020463C30FCF7E3FE0020A0616062CF
:105830001DE0012080023040002805D0A088012111
:1058400089028843A08012E00120400330400028F4
:1058500009D020463C30FCF7CBFEA088012149034B
:105860008843A08003E0A08820218843A0800220F4
:105870003040002809D1A08804210843A080E18895
:1058800020463C30FDF73EFB012768680446443C57
:1058900020464430A842AED100BF002F01D0FDF712
:1058A00051FD00BFA2E7000048F0FF1FF8B5054614
:1058B0000F4668206843364909684418A6880420C2
:1058C0003040002808D020463C30FDF70FFBA08870
:1058D00004218843A0800EE02E48304000280AD0E2
:1058E00020463C30FCF784FE60203040002802D087
:1058F000204600F08BF8A08802218843A080A08871
:1059000001210843A080881E20650020E065FDF786
:1059100021FB3C3820494860A0881021084000281D
:1059200024D021463C311D48FCF7B6FE1C480068D7
:105930006821484316490968401817490860084615
:1059400000680561A088096888801349E0680968D3
:10595000C8601149A06B096888630120A08038469F
:10596000FAF71BFFFFF7FCFB0020F8BD2079C0070A
:10597000C00F002806D03846FAF70FFFFFF7F0FBFC
:105980000020F2E73846FAF708FF0020EDE70000B4
:1059900014F0FF1F0820000018F0FF1F40F0FF1F49
:1059A00024F0FF1F10B508480368406800215A1C06
:1059B000484105490A60486000F04AF8FFF700FFD7
:1059C000FFF728FD10BD000058F0FF1F10B50024A0
:1059D0000A480B49086008460068FDF723FE08489E
:1059E0000068401E0749486170200749C8700020C0
:1059F0000449886107200861204610BD80BB000073
:105A00009CF0FF1F00E000E020ED00E0F8B5044648
:105A1000E06CC70E0D480068F9004618A06CB04253
:105A20000ED0A06C0546443DE86C40014009E16C95
:105A3000490149094018E96CC90EC9060843E864E0
:105A400020464430FCF7D4FDF8BD000048F0FF1FAD
:105A500010B50F4800680F49096888420BD00D48FF
:105A600000680B4908600846C1880B480088081880
:105A7000401E07498880064881880748008880B210
:105A8000814204D1002002490860FEF7DFF910BD11
:105A900068F0FF1F18F0FF1F58F0FF1F0020024999
:105AA00008600A20C880704768F0FF1F70B5044680
:105AB000012303E0174D9E0095515B1C8D089D420C
:105AC000F8D8154D1560551828464438134D056013
:105AD000134D4560134D8560134DC560134D056131
