:020000040800F2
:10000000108D0020410000080000000000000000EA
:1000100000000000000000000000000000000000E0
:1000200000000000000000000000000000000000D0
:100030000000000000000000EB0000089B340008F6
:10004000DFF81000016841F47001016072B60248E7
:100050000047000088ED00E05D000008DFF80CD0EC
:1000600000F0DEF800480047B1380008108D00208D
:10007000344C354D256035484FF0010101604FF09B
:10008000020080F314883248426831480260304BE5
:10009000186887884FF0100847EA08078780D0F86B
:1000A00000C00CF1640CBCE8FF000CF1480C8CF3B0
:1000B00009882DED010ABDEC010AAE4662B6304753
:1000C000EFF30580704772B67047EFF3108072B699
:1000D0007047EFF3108062B6704780F31088704766
:1000E0001C484FF0805101607047EFF3108C72B6DE
:1000F000194A126822B12DE900509047BDE800501E
:10010000EFF3098020E9F01F20ED108B104D2E68D1
:100110003060B7884FF0100827EA0807B7800C480E
:100120004068286087884FF0100847EA08078780F2
:100130000168B1EC108BB1E8F01F81F309888CF3F2
:100140001088704720ED00E00000F0F0500400201F
:100150001804002004ED00E0540400202DE9F05FB5
:100160000546002092469B46884606468146402426
:100170001BE0284641464746224600F041F85346D8
:100180005A46C01A914110D311461846224600F033
:1001900028F82D1A67EB01084F462246012000215E
:1001A00000F01FF817EB00094E41201EA4F10104D6
:1001B000DFDC484631462A464346BDE8F09FD2B2CE
:1001C00001E000F8012B491EFBD270470022F6E740
:1001D00010B513460A4604461946FFF7F0FF2046BD
:1001E00010BD202A04DB203A00FA02F100207047FB
:1001F0009140C2F1200320FA03F319439040704765
:10020000202A04DB203A21FA02F00021704721FA6B
:1002100002F3D040C2F120029140084319467047D2
:10022000064C074D06E0E06840F0010394E8070043
:1002300098471034AC42F6D3FFF714FF0C4B00087C
:100240003C4B000870B58C1810F8015B15F00703E3
:1002500001D110F8013B2A1106D110F8012B03E05F
:1002600010F8016B01F8016B5B1EF9D12B0705D467
:100270000023521E0DD401F8013BFAE710F8013BB0
:10028000CB1A921C03E013F8015B01F8015B521ECC
:10029000F9D5A142D8D3002070BD000070B500246C
:1002A0004FF400411F48006801F065FE05461DB986
:1002B0001DA003F04BF904E020A003F047F9012052
:1002C00070BD04211748006801F0D8FD044624B928
:1002D00020A003F03BF90120F2E723A003F036F958
:1002E0004FF44F70206024A0216803F02FF92146BD
:1002F0000C48006801F015FE05463DB922A003F048
:1003000025F90021092001F091FB08E022A003F06B
:100310001DF90121092001F089FB0120D0E700200F
:10032000CEE70000940400206D656D706F6F6C2047
:10033000696E6974206F6B210A0000006D656D7035
:100340006F6F6C20696E6974206661696C656421E9
:100350000A0000006D656D20616C6C6F6320666142
:10036000696C6564210A00006D656D20616C6C6FBD
:1003700063206F6B0A0000002A705F6E756D203D70
:100380002025640A000000006D656D2066726565B9
:10039000206F6B210A0000006D656D206672656537
:1003A000206661696C6564210A00000010B50121B6
:1003B0000EA003F0CBF8642304220121134801F0BE
:1003C00059F90446012C08D1214611A003F0BEF8CA
:1003D0000021012001F02AFB06E015A003F0B6F889
:1003E0000121084601F022FB10BD00004578616D37
:1003F000706C655F4576656E742077616974206501
:1004000076656E742030782578200A00A886002052
:100410004578616D706C655F4576656E742C7265AC
:100420006164206576656E74203A307825780A001C
:100430004578616D706C655F4576656E742C72658C
:100440006164206576656E742074696D656F75747E
:100450000A0000002DE9F04101F082F88046B8F171
:10046000000F03D041461BA003F070F802F0F2FF2A
:1004700004460D460022134662406B401A4303D0E7
:1004800021461BA003F062F8C82002F0B5FD02F07F
:10049000E1FF0F46064600221146724079400A43AA
:1004A00003D0314618A003F051F8321B67EB05006A
:1004B000C83A70F1000006D30021052001F0B6FA19
:1004C0000020BDE8F0810121052001F0AFFA0120F4
:1004D000F7E700004C4F535F4379636C65506572DA
:1004E0005469636B476574203D202564200A000031
:1004F0004C4F535F5469636B436F756E74476574FB
:10050000203D202564200A004C4F535F5469636BE3
:10051000436F756E744765742061667465722064FC
:10052000656C6179203D202564200A0010B58CB0EF
:1005300000241F4801900920ADF808004FF4007016
:1005400007901CA008908020099002F049FE01A9A4
:100550000BA802F041FC044634B1214618A002F079
:10056000F5FF20460CB010BD1D48019001A90AA856
:1005700002F032FC04462CB121461AA002F0E6FF3C
:100580002046EFE7322000231E4A052100901EA0DE
:1005900001F0DEFF04461CB121461DA002F0D6FF8B
:1005A00023A002F0D3FF02F0F5FE0020DAE70000FE
:1005B000494A000873656E645175657565000000F1
:1005C000637265617465207461736B312066616963
:1005D0006C6564212C6572726F723A25780A00008E
:1005E0007D490008637265617465207461736B32C4
:1005F000206661696C6564212C6572726F723A25A0
:10060000780A0000A8040020717565756500000077
:1006100063726561746520717565756520666169D1
:100620006C757265212C6572726F723A25780A00BA
:1006300063726561746520746865207175657565A0
:100640002073756363657373210A000010B592B05F
:100650002C4801F0A3FD02F0C3FD242109A8FFF7F7
:10066000B5FD2948099029A010904FF434700F90DF
:100670000520ADF8280009A9274802F0ADFB044683
:100680002CB126A002F062FF012012B010BD24217F
:100690006846FFF79BFD2748009027A007904FF47E
:1006A000347006900420ADF804006946254802F035
:1006B00093FB044624B124A002F048FF0120E4E7A4
:1006C00002F068FE4FF4967002F096FC0D48006848
:1006D00001F096FD1048006802F0CEFC044624B1FB
:1006E0001FA002F033FF0120CFE71648006802F098
:1006F000C3FC044624B120A002F028FF0120C4E777
:100700000020C2E7C0040020910700084D75746501
:100710007854736B31000000C40400207461736B63
:100720003120637265617465206661696C6564205F
:100730002E0A0000A90800084D7574657854736B83
:1007400032000000C80400207461736B32206372B1
:1007500065617465206661696C6564202E0A00001D
:100760007461736B312064656C65746520666169C2
:100770006C6564202E0A00007461736B322064651E
:100780006C657465206661696C6564202E0A0000E2
:1007900010B517A002F0DAFE0A211F48006801F028
:1007A00063FD04463CB91DA002F0D0FE1A48006863
:1007B00001F0FEFD10BD2148844216D120A002F0B8
:1007C000C5FE4FF0FF311448006801F04DFD0446AE
:1007D0005CB928A002F0BAFE0F48006801F0E8FDFD
:1007E0000021042001F022F9E4E700BFE2E7000065
:1007F0007461736B312074727920746F2067657433
:10080000206D757465782C207761697420313020F3
:100810005469636B2E0A0000C00400207461736B7E
:100820003120676574206D7574657820675F546545
:1008300073746D757830312E0A000000071D0002B8
:100840007461736B312074696D656F757420616EAE
:10085000642074727920746F2067657420206D7530
:100860007465782C207761697420666F726576658F
:10087000722E0A007461736B31207761697420668F
:100880006F72657665722C676F74206D757465780C
:1008900020675F546573746D7578303120737563AC
:1008A000636573732E0A000010B50FA002F04EFEB0
:1008B0004FF0FF311648006801F0D6FC04461CB129
:1008C00014A002F043FE10BD19A002F03FFE642008
:1008D00002F092FB23A002F039FE0D48006801F0FF
:1008E00067FD00BFEFE700007461736B3220747224
:1008F0007920746F20676574206D757465782C207D
:100900007761697420666F72657665722E0A0000E1
:10091000C00400207461736B32204C4F535F4D75DF
:100920007850656E64206661696C6564202E0A00EB
:100930007461736B3220676574206D7574657820FF
:10094000675F546573746D7578303120616E642013
:1009500073757370656E6420313030205469636B39
:100960002E0A00007461736B3220726573756D65B9
:100970006420616E6420706F7374207468652067F2
:100980005F546573746D757830310A0010B515A029
:1009900002F0DCFD0A212248006802F02BF8044630
:1009A00024B91F48006802F0A5F810BD1D48844214
:1009B00016D11D4802F0CAFD4FF0FF3118480068FB
:1009C00002F018F804465CB918A002F0BFFD144804
:1009D000006802F08FF80021032001F027F8E4E717
:1009E00000BFE2E74578616D706C655F53656D54DB
:1009F00061736B3120747279206765742073656D43
:100A000020675F757353656D4944202C74696D656B
:100A10006F7574203130207469636B732E0A000087
:100A2000D404002007070002C84A00084578616D19
:100A3000706C655F53656D5461736B3120776169CC
:100A4000745F666F726576657220616E6420676F91
:100A5000742073656D20675F757353656D4944201D
:100A6000737563636573732E0A00000010B50CA0E4
:100A700002F06CFD4FF0FF311748006801F0BAFF3B
:100A8000044614B915A002F061FD142002F0B4FA76
:100A900022A002F05BFD1048006802F02BF810BDA8
:100AA0004578616D706C655F53656D5461736B3231
:100AB00020747279206765742073656D20675F7597
:100AC0007353656D4944207761697420666F726560
:100AD0007665722E0A000000D40400204578616D0E
:100AE000706C655F53656D5461736B32206765741C
:100AF0002073656D20675F757353656D4944206190
:100B00006E64207468656E2064656C617920323093
:100B10007469636B73202E0A000000004578616DD4
:100B2000706C655F53656D5461736B3220706F73C9
:100B3000742073656D20675F757353656D4944203C
:100B40002E0A000010B592B000243149002001F0B7
:100B5000EBFE02F045FB242109A8FFF737FB2D48E7
:100B600009902DA010904FF4A0600F900520ADF8D3
:100B7000280009A92B4802F02FF904462CB12AA01D
:100B800002F0E4FC012012B010BD24216846FFF7FA
:100B90001DFB2B4800902BA007904FF4A0600690FF
:100BA0000420ADF804006946294802F015F904460E
:100BB00064B128A002F0CAFC1A48006802F05CFA8E
:100BC00010B12AA002F0C2FC0120DCE702F0E2FB37
:100BD0000F48006801F08EFF0446282002F00CFA4E
:100BE0000B48006801F0D6FE0E48006802F044FA97
:100BF00018B11EA002F0AAFC01241548006802F0FA
:100C00003BFA18B11FA002F0A1FC01242046BAE76C
:100C1000D40400208D0900084D7574657854736BF9
:100C200031000000CC0400207461736B31206372CA
:100C300065617465206661696C6564202E0A000038
:100C40006D0A00084D7574657854736B32000000AE
:100C5000D00400207461736B322063726561746527
:100C6000206661696C6564202E0A00007461736BF4
:100C7000312064656C657465206661696C6564200B
:100C80002E0A00007461736B322064656C657465B4
:100C9000206661696C6564202E0A000010B58AB078
:100CA000274800F0B1FC04462CB126A002F04EFC0F
:100CB00001200AB010BD242101A8FFF787FA2748B8
:100CC000019027A008904FF4347007900520ADF8EC
:100CD000080001A9254802F07FF8044624B124A0A9
:100CE00002F034FC0120E4E727A002F02FFC0121F0
:100CF000134800F06DFD044624B12DA002F026FC3F
:100D00000120D6E70E4801682FA002F01FFC0C4816
:100D10000068C1430A4800F063FC094801682AA042
:100D200002F014FC1148006802F0A6F9044624B150
:100D300029A002F00BFC0120BBE70020B9E700006E
:100D4000A8860020696E6974206576656E742066D9
:100D500061696C6564202E0A00000000AD03000884
:100D60004576656E7454736B31000000A00400205A
:100D70007461736B20637265617465206661696C70
:100D80006564202E0A0000004578616D706C655F17
:100D90005461736B456E7472795F4576656E74202D
:100DA0007772697465206576656E74202E0A00007E
:100DB0006576656E74207772697465206661696C0A
:100DC0006564202E0A0000004576656E744D6173DF
:100DD0006B3A25640A0000007461736B2064656CD3
:100DE000657465206661696C6564202E0A000000E8
:100DF0002DE9F041002403263227324639462048A7
:100E000001F08CF905462DB11EA002F09FFB0120D8
:100E1000BDE8F08121A002F099FB194801F0FEF82D
:100E2000044624B922A002F091FB0120F0E726A09D
:100E300002F08CFB4FF44F70206028A0216802F074
:100E400085FB21460E4801F009F928A0216802F02F
:100E50007DFB21460A4801F00FF905463DB92AA05D
:100E600002F074FB0021082000F0E0FD06E02BA05A
:100E700002F06CFB0121082000F0D8FD0020C7E73C
:100E8000B48600204D656D20626F7820696E6974AC
:100E9000206661696C65640A000000004D656D2084
:100EA000626F7820696E6974206F6B210A00000000
:100EB0004D656D20626F7820616C6C6F6320666198
:100EC000696C6564210A00004D656D20626F7820B1
:100ED000616C6C6F63206F6B0A0000002A705F6E9C
:100EE000756D203D2025640A00000000636C65617B
:100EF000722064617461206F6B0A202A705F6E75C6
:100F00006D203D2025640A004D656D20626F7820BC
:100F100066726565206F6B210A0000004D656D20CB
:100F2000626F782066726565206661696C65642110
:100F30000A00000010B519A002F008FB022002F020
:100F40005BF8044624B11BA002F000FB012010BD99
:100F50001EA002F0FBFA2548006802F0A9F9044639
:100F600044B123A002F0F2FA0121002000F05EFD5E
:100F70000120ECE725A002F0E9FA0021084600F084
:100F800055FD1A48006802F077F820B128A002F059
:100F9000DDFA0120DBE70020D9E70000456E74652B
:100FA00072205461736B48692048616E646C65728D
:100FB0002E0D0A0044656C6179205461736B2046E4
:100FC00061696C65642E0D0A000000005461736B4A
:100FD0004869204C4F535F5461736B44656C617971
:100FE00020446F6E652E0D0A00000000D80400201A
:100FF00053757370656E64205461736B4869204645
:1010000061696C65642E0D0A000000005461736B09
:101010004869204C4F535F5461736B526573756D13
:101020006520537563636573732E0D0A000000001D
:101030005461736B48692064656C657465206661F2
:10104000696C6564202E0A0010B515A002F07EFAC6
:10105000022001F0D1FF044624B117A002F076FA75
:10106000012010BD1AA002F071FA2248006802F0B7
:10107000C7F8044644B120A002F068FA012100201C
:1010800000F0D4FC0120ECE72148006801F0F4FFF7
:1010900020B120A002F05AFA0120E2E70020E0E7A8
:1010A000456E746572205461736B4C6F2048616E9D
:1010B000646C65722E0D0A0044656C617920546180
:1010C000736B4C6F204661696C65642E0D0A0000DD
:1010D0005461736B4869204C4F535F5461736B5379
:1010E000757370656E6420537563636573732E0D3D
:1010F0000A000000D8040020526573756D65205405
:1011000061736B4869204661696C65642E0D0A0045
:10111000DC0400205461736B4C6F2064656C657453
:1011200065206661696C6564202E0A0010B58AB07E
:1011300002F056F823A002F009FA29480190042091
:10114000ADF8080027A008904FF480600790802039
:10115000099001A9264801F03FFE04463CB102F087
:1011600019F924A002F0F2F901200AB010BD29A05B
:1011700002F0ECF9304801900520ADF808002FA0EE
:1011800008904FF4806007908020099001A92E48B4
:1011900001F022FE044674B11548006801F06CFFAE
:1011A00010B12AA002F0D2F902F0F4F82DA002F05A
:1011B000CDF90120D9E733A002F0C8F902F0EAF82E
:1011C0002046D2E74C4F535F5461736B4C6F636B97
:1011D00028292053756363657373210D0A0000008D
:1011E000350F0008484947485F4E414D4500000013
:1011F000D80400204578616D706C655F5461736B35
:10120000486920637265617465204661696C656434
:10121000210D0A004578616D706C655F5461736BD8
:1012200048692063726561746520537563636573F3
:1012300073210D0A00000000491000084C4F575F51
:101240004E414D4500000000DC0400205461736BEA
:1012500048692064656C657465206661696C6564C5
:10126000202E0A004578616D706C655F5461736B68
:101270004C6F20637265617465204661696C6564BA
:10128000210D0A004578616D706C655F5461736B68
:101290004C6F206372656174652053756363657379
:1012A00073210D0A000000002DE9F04138A002F082
:1012B0004DF908213A48006800F0E0FD0446204658
:1012C0004060006000BF00BF4168814201D1012140
:1012D00000E0002129B933A002F038F90120BDE86F
:1012E000F08134A002F032F908212D48006800F0A6
:1012F000C5FD054608212A48006800F0BFFD0646E6
:1013000008212748006800F0B9FD07462946204615
:1013100000F09EFC3146284600F09AFC2868A04266
:1013200002D03068A84202D12AA002F00FF900BF13
:101330003946206800F08CFC00BF3868B04202D10A
:1013400029A002F003F92DA002F000F900BFD5E9B1
:1013500000010860D5E9001048600020686028603E
:1013600000BF284602F07CFA6068B04207D128A08E
:1013700002F0ECF80021072000F058FB06E02AA05C
:1013800002F0E4F80121072000F050FB0020A6E75E
:10139000696E697469616C2E2E2E2E2E2E0A000045
:1013A00094040020696E697469616C206661696CDF
:1013B00065640A006E6F64652061646420616E6418
:1013C000207461696C206164642E2E2E2E2E2E0AEC
:1013D00000000000616464206E6F646520737563B3
:1013E000636573730A000000616464207461696C52
:1013F00020737563636573730A00000064656C6530
:101400007465206E6F64652E2E2E2E2E2E0A00001F
:1014100064656C657465206E6F64652073756363C5
:101420006573730A0000000064656C657465206E66
:101430006F6465206572726F720A00000EB501203C
:1014400002AB234A002100904FF47A7001F0BAFBFE
:10145000012001AB1F4A01460090642001F0B2FB5D
:101460001DA002F073F8BDF8080001F033FC20A0C5
:1014700002F06CF8C82001F0BFFDBDF8080001F0D3
:101480006BFC21A002F062F8BDF8080001F022FC1C
:101490004FF47A7001F0B0FDBDF8080001F0D8FB00
:1014A0001EA002F053F8BDF8040001F013FC21A0C7
:1014B00002F04CF84FF47A7001F09EFDBDF8040084
:1014C00001F04AFCBDF8040001F0C2FB00200EBD93
:1014D000A5340008F5340008637265617465205412
:1014E000696D65723120737563636573730A0000FB
:1014F00073746172742054696D6572312073756301
:101500006573730A0000000073746F702054696D76
:10151000657231207375636573730A0064656C6569
:1015200074652054696D65723120737563657373DA
:101530000A00000073746172742054696D65723220
:101540000A00000002465018401E904204D950186C
:10155000401E4B1E98437047481E22EA0000FAE7DF
:101560004FF47A50704710B50246144620460023C7
:1015700005E001464960096000BF5B1C08301B2B79
:10158000F7D310BD2DE9F04105460E462F463046F3
:1015900000F0D2FB04461E2C02D90020BDE8F081E9
:1015A000042C00D80424201F07EBC000F6E710B578
:1015B00003F0D2F804460CB1204610BD2046FCE7EB
:1015C0000146FF20704770477047704710B500F024
:1015D00005F8FFF7FAFFFFF7F6FF10BD70470000B0
:1015E00070B504460D460CB9064870BDFEF76DFD9A
:1015F00006462068284020603046FEF76EFD002039
:10160000F3E70000061C0002014609B904487047D0
:1016100000200860081D4060006000BF0020F6E761
:10162000061C00022DE9F04104460D46164600272F
:10163000FEF74BFD804606F0020030B120682840DE
:1016400058B1206800EA050707E035B12068284056
:10165000A84202D1206800EA05072FB106F0010078
:1016600010B12068B84320604046FEF736FD38468A
:10167000BDE8F0812DE9F05F8146884616461F4699
:101680004FF0000AB9F1000F02D14D48BDE8F09FBC
:10169000B8F1000F02D14A48001FF7E708F00070C8
:1016A00010B14748801FF1E706F0020010B106F0C4
:1016B000040028B926F0070010B906F0060010B99A
:1016C0003F48801EE2E73F48006810B13C48C01E1A
:1016D000DCE7FEF7FAFC8346324641464846FFF710
:1016E000A1FF8246BAF1000F64D127B95846FEF730
:1016F000F4FC5046CAE73448008828B15846FEF743
:10170000ECFC2F48401EC1E73048046804F13C005F
:1017100000F0CEFEA08820F00400A08004F13C057B
:10172000A08840F00800A080C4F85C80266600BF56
:10173000D9F8040041686960286041680D6045601F
:1017400000BF00BF7FB1781C68B1A08840F04000A6
:10175000A0803946204602F061FD5846FEF7BDFCE8
:1017600001F0C2F808E0A08820F04000A0805846B0
:10177000FEF7B3FC01F0B8F8207900F0400060B14A
:10178000FEF7A3FC8346A08820F04000A0805846C6
:10179000FEF7A3FC0A48401F78E7FEF796FC834655
:1017A000324641464846FFF73DFF82465846FEF71F
:1017B00094FC02E05846FEF790FC504666E70000B5
:1017C000061C0002900400202004002018040020C1
:1017D0002DE9F04705460E460027B84615B93948A9
:1017E000BDE8F08706F0007010B13648801FF7E7BB
:1017F000FEF76BFC8146286830432860281D41684D
:10180000814201D1012100E00021002955D1A868C1
:10181000A0F13C043FE0206CA0F13C0794F860008C
:1018200000F0020010B1E06D304050B994F8600053
:1018300000F0040070B3E06D29680840E16D884253
:1018400028D14FF0010800BFD4E90F010860D4E9A6
:101850000F10486000202064E06300BFA08820F0E3
:101860000800A080207900F0400030B1204602F04E
:1018700093FFA08820F04000A080207900F00200B3
:1018800040B9A08840F00400A080E18804F13C0049
:1018900000F01AFE3C4604F13C00291D8842BAD1F2
:1018A000B8F1010F05D14846FEF717FC01F01CF80E
:1018B00006E04846FEF711FC02E04846FEF70DFC44
:1018C00000208DE7061C00022DE9F04105460027A7
:1018D000FF260A2D06DB29462EA001F037FE012047
:1018E000BDE8F081002449E0314800EB04100078A5
:1018F000A84242D12E4800EB0410406828B929467E
:101900002CA001F023FE0120EAE7294901EB041194
:1019100048688047074600BF254800EB0410407820
:1019200050B94FB9224800EB041000F108012DA076
:1019300001F00CFE002610E01D4800EB041040787A
:1019400001280AD101261A4800EB041000F1080111
:101950002A4802682AA001F0F9FD642001F04CFB3E
:10196000134800EB04104078FF28D5D0104800EB56
:1019700004104078B042CFD102E0641C0A2CB3D3EB
:1019800000BF0A2C01D10120AAE70EB10120A7E770
:101990000020A5E70D0A20496E7370656374494401
:1019A000203D205B25645D204572722E0D0A0000EB
:1019B000F0040020496E73706563744944203D2033
:1019C0005B25645D204572722C496E73706563748B
:1019D00066756E63206973204E554C4C2E0D0A0DB2
:1019E0000A000000496E73706563742025732073CC
:1019F0007563636573730D0A0D0A0000E804002027
:101A0000496E7370656374202573206572726F72FE
:101A10002C67496E7370656374457272436E7420EF
:101A20003D205B25645D0D0A0D0A000070B505467A
:101A30000E4600240A2D05DB29460CA001F086FD88
:101A4000012070BD00240AE00F4800EB041000786C
:101A5000A84203D10C4800EB04104670641C0A2C09
:101A6000F2D301D10120ECE70020EAE70D0A20497A
:101A70006E73706563744944203D205B25645D206E
:101A80004572722E0D0A0000F004002010B58AB0D5
:101A9000242101A8FEF79AFB094801904FF4A060A9
:101AA000079008A008900920ADF8080001A908488F
:101AB00001F092F904460CB10AB010BD00BFFBE77B
:101AC0002D1B0008496E737065637454736B0000BE
:101AD000EC04002070B505460C462846FFF770FD63
:101AE00098B9322001F088FA2846FFF769FD38B925
:101AF00001212046FFF768FD06A001F027FD08E060
:101B000000212046FFF760FD03E000212046FFF79B
:101B10005BFD70BD0D0A204B6579207465737420E0
:101B20006578616D706C65200D0A0000002500204D
:101B30001249086012A001F009FD00240EE0E0B295
:101B4000FFF7C2FE054645B10C480068401C0B4932
:101B5000086001210220FFF737FD641C0A2CEEDB30
:101B6000064801680CA001F0F1FC16A001F0EEFCA3
:101B700003E001210846FFF7ADFFFAE7E804002083
:101B80000D0A204C6F7320496E7370656374207367
:101B9000746172742E0D0A00496E7370656374204F
:101BA000636F6D706C657465642C67496E737065E6
:101BB0006374457272436E74203D205B25645D0D35
:101BC0000A0D0A000D0A204C6F73204B65792065C1
:101BD00078616D706C653A20706C6561736520701A
:101BE000726573732074686520557365724B6579EF
:101BF000206B6579200D0A0010B501F0AFFE044698
:101C00000CB1012010BD0020FCE742684A6008606A
:101C1000426811604160704742684A6008604268EB
:101C200011604160704742684A6008604268116014
:101C30004160704742684A600860426811604160D4
:101C4000704742684A6008604268116041607047AE
:101C500042684A6008604268116041607047D0E99C
:101C600000121160D0E90021516000214160016043
:101C70007047D0E900121160D0E9002151600021C5
:101C8000416001607047D0E900121160D0E9002185
:101C900051600021416001607047D0E9001211607D
:101CA000D0E9002151600021416001607047014688
:101CB0004868884201D1012070470020FCE70146B6
:101CC0004868884201D1012070470020FCE70146A6
:101CD0004868884201D1012070470020FCE7014696
:101CE0004868884201D1012070470020FCE740602D
:101CF000006070474060006070474060006070475F
:101D000040600060704770B504460D462946206863
:101D1000FFF77BFF70BD70B504460D46294620686D
:101D2000FFF77AFF70BD70B504460D46294620685E
:101D3000FFF780FF70BD0000014601F0004010B1C8
:101D40006FF0704070474C480840002847D001F0C1
:101D5000FE40F8B101F0E04058B101F0804008B118
:101D60001E20EFE701F0005008B11D20EAE71C201B
:101D7000E8E701F0406030B101F0006008B11B20DD
:101D8000E0E71A20DEE701F0007008B11920D9E77A
:101D90001820D7E701F4700080B101F4400030B1A1
:101DA00001F4000008B11720CCE71620CAE701F4BF
:101DB000001008B11520C5E71420C3E701F4402046
:101DC00030B101F4002008B11320BBE71220B9E7BD
:101DD00001F4003008B11120B4E71020B2E701F49B
:101DE0007F4020B301F4704080B101F4404030B135
:101DF00001F4004008B10F20A4E70E20A2E701F48F
:101E0000005008B10D209DE70C209BE701F44060D5
:101E100030B101F4006008B10B2093E70A2091E78C
:101E200001F4007008B109208CE708208AE701F06E
:101E3000F00080B101F0C00030B101F0800008B1C5
:101E400007207FE706207DE701F0200008B105208C
:101E500078E7042076E701F00C0030B101F00800CB
:101E600008B103206EE702206CE701F0020008B120
:101E7000012067E7002065E70000FF7F2DE9F041C2
:101E800005460C460026FEF720F9074600BF05B1BF
:101E900004B909E004F0004000B105E021462846FD
:101EA00001F094FD064600BF00BF3846FEF715F965
:101EB0003046BDE8F0812DE9F05F80460F461446BC
:101EC0004FF00009CA4600250026FEF7FEF88346BB
:101ED00000BFB8F1000F00D007B91BE0381900F1BE
:101EE000040909F0004000B114E04946404601F001
:101EF0006DFD05462819401E611E20EA0106B54207
:101F000000D107E0A6EB050A4AF0804A46F804AC87
:101F1000354600BF00BF5846FEF7DFF82846BDE84B
:101F2000F09F2DE9F04705460C4601270026FEF7F5
:101F3000CCF8814600BFB04605B104B914E054F8AE
:101F4000046C06F0804010B126F08046A41BA4F17A
:101F500010084146284601F067FD07461FB929468B
:101F6000404601F0D5FD00BF00BF4846FEF7B5F87A
:101F70003846BDE8F0872DE9F0470446884600253D
:101F800000270026A94614B1B8F1FF0F03D84FF07F
:101F9000FF30BDE8F087FEF798F8824626463446C3
:101FA0003660C6F8048004F10800FFF7DCFA04F19B
:101FB000E005281BA8EB00001038E8600020A860AE
:101FC00004F10800E968FFF7DDFA8146B9F1000F76
:101FD00005D15046FEF781F84FF0FF30D9E700BF3A
:101FE0002946D9F80000FFF72CFE00BF04EB0800DB
:101FF000A0F11007002038607860B860F860BD601C
:102000001020F860F86840F00040F860384601F0B1
:1020100009FE5046FEF761F80020BAE72DE9F041CD
:1020200005462F460026002415B90020BDE8F081A2
:10203000FEF74BF8804607F10806306820B1346897
:1020400020683060044820604046FEF746F80CB92E
:102050000020EBE7201DE9E7A55A5AA570B5044614
:102060000D46264604B105B970BD3068011F2846EB
:10207000FEF7ACF800BFF7E72DE9F04705460E463E
:102080002C46012705B116B90120BDE8F087FEF7FF
:102090001CF8804600BF311F20460A46D0F800C019
:1020A000BCF1000F02D14FF0010C25E000F10C0C47
:1020B000A2EB0C03D0F800C0B3FBFCF90CFB193CFD
:1020C000BCF1000F02D04FF0010C15E0D0F800C0B9
:1020D000B3FBFCFCD0F80490CC4502D34FF0010CCC
:1020E0000AE0DFF83490D2F800C0CC4502D04FF0BF
:1020F000010C01E04FF0000CBCF1000F00D004E037
:10210000A0680860A160002700BF00BF4046FDF73F
:10211000E4FF3846B9E70000A55A5AA52DE9F04773
:1021200006460F4690463446002516B90120BDE804
:10213000F087B8F1000F01D10120F8E70C2F01D290
:102140000120F4E7FDF7C1FF824608F1070020F007
:1021500003002060A7F10C002168B0FBF1F0606083
:10216000606820B95046FDF7B8FF0120DFE704F1B1
:102170000C05A5604FF0000905E0206828442860A0
:102180002D6809F101096068401E4845F5D8002016
:1021900028605046FDF7A1FF0020C8E72DE9F04177
:1021A000054615B91448BDE8F081FDF78EFF0746D6
:1021B0001248FFF784FD28B13846FDF78EFF0E4820
:1021C000401CF0E70D4846683046FFF752FDA6F187
:1021D000080400206080012020700020A08220617F
:1021E00004F10800FFF786FD606828603846FDF7B7
:1021F00074FF0020D7E70000021D000274040020D5
:1022000070B5054605EB45001449096801EBC004AB
:10221000FDF75BFF06460A2D01D2207820B9304633
:10222000FDF75BFF0E4870BD04F10800FFF747FDA6
:1022300008B1608828B13046FDF74FFF08480830E4
:10224000F1E704F108010748FFF7E6FC00202070E1
:102250003046FDF742FF0020E5E700007004002053
:10226000011D0002740400202DE9F04706460F46C8
:1022700006EB46004949096801EBC005FDF725FF5B
:1022800082460A2E01D2287828B95046FDF725FF4C
:102290004348BDE8F0874348006828B15046FDF741
:1022A0001CFF3F48001DF4E73F480468688850B9A8
:1022B0006888401C68802C61E088A8825046FDF741
:1022C0000CFF0020E5E72869A04207D16888401C80
:1022D00068805046FDF701FF0020DAE72FB950462D
:1022E000FDF7FBFE2E48C01CD3E73048008820B124
:1022F000DFF8AC8008F105084AE004F13C0000F08A
:10230000D7F8A08820F00400A080656204F13C09A1
:10231000A08840F00800A0802869C088E188884231
:1023200003DDE188286902F0FBF8494605F1080061
:10233000FFF7F1FC781C68B1A08840F04000A08055
:102340003946204601F06AFF5046FDF7C6FE00F010
:10235000CBFA08E0A08820F04000A0805046FDF7AE
:10236000BCFE00F0C1FA207900F0400070B1FDF72A
:10237000ACFE8246A08820F04000A0805046FDF7C9
:10238000ACFEDFF81C8008F1060805E0002080E7BD
:102390005046FDF7A2FE00BF40467AE770040020D9
:1023A000011D0002900400201804002020040020D9
:1023B0002DE9F041064606EB46003949096801EB74
:1023C000C004FDF782FE80460A2E01D2207828B98B
:1023D0004046FDF782FE3348BDE8F0813248006890
:1023E00028B14046FDF779FE2E48001DF4E72F483E
:1023F0000768608810B12069B84204D04046FDF7F4
:102400006CFE2848E8E76088401E80B2608020B1FA
:102410004046FDF762FE0020DEE72069C088A18A01
:10242000884203D0A18A206902F07AF804F10800FA
:10243000FFF745FC70BBE068A0F13C05E068FFF7E2
:1024400018FCA88820F00800A880287900F0400037
:1024500030B1284602F0A0F9A88820F04000A880FA
:10246000012060802561E888A082002068622879C8
:1024700000F0020040B9A88840F00400A880E98874
:1024800005F13C0000F020F84046FDF726FE00F084
:102490002BFA02E04046FDF720FE00209CE70000FA
:1024A00070040020011D0002900400201804002088
:1024B00000BFD0E900121160D0E900215160002175
:1024C0004160016000BF704710B50A4606490968BF
:1024D00001EBC20319684C68446001604C682060DD
:1024E000486000BF00BF10BD00040020014600206E
:1024F0000022074B1B6803EBC1035A6801E0401C34
:102500005268034B1B6803EBC1039342F7D170473A
:102510000004002000210020014612E00B4A12684E
:1025200002EBC1004268824201D1012200E0002298
:102530002AB90648006800EBC10040687047481C93
:1025400001462029EAD30020F8E70000000400201B
:102550002DE9F84F81460C4615469A460A9E15B954
:102560001948BDE8F88F4FF6FB70864202DD164829
:102570000938F6E704B116B91348401CF1E7FDF736
:10258000A4FD8046301D82B26B462946204601F0EC
:10259000EBFB074627B14046FDF79FFD3846E0E7D5
:1025A00000981430FFF7A9FB00981C30FFF7A5FB3B
:1025B00000982430FFF7A1FB0098C4814046FDF746
:1025C0008CFD0020CDE700000C0600022DE9F04153
:1025D0000646771E0A2F02D32548BDE8F081FDF795
:1025E00074FD804607EB470000EBC70021490968EE
:1025F00001EB8004A08818B900BF1D4D6D1D31E0AE
:1026000004F11C00FFF763FB18B900BF184DED1C67
:1026100028E004F11400FFF75AFB18B900BF144D6D
:10262000ED1C1FE004F12400FFF751FB18B900BFB7
:102630000F4DED1C16E0E089218A0844E1888842AC
:1026400003D000BF0A4DAD1D0CE00B4821680068A7
:10265000FFF767FC054615B100BF00BF02E0002090
:10266000A08000BF4046FDF738FD2846B5E70000D2
:10267000050600027C040020940400202DE9FC5F84
:1026800080460F4691461E4600200090A8F1010B9F
:10269000BBF10A0F02D34048BDE8FC9F17B93E4882
:1026A000401CF9E7B9F1000F02D13B48801CF3E769
:1026B0002EB13A48006810B137480A30ECE7FDF710
:1026C00004FD01900BEB4B0000EBCB003449096893
:1026D00001EB8004A08820B900BF2F480E30009085
:1026E00054E0208A50BB26B900BF2B480F30009021
:1026F0004CE02C48008820B100BF274808380090E3
:1027000044E029480568324604F11C01284601F0DE
:102710007FFB0198FDF7E1FC00F0E6F8FDF7D5FC42
:102720000190287900F0400058B1A88820F04000BE
:10273000A88000BF1848C01F009027E0208A401ED4
:10274000208261892289206801FB020ADAF80000F0
:1027500038606089401C80B26081E188884201D184
:102760000020608104F11400FFF7B1FA50B904F1C0
:10277000140001F08FFB0198FDF7AFFC00F0B4F8F6
:10278000002089E7E089401CE08100BF0198FDF747
:10279000A4FC009880E700000E06000290040020D0
:1027A0007C04002020040020180400202DE9FC5F98
:1027B00081460F4690461E4600200090A9F1010B6D
:1027C000BBF10A0F02D34348BDE8FC9F17B941484B
:1027D000401CF9E7B8F1000F02D13E48801CF3E736
:1027E0002EB13D48006810B13A480838ECE7FDF7D3
:1027F0006CFC01900BEB4B0000EBCB0037490968F8
:1028000001EB8004A08820B900BF3248C01C0090B2
:102810005BE02089404504D200BF2E48001D009097
:1028200053E0E08950BB26B900BF2A48401D009004
:102830004BE02B48008820B100BF26480B380090A1
:1028400043E028480568324604F11401284601F0A7
:10285000DFFA0198FDF741FC00F046F8FDF735FC82
:102860000190287900F0400058B1A88820F040007D
:10287000A88000BF17480A38009026E0E089401E73
:10288000E081A1892289206801FB020ACAF8007050
:10289000A089401C80B2A081E188884201D100203B
:1028A000A08104F11C00FFF712FA50B904F11C00DA
:1028B00001F0F0FA0198FDF710FC00F015F8002087
:1028C00082E7208A401C208200BF0198FDF705FCAA
:1028D000009879E711060002900400207C04002093
:1028E000200400201804002010B5FDF7EEFB04467C
:1028F000FFF710FE3C380A494860084600684968FE
:10290000884208D00748008828B92046FDF7E5FB33
:10291000FDF7E6FB10BD2046FDF7DFFB00BFF9E742
:1029200018040020200400202DE9F04105460E4641
:1029300016B91648BDE8F0814FF6FE70854202DDFB
:102940001248801DF6E7FDF7C0FB80461048FFF7F0
:10295000C6F928B14046FDF7C0FB0C48401CE9E72A
:102960000B4847683846FFF78EF9A7F108046580E1
:102970000120207004F10800FFF7C2F960683060A0
:102980004046FDF7AAFB0020D4E700000207000242
:102990008004002070B505461348006800EB05145C
:1029A000FDF793FB06460A2D01D2207820B9304668
:1029B000FDF793FB0D4870BD04F10800FFF78FF998
:1029C00028B93046FDF789FB08480830F3E704F1E1
:1029D00008010748FFF72EF9002020703046FDF768
:1029E0007CFB0020E7E700008804002001070002CC
:1029F000800400202DE9F0470746884638480068E3
:102A000000EB0715FDF761FB82460A2F01D22878FB
:102A100028B95046FDF761FB3248BDE8F087688869
:102A2000002807DD6888401E68805046FDF755FB8A
:102A30000020F2E7B8F1000F02D12A4EF61C49E05F
:102A40002948006810B1274E361D43E0274800880A
:102A500010B1244E761D3DE02548046804F13C0089
:102A6000FFF726FDA08820F00400A080A56104F1F6
:102A70003C09A08840F00800A080494605F1080004
:102A8000FFF751F908F1010040B1A08840F0400083
:102A9000A0804146204601F0C1FB03E0A08820F061
:102AA0004000A0805046FDF718FBFFF71DFF20797E
:102AB00000F0400060B1FDF708FB8246A08820F0DE
:102AC0004000A0805046FDF708FB064EB61D05E00D
:102AD0000020A2E75046FDF700FB00BF30469CE710
:102AE0008804002001070002900400202004002038
:102AF000180400202DE9F04106462A48006800EB42
:102B000006150A2E02D32848BDE8F081FDF7DDFA4C
:102B10000746287820B93846FDF7DFFA2248F3E760
:102B200068884FF6FE71884205D13846FDF7D5FA20
:102B30001D48C01DE8E705F10800FFF7D0F848BBC5
:102B4000E868A0F13C04E868FFF79DF8A08820F051
:102B50000800A080207900F0400030B1204601F04C
:102B60001BFEA08820F04000A0800020A0612079FA
:102B700000F0020040B9A08840F00400A080E18885
:102B800004F13C00FFF7A0FC3846FDF7A6FAFFF77A
:102B9000ABFE05E06888401C68803846FDF79DFA6A
:102BA0000020B1E788040020010700020149086005
:102BB000704700008C04002010B50024FDF758FA7F
:102BC000204610BD2DE9F04705460E4617469846AB
:102BD000DDF8209015B91C48BDE8F08726B1012E1C
:102BE00002D01948401CF7E717B91748401EF3E711
:102BF000B8F1000F02D11448801CEDE7FDF765FA2B
:102C000082461248006828B95046FDF766FA0E4819
:102C1000C01CE1E70D4804680C4920680860504674
:102C2000FDF75BFAE76166710020A07125616561BF
:102C30002060E060C4F81890012020712089A8F875
:102C400000000020C8E70000010300020C0400207F
:102C50002DE9F041044600274FF6F070844202DB74
:102C60001A48BDE8F081FDF730FA80462046E117AA
:102C700004EB11710911A4EB01118EB21448006824
:102C800000EB46152889A04204D04046FDF725FAFE
:102C90000E48E6E7287920B1012809D002280BD197
:102CA00002E00A4F7F1C0AE0284601F093FA00BFB9
:102CB000284601F073FA02E0044F093700BF00BF55
:102CC0004046FDF70AFA3846CBE70000050300024C
:102CD000080400202DE9F041044600274FF6F0706B
:102CE000844202DB1A48BDE8F081FDF7EEF9804628
:102CF0002046E11704EB11710911A4EB01118EB20A
:102D00001448006800EB46152889A04204D04046CC
:102D1000FDF7E3F90E48E6E7287920B1012809D04C
:102D200002280BD102E00A4F7F1C0AE0284601F07E
:102D300051FA00BF284601F06FF902E0044F09374D
:102D400000BF00BF4046FDF7C8F93846CBE700009A
:102D500005030002080400202DE9F0410446002785
:102D60004FF6F070844202DB1948BDE8F081FDF7B0
:102D7000ACF980462046E11704EB11710911A4EB70
:102D800001118EB21348006800EB46152889A04255
:102D900004D04046FDF7A1F90D48E6E7287920B1B7
:102DA000012805D002280AD105E0094F7F1C09E05F
:102DB000074F083706E0284601F00CFA02E0044FFE
:102DC000093700BF00BF4046FDF787F93846CCE71A
:102DD00005030002080400202DE9F04105460F46D6
:102DE00000263946284600F045F8064616B130461A
:102DF000BDE8F081286800EB800101EBC0001949B3
:102E0000096801EBC004FDF760F98046A08820F056
:102E10000200A080A08840F00400A080E18804F1B6
:102E20003C00FFF751FBFFF775FB3C380E4948604B
:102E30000E48006888B10E48008870B908460068DE
:102E40004968884209D00A48008830B94046FDF7F1
:102E500044F901F05BF80020CAE74046FDF73DF970
:102E60000020C5E7140400201804002050040020AE
:102E7000200400202DE9F05F07460D464FF00009C1
:102E80004FF0FF3A17B95748BDE8F09F15B95548BC
:102E9000801FF9E7E86910B95248801EF4E72868F6
:102EA00010B95048C01EEFE7A8881F2802DD4D4822
:102EB000001FE9E7A869B0F5004F02D94948193069
:102EC000E2E7A86910B94FF43470A8610821A86935
:102ED000FEF738FBA86110214FF49870FEF732FB23
:102EE000A969884202D93F48401ECDE7FDF7EDF8B9
:102EF000834611E03C484068A0F13C043A494868E8
:102F0000FEF7ADFE04F13C013848FEF77EFE38487E
:102F1000E1680068FFF705F83348FEF7C8FE0028AF
:102F2000E8D03248FEF7C3FE28B1DFF8B8A00AF1B6
:102F30000A0A00BF51E02D484068A0F13C042B492B
:102F40004868FEF78CFE5846FDF7C7F8D4F8109095
:102F500008222748A9690068FEF7ADFF06465EB95A
:102F6000FDF7B3F8834604F13C012048FEF74DFE1F
:102F7000DFF880A000BF30E032464846A96901F082
:102F80005DFC8046C4F80080A868A062E968E16240
:102F90002969216369696163E660A869A06000200E
:102FA000A061E06160620220A080A088296A09B166
:102FB000802100E000210843A080A888E0802868E4
:102FC00060614FF0FF3020650020E065E869A06394
:102FD00000206066C7F8009056E75846FDF77DF878
:102FE000504651E707020002400400203804002048
:102FF000940400200002000370B5044619480068DC
:1030000008B1194870BD1948008808B11848F9E797
:1030100014B900F0DDF9F5E7FDF757F80546154955
:10302000096801F13C00FFF743FA12480068808804
:1030300020F004000F49096888800E49086821467D
:1030400001F0ECF80B480068808840F02000094946
:10305000096888802846FDF740F8FFF745FC002006
:10306000D0E70000900400200D020003200400209F
:103070000E020002180400202DE9F04106464FF030
:10308000FF374D480068864202D14C48BDE8F081C8
:103090004B480068864202D348480D38F6E7FDF7F2
:1030A00014F8804606EB860000EBC6004549096827
:1030B00001EBC004A588207900F0010018B13F4F52
:1030C0000A3F00BF73E005F0100028B13E480088B9
:1030D00010B13E4F00BF6AE005F0040040B104F1BA
:1030E0003C00FFF7E5F9A08820F00400A08009E08B
:1030F00005F0080010B905F4005018B104F13C00C7
:10310000FEF7ADFD05F0600010B1204601F044FB74
:10311000A08820F00200A080A08840F00100A080DC
:103120004FF0FF3020650020E065FFF7F3F93C38F1
:1031300027494860207900F0100038B304F13C01C1
:103140002448FEF7E0FD1E48006800EB800101EB1B
:10315000C0001C49096801EBC0001D490860084611
:1031600000680661A088096888801949E0680968D4
:10317000C8601749A06B096888630120A080404699
:10318000FCF7ABFF00F0C2FE00207FE70120A0802B
:1031900004F13C011048FEF738FD1048E168006872
:1031A000FEF7BFFE4046FCF798FF00206EE7404662
:1031B000FCF793FF384669E7280400201402000258
:1031C0002404002014040020200400200B0200032B
:1031D000180400204004002038040020940400203B
:1031E00010B5FCF772FF044604480088401C0349F0
:1031F00008802046FCF771FF10BD0000200400206D
:103200002DE9F04105464FF0FF370F2D02D9244834
:10321000BDE8F08105EB850000EBC5002149096898
:1032200001EBC004FCF751FF8046A68806F00100C0
:1032300018B11B4FFF1C00BF2CE006F0020018B9AC
:10324000174FBF1C00BF25E0A08820F00200A0801F
:10325000A08842F22A410840B8B9A08840F0040092
:10326000A080E18804F13C00FFF72EF90E480068C9
:1032700030B14046FCF731FFFFF736FB0020C7E7CF
:10328000FFF748F93C38094948604046FCF725FFFC
:103290000020BDE74046FCF720FF3846B8E70000B5
:1032A000070200021404002050040020180400202B
:1032B0002DE9F04105464FF0FF372E480068854262
:1032C00002D12D48BDE8F0812C480068854202D12A
:1032D00029480D30F6E72A480068854202D326487F
:1032E0000D38EFE705EB850000EBC50025490968BF
:1032F00001EBC004FCF7E9FE8046A68806F0010059
:1033000018B11D4F0A3F00BF2FE006F0020018B1B0
:10331000194F0C3F00BF28E006F0100028B11A48F2
:10332000008810B1194F00BF1FE006F0040038B14B
:1033300004F13C00FFF7BCF8A08820F00400A08056
:10334000A08840F00200A080114800680069A842EF
:1033500006D14046FCF7C1FEFFF7C6FA0020B1E7F0
:103360004046FCF7BAFE0020ACE74046FCF7B5FE4D
:103370003846A7E728040020140200022C0400208D
:10338000240400201404002020040020150200035F
:103390001804002010B5FCF798FE04460B4800887E
:1033A00000280DDD09480088401E084908800846AD
:1033B000008828B92046FCF790FEFFF795FA10BD6B
:1033C0002046FCF78AFE00BFF9E700002004002039
:1033D00070B500241C48006800691C4909688842CF
:1033E00001D31B4870BDFCF770FE054616490968FD
:1033F000C888FFF77BF80446012C17D912490968E1
:1034000001F13C00FEF72BFC0F480068808840F07B
:1034100004000D49096888800B4A1268D1880A4A5D
:10342000126802F13C00FFF74FF805E02846FCF770
:1034300054FE07480930D5E72846FCF74EFEFFF753
:1034400053FA0020CEE700001804002024040020D6
:1034500007020002014903C9704700005804002018
:1034600010B5FCF732FE04460A480068401C0949C2
:1034700008602046FCF731FE01F05AF9FCF725FE02
:10348000044604480068401E024908602046FCF7D4
:1034900024FE10BD90040020704710B5FFF7E0FF38
:1034A00010BD000070B5054608480068401C07497B
:1034B0000860FFF7CFFF04460448016804A000F04D
:1034C00045F8214607A000F041F870BDE004002057
:1034D000675F74696D6572636F756E74313D2564E5
:1034E0000A0000007469636B5F6C617374313D2581
:1034F0006C750A0070B50546FFF7ACFF0446094835
:103500000068401C074908600846016806A000F0F2
:103510001DF8214609A000F019F800210620FEF749
:1035200085FA70BDE4040020675F74696D6572639D
:103530006F756E74323D25640A0000007469636B18
:103540005F6C617374323D256C750A000FB4054BD6
:1035500010B503A9044A029800F018F810BC5DF8F1
:1035600014FB00004D3800089005002002E008C858
:10357000121F08C1002AFAD170477047002001E0ED
:1035800001C1121F002AFBD1704700002DE9FF4F37
:103590008DB09B460F460446002606E025280BD03A
:1035A0005A460F999047641C761C20780028F5D164
:1035B00011B03046BDE8F08F0025A8460122984999
:1035C00000E0054314F8013F203B02FA03F00842F3
:1035D000F7D120782E2817D114F8010F45F00405F3
:1035E0002A280ED06FF02F022078A0F1300109298F
:1035F0000AD808EB880102EB410100EB0108641CCA
:10360000F2E757F8048B641C20786C280DD004DC9A
:103610004C2812D06A2811D104E074280DD07A28E1
:103620000CD10AE045F4001507E0617845F48015F7
:10363000814202D1641C05F58015641C2278692A38
:1036400045D008DC002AB3D0582A69D0632A10D0AC
:10365000642A08D13BE0702A67D0732A13D0752AF8
:103660005CD0782A5CD010465A460F999047761C59
:10367000D3E017F8040B8DF8000000208DF801004E
:10368000E946012003E057F8049B4FF0FF3069073B
:103690004FF0000501D40AE06D1C45450DDA854266
:1036A000FADB19F805100029F6D106E06D1C8542F9
:1036B000FCDB19F805100029F8D12E4404E019F8B4
:1036C000010B5A460F9990476D1EF8D2A5E00A20CB
:1036D0000021CDE90801C5F3025002280DD001CF29
:1036E000C117031E71F100030DDA4FF0000CD0EB8F
:1036F0000C006CEB01012D2308E0FF1D27F00707EC
:10370000F7E80201EDE72B0504D52B238DF82830CF
:1037100001233BE0EB0739D02023F7E70A2000E044
:1037200010200021CDE9080107E01020002145F01C
:103730000405CDE908014FF00808C5F3025002283E
:103740000FD001CF00214FF0000A2B071FD5702AA0
:103750000DD0DDE908C38CF0100C5CEA030C0CD032
:1037600015E0FF1D27F00707F7E80201EBE740220D
:103770008DF828204FF0010A0BE050EA010306D033
:1037800030238DF828308DF8292002239A46582AB4
:1037900004D024A20DF120090B9209E026A2F9E73A
:1037A000DDE90823FCF7DAFC0B9B9B5C09F8013D83
:1037B00050EA0102F4D1ADEB09002030089068070F
:1037C00001D44FF001080899884502DDA8EB0100FB
:1037D00000E000208046002506E00AA85A46405D29
:1037E0000F9990476D1C761C5545F6DB04E03020A0
:1037F0005A460F999047761CB8F10001A8F10108CC
:10380000F5DC05E019F8010B5A460F999047761C34
:103810000899481E08900029F4DC641CC5E60000E5
:103820000928010030313233343536373839616296
:10383000636465660000000030313233343536375A
:1038400038394142434445460000000038B504463B
:103850008DF8000069460320ABBE204638BD00004D
:1038600010B5002821D0114B0022001F196803E079
:10387000814203D80A4649680029F9D152B1136838
:10388000841A9C4204D1006818441060104602E07B
:10389000506000E0186039B102680B1A934203D1FE
:1038A0000B681A4402604968416010BD940500200D
:1038B00010B5FEF7A1F904460CB1012010BDFDF7CB
:1038C00076FEFDF783FEFEF7E1F8FFF775F900BF1E
:1038D000FEE700F03DF800BFFEE7000010B5102441
:1038E00004E00548054941F82400641CFF2CF8D980
:1038F000FFF7D2FD10BD0000D33800080000002003
:1039000000BFFEE710B58AB0242101A8FCF75EFCD9
:103910000A4801904FF4A060079009A008901F206A
:10392000ADF8080001A90948FFF756FA044614B19A
:1039300020460AB010BD0020FBE700000139000856
:1039400049646C65436F7265303030002804002094
:1039500010B5FCF7B5FB0446204610BD10B500F0CD
:10396000C7FA00F09DF904460CB1204610BD164878
:10397000007808B1FFF7B2FF00F006FD04460CB175
:103980002046F3E700F0C6FA04460CB12046EDE706
:1039900000F098F904460CB12046E7E700F01CFA65
:1039A00004460CB12046E1E700F0E0FA04460CB111
:1039B0002046DBE700F03AFFFFF7A4FF04460CB116
:1039C0002046D3E70020D1E7C44A00082DE9F041A2
:1039D00007460E46002406F1130020F00305294691
:1039E000384600F06DF8044614B90020BDE8F081B7
:1039F00005F11400E168814204D32A462146384685
:103A000000F020F92046FEF748F9204600F00AF9B8
:103A1000E06840F00040E060E16821F0004000F024
:103A200061FD04F11000E1E72DE9F84F05460C4671
:103A30002E4605F1E00870682844A0F1100A70686D
:103A400047194FF000092B46524641462046009741
:103A500000F0B7F810B90120BDE8F88FE06800F079
:103A6000004008B90120F7E7E06820F0004000EBD3
:103A700004092B46524641464846009700F0A1F8FB
:103A800008B90120E8E7D9F80800A04201D00120D8
:103A9000E2E7444512D000972B4652464146A068C3
:103AA00000F08FF808B90120D6E7A068C16821F0BE
:103AB00000410844A04201D00120CDE70020CBE71F
:103AC00070B505460E460024314605F10800FDF7A5
:103AD00059FD044618E000206168084605E0C16809
:103AE000B14200D370BD41680846A042F7D105F14C
:103AF00008002146024602F1D0038B4201D1002387
:103B000001E001F108031C46002CE4D10020E9E7A4
:103B10002DE9F04104460E460027B846E16821F041
:103B2000004000F0C5FCE06820F00040E060A068C4
:103B300048B3A068C06800F0004020BBA5682046DC
:103B400000F05EF8E86820F000404719F86800F0DF
:103B5000004028B93846FEF7A0F8384600F050F883
:103B60002846FEF79AF806F10800E968FDF70AFD15
:103B70008046B8F1000F01D1BDE8F08129464046EA
:103B8000FEF75FF81BE0E06820F000400719F868D6
:103B900000F0004028B93846FEF77FF8384600F0BC
:103BA0002FF806F10800E168FDF7ECFC8046B8F15B
:103BB000000F00D1E0E721464046FEF742F800BF83
:103BC000DAE730B50446039DA14201D8944201D9F9
:103BD000002030BDE06800F0004038B1206860404F
:103BE000401C08B10020F4E70120F2E72068984269
:103BF00002D32068A84201D30020EAE70120E8E7C9
:103C000000218268D268C3681A448368DA60C26897
:103C1000111882688A6000BF0022026042608260E0
:103C200000BF7047C14301600549096821B10449DB
:103C300009680969416002E04FF0FF314160704757
:103C4000180400202DE9F04780460D461646002452
:103C50000027A146AC19A560E868801BE060EE6013
:103C6000E06820F000400719BC60F86800F00040F0
:103C700028B93846FEF711F83846FFF7C1FF08F1BA
:103C80000800E168FDF77EFC8146B9F1000F01D123
:103C9000BDE8F08721464846FDF7D3FF00BFF7E7B0
:103CA00010B50648064908604FF400410448006812
:103CB000FEF761F90446204610BD000068060020AA
:103CC0009404002070B51248FEF714F8F021114852
:103CD0000068FEF7D3F8104908600846006808B984
:103CE0000E4870BD00240EE004EB44000A49096848
:103CF00001EBC0056C600020287005F10801044844
:103D0000FEF709F8641C0A2CEED30020E9E7000056
:103D1000740400209404002070040020001D0002A0
:103D200070B5002400254FF4807529460C480068C2
:103D3000FEF7A4F80B4908600846006800B970BD9A
:103D40000020044608E00749096801EBC400406010
:103D5000006000BF601C0446202CF4D300BFEEE7D7
:103D600094040020000400202DE9F0470646884610
:103D70001746994615480468002507E0A08818B939
:103D8000681CC8F8000003E06D1C2C340A2DF5D324
:103D900000BF0A2D02D10E48BDE8F0872C21204635
:103DA000FCF714FA06FB07F10A480068FEF766F80C
:103DB0002060206810B90648801EEDE7E680278164
:103DC0000120A080C9F800400020E5E77C04002025
:103DD000040600029404002010B54FF4DC71094879
:103DE0000068FEF74BF8084908600846006808B903
:103DF000064810BD4FF4DC7103480068FCF7E6F993
:103E00000020F6E7940400207C0400200106000254
:103E10002DE9F04104460D4617464FF000080026F4
:103E200004F13C00FEF744FBA08820F00400A080D1
:103E300004F13C08A08840F40050A0802846FDF71B
:103E400046FF30B100BF41462868FDF7ECFE00BFD9
:103E500014E06868A0F13C0607E0E088F188884239
:103E600000DA06E0306CA0F13C0606F13C00A84206
:103E7000F3D100BF4146F06BFDF7D5FE781C38B199
:103E8000A08840F04000A0803946204600F0C6F9E6
:103E9000BDE8F08170B505466868A0F13C0468682B
:103EA000D0E900121160D0E9002151600021416089
:103EB000016000BFA08820F40050A080207900F0AD
:103EC000400030B1204600F067FCA08820F04000A0
:103ED000A080207900F0020040B9A08840F00400E2
:103EE000A080E18804F13C00FEF7EEFA70BD00000E
:103EF0001020034908600348034908607047000028
:103F000024040020688600209804002010B5FCF7E7
:103F1000E7F810BD70B51148FDF7F2FEA02110487A
:103F20000068FDF7ABFF0F4908600846006808B954
:103F30000D4870BD00240CE00A48006800EB041531
:103F40006C600020287005F108010448FDF7EBFEC5
:103F5000641C0A2CF0D30020EBE700008004002052
:103F60009404002088040020000700022DE9F84393
:103F70000020224908604FF400784146204800683C
:103F8000FDF77CFF044614B91E48BDE8F88341469E
:103F90002046FCF71BF91C4804601C480460002004
:103FA000208125462034012705E027812C60254605
:103FB000781C87B22034102FF7DB0822D021144858
:103FC000FEF7ACF8064616B10E48C01CDDE704202B
:103FD0000023104A102100901846FEF7B9FA064651
:103FE00016B10848001DD0E700F06EF8064616B17D
:103FF0000448401DC9E70020C7E700001004002066
:104000009404002007030002080400200C04002090
:10401000980500200404002010B5002200218379B7
:104020003BB9437913B14379022B02D14369C36091
:1040300001E00369C3600F4B19680AE0CB68C468EC
:10404000A34200D907E0C368CC681B1BC3600A46C3
:1040500009680029F2D100BF016019B1CB68C468BA
:104060001B1BCB6012B9034B186000E010600223E9
:10407000037110BD100400200EB50020029000BF97
:104080004FF0FF33042202A90D480068FEF7F6FA4C
:104090000446002CF4D102980028F1D00298006860
:1040A000009002984068019006480299FDF7E4FFED
:1040B00000980028E4D0DDE900108847E0E7000020
:1040C000040400209805002010B58AB0242101A81E
:1040D000FCF77CF8094801904FF43470079008A071
:1040E00008900020ADF808008020099001A9074839
:1040F000FEF772FE044620460AB010BD7940000863
:104100005377745F5461736B000000002C0400202F
:1041100070B51F48046836E01D49206808601D48D6
:10412000FDF77CFF05467DB1E0692860A069686005
:1041300000230422294618480068FEF737FB18B10F
:1041400029461448FDF798FF6079A0B9204600F091
:1041500025F820894FF6E071884203DA2089103073
:1041600020810EE02089C11700EB11710911A0EB2D
:104170000111218105E0A079401CA0712046FFF7C4
:104180004BFF0348046814B1E0680028C4D070BD38
:104190001004002098050020040400200349096849
:1041A0000160024908600021017170470C04002081
:1041B00010B50748006848B105480068C068401E4F
:1041C00003490968C86008B9FFF7A2FF002010BDC5
:1041D0001004002010B50246002100200E4B186884
:1041E00001E0014600689042FBD103682BB10368EF
:1041F000DB68C46823440468E36019B9064C0368AB
:10420000236001E003680B60002303600123037156
:104210000023837110BD0000100400202DE9F04739
:104220000446884608F01F074FEA581907B101E015
:10423000A9F10109E06C00F0784040EA0900E0646F
:1042400025488088074407F01F07E06C67F3DF60AC
:10425000E0642148006800EBC7067068B04205D1F1
:1042600004F144013046FDF74EFD33E07068A0F1E3
:10427000440500BFE86C20F07840E16C21F0784103
:1042800088420CD8E06C20F07840E96C21F078414D
:10429000401AE16C01F078410843E0640CE0E86CFE
:1042A00020F07840E16C21F07841401AE96C01F08F
:1042B00078410843E86406E0A86CA0F1440505F1E4
:1042C0004400B042D6D100BF04F1440105F14400DE
:1042D000FDF719FDBDE8F087480400202DE9F04105
:1042E000054605EB850000EBC5002349096801EB95
:1042F000C004E06930B1666904F128000FC8B04716
:10430000206204E0666904F128000FC8B0472079F4
:1043100000F0800050B1FBF7D8FE07460020174997
:1043200008803946206900F085F922E0FBF7CDFED0
:1043300007460020114908803846FBF7CEFEFEF7FD
:104340004FFFE06928B1E1694868FEF7D3FB002020
:10435000E061207900F0040038B104F13C00FEF780
:10436000A7F8A08820F00400A080FFF713F8FEF75C
:10437000BBFABDE8F08100001404002020040020F6
:10438000FBF7A1FE00BFFEE770B540480068401C87
:10439000682100FB01F631463D480068FDF76EFDDF
:1043A0003C4908600846006808B93B4870BD314682
:1043B00038480068FBF70AFF3848FDF798FC384892
:1043C000FDF795FC3748FDF792FC002420E0012022
:1043D00004EB840101EBC4012E4A126802EBC10117
:1043E000888004EB840000EBC4002A49096801EBD3
:1043F000C000046104EB840000EBC400254A12688D
:1044000002EBC00000F13C012548FDF77CFC641C78
:104410000F2CDCD924480021016041601B48006852
:1044200000EB800101EBC0001A49096801EBC000F4
:104430001D490860084600680461112009688880E9
:10444000202019490968C880FFF76AFC4FF480767C
:1044500031460F480068FDF711FD05460DB90E48BD
:10446000A4E731462846FBF7B1FE1048056000205E
:104470000E498880002404E02846FDF738FC641CBF
:104480000835202CF8D3002090E7000024040020F9
:1044900094040020140400200002000330040020D3
:1044A00038040020400400201804002048040020A4
:1044B0000146094A126810690F2800D97047074A57
:1044C000126802B1FAE7064A52F82020521A044B49
:1044D00043F8202000BFF1E71804002090040020DA
:1044E0006886002001460B4A126802B970470A4AE2
:1044F000126802B1FAE7074A126810690F2800D95A
:10450000F4E7064A52F820200A44044B43F82020DE
:1045100000BFEBE71804002090040020688600200C
:1045200070B504460D46207900F0040090B104F106
:104530003C00FDF7BDFFA08820F00400A080E580CE
:10454000A08840F00400A080E18804F13C00FDF761
:10455000BBFF00E0E58070BD2DE9F0410027344944
:104560008988481CC11700EBD1614911A0EB4111AA
:104570002F4A9180104600681146898800EBC105DA
:104580006868A84201D1BDE8F0816868A0F14404E0
:1045900043E0A688E06C20F0784018B1E06C401E43
:1045A000E0643EE004F14400FDF759FB06F008002A
:1045B00058B1A08820F00800A08004F13C00FDF76D
:1045C0004EFB0020A061606217E006F4806020B11D
:1045D000A08820F48060A0800FE006F4005040B175
:1045E00004F13C00FDF73BFBA08820F40050A080C4
:1045F00003E0A08820F02000A08006F0020048B967
:10460000A08840F00400A080E18804F13C00FDF7A0
:104610005BFF01276868A0F1440404F14400A8424C
:10462000B7D100BF0FB1FEF75FF900BFABE70000E5
:10463000480400202DE9F04105460F4605EB8500B2
:1046400000EBC5003649096801EBC004A68806F0F6
:10465000040040B104F13C00FDF72AFFA08820F0DF
:104660000400A0800DE042F20800304048B104F19F
:104670003C00FDF7F4FA06F0600010B1204600F0AF
:104680008BF8A08820F00200A080A08840F00100F4
:10469000A0804FF0FF3020650020E065FDF73AFF75
:1046A0003C3820494860207900F0100040B304F104
:1046B0003C011D48FDF727FB1C48006800EB80010A
:1046C00001EBC0001649096801EBC00015490860FC
:1046D000084600680561A088096888801149E0687B
:1046E0000968C8600F49A06B096888630120A08031
:1046F0003846FBF7F2FCFFF709FC0020BDE8F0812B
:10470000207900F0010030B13846FBF7E6FCFFF7F6
:10471000FDFB0020F2E73846FBF7DFFC0020EDE769
:104720001404002018040020400400202404002069
:1047300010B50848D0E900305A1C40F10000054986
:10474000C1E9002000F04CF8FFF706FFFFF730FD4D
:1047500010BD00005804002010B500244FF47A501A
:104760000B49086008460068FEF720FA0848006810
:10477000401E4FF0E021486170200649087000207B
:104780004FF0E021886107200861204610BD00003D
:104790009C04002023ED00E02DE9F0410446E06C8C
:1047A000C70E0E48006800EBC706A06CB0420ED0E2
:1047B000A06CA0F14405E86C20F07840E16C21F099
:1047C00078410844E96C01F078410843E86404F159
:1047D0004400FDF744FABDE8F081000048040020E1
:1047E00010B50F4800680F49096888420BD00D4882
:1047F00000680B4908600846C1880B4800880844D7
:10480000401E07498880064881880748008880B292
:10481000814204D1002002490860FEF7D9FD10BD95
:1048200068040020180400205804002000200249D9
:1048300008600A20C88070476804002030B504462C
:10484000012304E04FF0CA3542F823505B1CB3EB60
:10485000910FF7D34FF0CC3515605518A5F1CC006A
:10486000434D05606D1C45606D1C85606D1CC56009
:104870006D1C05616D1C45616D1C85616D1CC561FC
:104880006D1C05626D1C45626D1C85626D1CC562E8
:104890006D1C05636D1C45636D1C85636D1CC563D4
:1048A0004FF0043505644FF0053545644FF006358B
:1048B00085644FF00735C5644FF0083505654FF046
:1048C000093545654FF0103585654FF01135C565E3
:1048D0000025056644664FF0013585666D00C566A6
:1048E0004FF0033505674FF012354567214D856759
:1048F000214DC5674FF08075C0F880504FF02A45B4
:10490000C0F884506D1CC0F888506D1CC0F88C50E5
:104910006D1CC0F890506D1CC0F894506D1CC0F810
:1049200098506D1CC0F89C506D1CC0F8A0506D1CB8
:10493000C0F8A4506D1CC0F8A8506D1CC0F8AC5055
:104940006D1CC0F8B0506D1CC0F8B4506D1CC0F8A0
:10495000B8506D1CC0F8BC506D1CC0F8C05000258C
:10496000C0F8C450024D6D1CC0F8C85030BD0000E6
:10497000100000AA81430008DD4200082DE9F84339
:1049800006460F46904699460024002515E0002370
:104990003222694617480068FDF770FE044624B1CC
:1049A000214615A0FEF7D2FD08E01BA00099FEF7F6
:1049B000CDFD6D1C0520FEF71FFBE8E700BF02E000
:1049C0000120FEF719FB0B480068FDF7FFFD0028EA
:1049D000F6D116A0FEF7BAFD052D04D10021022064
:1049E000FDF724F803E001210220FDF71FF8002065
:1049F000BDE8F883A804002072656376206D6573B6
:104A000073616765206661696C7572652C65727289
:104A10006F723A25780A000072656376206D6573BF
:104A2000736167653A25730A0000000064656C6570
:104A3000746520746865207175657565207375638C
:104A400063657373210A00002DE9F0470746884625
:104A500091469A4600240025122616E004F1300003
:104A6000C1B2B01E0B4A1154641C002332460949DE
:104A700009480068FDF79AFE05461DB1294607A0C2
:104A8000FEF764FD0520FEF7B7FA052CE6D30020FB
:104A9000BDE8F087AC040020A804002073656E64B4
:104AA000206D657373616765206661696C757265F9
:104AB0002C6572726F723A25780A00000024F400A7
:104AC000E8030000000000004578616D706C655FD0
:104AD00053656D5461736B312074696D656F7574C6
:104AE00020616E6420747279206765742073656D2F
:104AF00020675F757353656D494420776169742041
:104B0000666F72657665722E0A0000003C4B0008E5
:104B10000000002000040000440200085C4B000874
:104B2000000400209801000044020008E84B00083F
:104B300098050020788700007C3500084122410C50
:104B40001008D338040110A9181AEB340B109B3449
:104B50002401FF01FF01FF01B300000001AC0012BE
:104B60003474657374206973206D65737361676550
:104B7000207822FF132D1146085441534B1A01107F
:104B8000139D0C37084556454E542A0220120555F0
:104B9000084D53471A031013450B550853454D1A3A
:104BA00004101B4D062035555445581A05101B5549
:104BB00004202659535449431A06101B3D146035EE
:104BC000494D45521A071013A9122D084C49535F3D
:104BD000111A08101BF10D303B5F4D522A0980124B
:084BE000025B08441081000093
:040000050800005D92
:00000001FF
