:020000040800F2
:10000000B0340020650100086D0100086F01000890
:10001000710100087301000875010008000000006C
:100020000000000000000000000000007701000850
:100030007901000800000000F3020008C93A000836
:100040007F0100087F0100087F0100087F01000890
:100050007F0100087F0100087F0100087F01000880
:100060007F0100087F0100087F0100087F01000870
:100070007F0100087F0100087F0100087F01000860
:100080007F0100087F0100087F0100087F01000850
:100090007F0100087F0100087F0100087F01000840
:1000A0007F0100087F0100087F0100087F01000830
:1000B0007F0100087F0100087F0100087F01000820
:1000C0007F0100087F0100087F0100087F01000810
:1000D0007F0100087F0100087F0100087F01000800
:1000E0007F0100087F0100087F0100087F010008F0
:1000F0007F010008DFF80CD000F0A8F800480047A6
:100100002D400008B0340020124C134D25601348D8
:100110004FF0010101604FF0020080F31488104895
:1001200042680F4802600E4B186887884FF010082D
:1001300047EA08078780D0F800C00CF1240CBCE81F
:10014000FF008CF30988AE4687F3038862B6304718
:1001500000BF000020ED00E00000F0F050000020A3
:10016000180000200648804706480047FEE7FEE7E3
:10017000FEE7FEE7FEE7FEE7FEE7FEE7FEE7FEE757
:10018000D13A0008F50000082DE9F05F054600208F
:1001900092469B4688460646814640241BE02846F8
:1001A00041464746224600F041F853465A46C01A97
:1001B000914110D311461846224600F028F82D1A16
:1001C00067EB01084F4622460120002100F01FF88E
:1001D00017EB00094E41201EA4F10104DFDC484664
:1001E00031462A464346BDE8F09FD2B201E000F80E
:1001F000012B491EFBD270470022F6E710B51346CB
:100200000A4604461946FFF7F0FF204610BD202A93
:1002100004DB203A00FA02F1002070479140C2F15D
:10022000200320FA03F3194390407047202A04DB8F
:10023000203A21FA02F00021704721FA02F3D0405F
:10024000C2F120029140084319467047064C074D01
:1002500006E0E06840F0010394E807009847103496
:10026000AC42F6D3FFF74AFF6C5200088C520008EC
:1002700070B58C1810F8015B15F0070301D110F868
:10028000013B2A1106D110F8012B03E010F8016B95
:1002900001F8016B5B1EF9D12B0705D40023521E18
:1002A0000DD401F8013BFAE710F8013BCB1A921C80
:1002B00003E013F8015B01F8015B521EF9D5A1427E
:1002C000D8D3002070BD0000EFF30580704772B6F0
:1002D0007047EFF3108072B67047EFF3108062B68C
:1002E000704780F31088704716484FF080510160C6
:1002F0007047EFF3108C72B6134A12681AB100B54A
:1003000090475DF804EBEFF3098020E9F01F0F4DF3
:100310002E683060B7884FF0100827EA0807B780CA
:100320000A484068286087884FF0100847EA0807A5
:1003300087800168B1E8F01F81F309888CF3108889
:10034000704700BF04ED00E05400002018000020BA
:1003500070B500244FF420511F48006802F021F8C6
:1003600005461DB91DA003F07FFC04E020A003F0AA
:100370007BFC012070BD04211748006801F094FF48
:10038000044624B920A003F06FFC0120F2E723A06B
:1003900003F06AFC4FF44F70206024A0216803F042
:1003A00063FC21460C48006801F0D1FF05463DB9C9
:1003B00022A003F059FC0021092001F047FD08E0CC
:1003C00022A003F051FC0121092001F03FFD012092
:1003D000D0E70020CEE700008C0000206D656D7036
:1003E0006F6F6C20696E6974206F6B210A000000CA
:1003F0006D656D706F6F6C20696E697420666169E0
:100400006C6564210A0000006D656D20616C6C6F85
:1004100063206661696C6564210A00006D656D206A
:10042000616C6C6F63206F6B0A0000002A705F6E56
:10043000756D203D2025640A000000006D656D206B
:1004400066726565206F6B210A0000006D656D2086
:1004500066726565206661696C6564210A0000004A
:1004600010B501210EA003F0FFFB6423042201213B
:10047000134801F00FFB0446012C08D1214611A0BE
:1004800003F0F2FB0021012001F0E0FC06E015A0E2
:1004900003F0EAFB0121084601F0D8FC10BD000082
:1004A0004578616D706C655F4576656E7420776127
:1004B0006974206576656E742030782578200A008E
:1004C0004C2E00204578616D706C655F4576656ED9
:1004D000742C72656164206576656E74203A30789C
:1004E00025780A004578616D706C655F4576656EAC
:1004F000742C72656164206576656E742074696D14
:10050000656F75740A0000002DE9F04101F000FAF2
:100510008046B8F1000F03D041461BA003F0A4FBB6
:1005200003F0A8F904460D460022134662406B40D2
:100530001A4303D021461BA003F096FBC82002F00B
:100540006BFF03F097F90F460646002211467240F2
:1005500079400A4303D0314618A003F085FB321BD3
:1005600067EB0500C83A70F1000006D300210520B2
:1005700001F06CFC0020BDE8F0810121052001F0B4
:1005800065FC0120F7E700004C4F535F4379636C33
:10059000655065725469636B476574203D2025641E
:1005A000200A00004C4F535F5469636B436F756EB4
:1005B00074476574203D202564200A004C4F535F2A
:1005C0005469636B436F756E74476574206166741C
:1005D00065722064656C6179203D202564200A00E5
:1005E00010B58CB000241F4801900920ADF8080018
:1005F0004FF4007007901CA008908020099002F032
:10060000FFFF01A90BA802F0F7FD044634B1214613
:1006100018A003F029FB20460CB010BD1D48019026
:1006200001A90AA802F0E8FD04462CB121461AA04F
:1006300003F01AFB2046EFE7182000231E4A05218D
:1006400000901EA002F09AF904461CB121461DA09C
:1006500003F00AFB23A003F007FB03F0ABF8002034
:10066000DAE700001151000873656E645175657515
:1006700065000000637265617465207461736B319D
:10068000206661696C6564212C6572726F723A250F
:10069000780A000045500008637265617465207433
:1006A00061736B32206661696C6564212C657272BE
:1006B0006F723A25780A0000D800002071756575C0
:1006C000650000006372656174652071756575650C
:1006D000206661696C757265212C6572726F723A61
:1006E00025780A00637265617465207468652071FD
:1006F000756575652073756363657373210A000002
:1007000010B592B02C4801F05FFF02F079FF242170
:1007100009A8FFF771FD2948099029A010904FF40E
:1007200034700F900520ADF8280009A9274802F081
:1007300063FD04462CB126A003F096FA012012B006
:1007400010BD24216846FFF757FD2748009027A0D9
:1007500007904FF4347006900420ADF80400694609
:10076000254802F049FD044624B124A003F07CFA98
:100770000120E4E703F01EF84FF4967002F04CFEFF
:100780000D48006801F052FF1048006802F084FE36
:10079000044624B11FA003F067FA0120CFE71648F2
:1007A000006802F079FE044624B120A003F05CFA50
:1007B0000120C4E70020C2E7F0000020450800083F
:1007C0004D7574657854736B31000000F40000209F
:1007D0007461736B31206372656174652066616951
:1007E0006C6564202E0A00005D0900084D75746573
:1007F0007854736B32000000F80000207461736B52
:100800003220637265617465206661696C6564207D
:100810002E0A00007461736B312064656C65746529
:10082000206661696C6564202E0A00007461736B38
:10083000322064656C657465206661696C6564204E
:100840002E0A000010B517A003F00EFA0A211F4867
:10085000006801F01FFF04463CB91DA003F004FA34
:100860001A48006801F0BAFF10BD2148844216D131
:1008700020A003F0F9F94FF0FF311448006801F0AF
:1008800009FF04465CB928A003F0EEF90F480068A0
:1008900001F0A4FF0021042001F0D8FAE4E700BF32
:1008A000E2E700007461736B312074727920746F19
:1008B00020676574206D757465782C207761697484
:1008C000203130205469636B2E0A0000F0000020B4
:1008D0007461736B3120676574206D757465782061
:1008E000675F546573746D757830312E0A000000AF
:1008F000071D00027461736B312074696D656F753B
:100900007420616E642074727920746F206765743E
:1009100020206D757465782C207761697420666F6E
:1009200072657665722E0A007461736B312077618F
:10093000697420666F72657665722C676F74206DBE
:100940007574657820675F546573746D75783031A0
:1009500020737563636573732E0A000010B50FA0D2
:1009600003F082F94FF0FF311648006801F092FE63
:1009700004461CB114A003F077F910BD19A003F0D0
:1009800073F9642002F048FD23A003F06DF90D48CF
:10099000006801F023FF00BFEFE700007461736B94
:1009A000322074727920746F20676574206D7574BD
:1009B00065782C207761697420666F726576657240
:1009C0002E0A0000F00000207461736B32204C4F3F
:1009D000535F4D757850656E64206661696C65641F
:1009E000202E0A007461736B3220676574206D7568
:1009F00074657820675F546573746D757830312045
:100A0000616E642073757370656E642031303020C0
:100A10005469636B2E0A00007461736B3220726537
:100A200073756D656420616E6420706F73742074DB
:100A3000686520675F546573746D757830310A009E
:100A400010B515A003F010F90A212248006802F041
:100A5000E7F9044624B91F48006802F061FA10BDA6
:100A60001D48844216D11D4803F0FEF84FF0FF31B7
:100A70001848006802F0D4F904465CB918A003F0E5
:100A8000F3F81448006802F04BFA0021032001F04B
:100A9000DDF9E4E700BFE2E74578616D706C655F02
:100AA00053656D5461736B3120747279206765747E
:100AB0002073656D20675F757353656D4944202C05
:100AC00074696D656F7574203130207469636B7360
:100AD0002E0A000004010020070700022852000827
:100AE0004578616D706C655F53656D5461736B31F2
:100AF00020776169745F666F726576657220616EDA
:100B00006420676F742073656D20675F757353652C
:100B10006D494420737563636573732E0A0000008A
:100B200010B50CA003F0A0F84FF0FF311748006893
:100B300002F076F9044614B915A003F095F81420D4
:100B400002F06AFC22A003F08FF81048006802F05F
:100B5000E7F910BD4578616D706C655F53656D5444
:100B600061736B3220747279206765742073656DD0
:100B700020675F757353656D494420776169742000
:100B8000666F72657665722E0A000000040100200F
:100B90004578616D706C655F53656D5461736B3240
:100BA000206765742073656D20675F757353656D8D
:100BB000494420616E64207468656E2064656C61D0
:100BC000792032307469636B73202E0A00000000B4
:100BD0004578616D706C655F53656D5461736B3200
:100BE00020706F73742073656D20675F7573536534
:100BF0006D4944202E0A000010B592B000243149FE
:100C0000002002F0A7F802F0FBFC242109A8FFF75E
:100C1000F3FA2D4809902DA010904FF440700F90DA
:100C20000520ADF8280009A92B4802F0E5FA044692
:100C30002CB12AA003F018F8012012B010BD242115
:100C40006846FFF7D9FA2B4800902BA007904FF485
:100C5000407006900420ADF804006946294802F06F
:100C6000CBFA044664B128A002F0FEFF1A480068DF
:100C700002F012FC10B12AA002F0F6FF0120DCE71E
:100C800002F098FD0F48006802F04AF90446282057
:100C900002F0C2FB0B48006802F092F80E480068B0
:100CA00002F0FAFB18B11EA002F0DEFF0124154885
:100CB000006802F0F1FB18B11FA002F0D5FF01247B
:100CC0002046BAE704010020410A00084D7574650A
:100CD0007854736B31000000FC0000207461736B6A
:100CE0003120637265617465206661696C6564209A
:100CF0002E0A0000210B00084D7574657854736B43
:100D000032000000000100207461736B32206372B6
:100D100065617465206661696C6564202E0A000057
:100D20007461736B312064656C65746520666169FC
:100D30006C6564202E0A00007461736B3220646558
:100D40006C657465206661696C6564202E0A00001C
:100D500010B58AB0274800F067FE04462CB126A0E3
:100D600002F082FF01200AB010BD242101A8FFF784
:100D700043FA2748019027A008904FF43470079059
:100D80000520ADF8080001A9254802F035FA04460F
:100D900024B124A002F068FF0120E4E727A002F0BC
:100DA00063FF0121134800F023FF044624B12DA066
:100DB00002F05AFF0120D6E70E4801682FA002F08A
:100DC00053FF0C480068C1430A4800F019FE094867
:100DD00001682AA002F048FF1148006802F05CFB9D
:100DE000044624B129A002F03FFF0120BBE7002008
:100DF000B9E700004C2E0020696E697420657665A5
:100E00006E74206661696C6564202E0A0000000023
:100E1000610400084576656E7454736B3100000000
:100E2000D00000207461736B20637265617465206B
:100E30006661696C6564202E0A0000004578616D6A
:100E4000706C655F5461736B456E7472795F457643
:100E5000656E74207772697465206576656E74209E
:100E60002E0A00006576656E7420777269746520BD
:100E70006661696C6564202E0A0000004576656E27
:100E8000744D61736B3A25640A0000007461736BE2
:100E90002064656C657465206661696C6564202EEC
:100EA0000A0000002DE9F0410024032632273246D3
:100EB0003946204801F048FB05462DB11EA002F03E
:100EC000D3FE0120BDE8F08121A002F0CDFE19483B
:100ED00001F0BAFA044624B922A002F0C5FE0120AE
:100EE000F0E726A002F0C0FE4FF44F70206028A06B
:100EF000216802F0B9FE21460E4801F0C5FA28A08B
:100F0000216802F0B1FE21460A4801F0CBFA0546FD
:100F10003DB92AA002F0A8FE0021082000F096FFAB
:100F200006E02BA002F0A0FE0121082000F08EFFB9
:100F30000020C7E7582E00204D656D20626F782095
:100F4000696E6974206661696C65640A000000005E
:100F50004D656D20626F7820696E6974206F6B211A
:100F60000A0000004D656D20626F7820616C6C6F27
:100F700063206661696C6564210A00004D656D201F
:100F8000626F7820616C6C6F63206F6B0A000000E9
:100F90002A705F6E756D203D2025640A00000000F8
:100FA000636C6561722064617461206F6B0A202A32
:100FB000705F6E756D203D2025640A004D656D20C3
:100FC000626F782066726565206F6B210A000000F1
:100FD0004D656D20626F7820667265652066616977
:100FE0006C6564210A00000010B519A002F03CFEF7
:100FF000052002F011FA044624B11BA002F034FED1
:10100000012010BD1EA002F02FFE2548006802F04E
:101010005FFB044644B123A002F026FE012100201C
:1010200000F014FF0120ECE725A002F01DFE0021D6
:10103000084600F00BFF1A48006802F02DFA20B1B4
:1010400028A002F011FE0120DBE70020D9E7000014
:10105000456E746572205461736B48692048616EF7
:10106000646C65722E0D0A0044656C6179205461D0
:10107000736B204661696C65642E0D0A00000000E8
:101080005461736B4869204C4F535F5461736B44D8
:10109000656C617920446F6E652E0D0A00000000BA
:1010A0000801002053757370656E64205461736B82
:1010B0004869204661696C65642E0D0A00000000D5
:1010C0005461736B4869204C4F535F5461736B528A
:1010D0006573756D6520537563636573732E0D0AB3
:1010E000000000005461736B48692064656C65748E
:1010F00065206661696C6564202E0A0010B515A034
:1011000002F0B2FD0A2002F087F9044624B117A0CC
:1011100002F0AAFD012010BD1AA002F0A5FD224890
:10112000006802F07DFA044644B120A002F09CFD64
:101130000121002000F08AFE0120ECE72148006830
:1011400002F0AAF920B120A002F08EFD0120E2E712
:101150000020E0E7456E746572205461736B4C6F3C
:101160002048616E646C65722E0D0A0044656C61E6
:1011700079205461736B4C6F204661696C65642EF5
:101180000D0A00005461736B4869204C4F535F5443
:1011900061736B53757370656E642053756363651B
:1011A00073732E0D0A00000008010020526573754C
:1011B0006D65205461736B4869204661696C656494
:1011C0002E0D0A000C0100205461736B4C6F2064DB
:1011D000656C657465206661696C6564202E0A0023
:1011E00010B58AB002F00CFA23A002F03DFD2948A8
:1011F00001900420ADF8080027A008904FF400707B
:1012000007908020099001A9264801F0F5FF0446C7
:101210003CB102F0CFFA24A002F026FD01200AB072
:1012200010BD29A002F020FD304801900520ADF846
:1012300008002FA008904FF40070079080200990BC
:1012400001A92E4801F0D8FF044674B11548006882
:1012500002F022F910B12AA002F006FD02F0AAFA6B
:101260002DA002F001FD0120D9E733A002F0FCFC23
:1012700002F0A0FA2046D2E74C4F535F5461736BE3
:101280004C6F636B28292053756363657373210D5D
:101290000A000000E90F0008484947485F4E414DE9
:1012A00045000000080100204578616D706C655FA5
:1012B0005461736B4869206372656174652046618F
:1012C000696C6564210D0A004578616D706C655F1D
:1012D0005461736B4869206372656174652053754E
:1012E0006363657373210D0A00000000FD100008A0
:1012F0004C4F575F4E414D45000000000C0100204F
:101300005461736B48692064656C6574652066611F
:10131000696C6564202E0A004578616D706C655FAC
:101320005461736B4C6F2063726561746520466114
:10133000696C6564210D0A004578616D706C655FAC
:101340005461736B4C6F20637265617465205375D3
:101350006363657373210D0A000000002DE9F041FD
:1013600038A002F081FC08213A48006800F09CFF98
:10137000044620464060006000BF00BF41688142D3
:1013800001D1012100E0002129B933A002F06CFC59
:101390000120BDE8F08134A002F066FC08212D4850
:1013A000006800F081FF054608212A48006800F027
:1013B0007BFF064608212748006800F075FF0746B6
:1013C0002946204600F05AFE3146284600F056FED7
:1013D0002868A04202D03068A84202D12AA002F0B8
:1013E00043FC00BF3946206800F048FE00BF386863
:1013F000B04202D129A002F037FC2DA002F034FC4B
:1014000000BFD5E900010860D5E900104860002060
:101410006860286000BF284602F0E0FD6068B042C6
:1014200007D128A002F020FC0021072000F00EFDCB
:1014300006E02AA002F018FC0121072000F006FDBA
:101440000020A6E7696E697469616C2E2E2E2E2E1F
:101450002E0A00008C000020696E697469616C209E
:101460006661696C65640A006E6F6465206164641E
:1014700020616E64207461696C206164642E2E2E7C
:101480002E2E2E0A00000000616464206E6F6465D9
:1014900020737563636573730A00000061646420E0
:1014A0007461696C20737563636573730A0000006F
:1014B00064656C657465206E6F64652E2E2E2E2E0D
:1014C0002E0A000064656C657465206E6F6465208B
:1014D000737563636573730A0000000064656C656F
:1014E0007465206E6F6465206572726F720A000009
:1014F0000EB5012002AB234A002100904FF47A7010
:1015000001F076FD012001AB1F4A014600906420E6
:1015100001F06EFD1DA002F0A7FBBDF8080001F070
:10152000EDFD20A002F0A0FBC82001F075FFBDF882
:10153000080001F023FE21A002F096FBBDF8080090
:1015400001F0DCFD4FF47A7001F066FFBDF8080091
:1015500001F094FD1EA002F087FBBDF8040001F02D
:10156000CDFD21A002F080FB4FF47A7001F054FF12
:10157000BDF8040001F002FEBDF8040001F07EFD9C
:1015800000200EBD393B0008893B0008637265618D
:1015900074652054696D657231207375636365737A
:1015A000730A000073746172742054696D6572313E
:1015B000207375636573730A0000000073746F70A5
:1015C0002054696D657231207375636573730A0009
:1015D00064656C6574652054696D6572312073753E
:1015E000636573730A000000737461727420546938
:1015F0006D6572320A0000002DE9F04102460025B7
:101600000026002000230024002791F803C00CF0DE
:101610000F0591F803C00CF0100CBCF1000F03D0C3
:1016200091F802C04CEA050591F800C0BCF1000F2A
:1016300031D0146800202BE04FF0010C0CFA00F3BD
:10164000B1F800C00CEA03069E4220D183004FF09F
:101650000F0C0CFA03F7BC4305FA03FC4CEA040434
:1016600091F803C0BCF1280F06D14FF0010C0CFA21
:1016700000FCC2F814C00AE091F803C0BCF1480FA6
:1016800005D14FF0010C0CFA00FCC2F810C0401C50
:101690000828D1D31460B1F800C0BCF1FF0F34DDCD
:1016A000546800202EE000F1080C4FF0010808FA01
:1016B0000CF3B1F800C00CEA03069E4221D183006E
:1016C0004FF00F0C0CFA03F7BC4305FA03FC4CEA8D
:1016D000040491F803C0BCF1280F05D100F1080CF7
:1016E00008FA0CF8C2F8148091F803C0BCF1480F56
:1016F00007D100F1080C4FF0010808FA0CF8C2F805
:101700001080401C0828CED35460BDE8F081000052
:10171000F0B502460023002400200025144E706816
:10172000C2F3034593B202F44016B6F5401F05D14B
:1017300000BF0F4E76680E4F7E600FE002F48016F9
:10174000B6F5801F04D1032606FA05F4A04305E090
:10175000560D360103FA06F6B04300BF21B1560D0F
:10176000360103FA06F63043014E7060F0BD00000A
:10177000000001400246002093680B400BB101209D
:1017800000E00020704701617047000008B50121AA
:10179000142002F093F801211148FFF7B9FF4FF42C
:1017A0008060ADF8000048208DF8030069460D48C0
:1017B000FFF722FF4FF40040ADF8000048208DF8FD
:1017C000030069460848FFF717FF0120ADF8000045
:1017D00028208DF8030069460348FFF70DFF08BD78
:1017E00000023000001001400008014010B504461E
:1017F00014B10120264908702548007878B34FF4C9
:1018000080612448FFF7B6FF58B14FF400412248E9
:10181000FFF7B0FF28B101211F48FFF7ABFF0128F8
:101820001ED11E4802F0AEFB0020194908704FF48B
:1018300080611848FFF79EFF08B9012010BD4FF4E2
:1018400000411548FFF796FF08B90220F6E701218D
:101850001148FFF78FFF012817D10320EEE7FFE7BC
:101860004FF480610B48FFF785FF01280DD1C103BC
:101870000948FFF77FFF012807D101210648FFF73C
:1018800079FF10B90120024908700020D6E7000056
:10189000A00000200010014000080140A0860100C7
:1018A00008B50121142002F009F84FF48070ADF85A
:1018B000000010208DF8030003208DF80200694617
:1018C0000A48FFF799FE4FF480710848FFF75BFF65
:1018D0004FF40050ADF8000069460548FFF78CFE54
:1018E0004FF400510248FFF74EFF08BD00080140C9
:1018F0000010014002465018401E904204D9501872
:10190000401E4B1E98437047481E22EA0000FAE72B
:101910004FF47A50704710B5024614462046002313
:1019200005E001464960096000BF5B1C08301B2BC5
:10193000F7D310BD2DE9F04105460E462F4630463F
:1019400000F010FC04461E2C02D90020BDE8F081F6
:10195000042C00D80424201F07EBC000F6E710B5C4
:1019600003F0BAFA04460CB1204610BD2046FCE74D
:1019700070B505464FF0FF340120FFF737FF0446EE
:10198000204670BD10B5FFF701FF10BD20B1012842
:101990000CD0022815D113E0012903D100220A4BF3
:1019A0001A6002E00122084B1A600BE0012903D102
:1019B0000022064B1A6002E00122044B1A6001E08B
:1019C00000E000BF00BF7047B4012242A0012142E5
:1019D00010B5FFF765FF10BD10B500F005F8FFF773
:1019E000F7FFFFF7CFFF10BD10B54FF4165003F00F
:1019F000D7FB10BD10B50446204603F0C3FB10BD55
:101A000070B504460D460CB9064870BDFEF761FC82
:101A100006462068284020603046FEF762FC002021
:101A2000F3E70000061C0002014609B904487047AC
:101A300000200860081D4060006000BF0020F6E73D
:101A4000061C00022DE9F04104460D46164600270B
:101A5000FEF73FFC804606F0020030B120682840C7
:101A600058B1206800EA050707E035B12068284032
:101A7000A84202D1206800EA05072FB106F0010054
:101A800010B12068B84320604046FEF72AFC384673
:101A9000BDE8F0812DE9F05F8146884616461F4675
:101AA0004FF0000AB9F1000F02D14D48BDE8F09F98
:101AB000B8F1000F02D14A48001FF7E708F00070A4
:101AC00010B14748801FF1E706F0020010B106F0A0
:101AD000040028B926F0070010B906F0060010B976
:101AE0003F48801EE2E73F48006810B13C48C01EF6
:101AF000DCE7FEF7EEFB8346324641464846FFF7F9
:101B0000A1FF8246BAF1000F64D127B95846FEF70B
:101B1000E8FB5046CAE73448008828B15846FEF72B
:101B2000E0FB2F48401EC1E73048046804F13C0048
:101B300000F0D4FEA08820F00400A08004F13C0551
:101B4000A08840F00800A080C4F85C80266600BF32
:101B5000D9F8040041686960286041680D604560FB
:101B600000BF00BF7FB1781C68B1A08840F0400082
:101B7000A0803946204602F011FF5846FEF7B1FB1F
:101B800001F0C8F808E0A08820F04000A080584686
:101B9000FEF7A7FB01F0BEF8207900F0400060B12D
:101BA000FEF797FB8346A08820F04000A0805846AF
:101BB000FEF797FB0A48401F78E7FEF78AFB83464B
:101BC000324641464846FFF73DFF82465846FEF7FB
:101BD00088FB02E05846FEF784FB504666E70000AB
:101BE000061C0002980000202000002018000020A1
:101BF0002DE9F04705460E460027B84615B9394885
:101C0000BDE8F08706F0007010B13648801FF7E796
:101C1000FEF75FFB8146286830432860281D416835
:101C2000814201D1012100E00021002955D1A8689D
:101C3000A0F13C043FE0206CA0F13C0794F8600068
:101C400000F0020010B1E06D304050B994F860002F
:101C500000F0040070B3E06D29680840E16D88422F
:101C600028D14FF0010800BFD4E90F010860D4E982
:101C70000F10486000202064E06300BFA08820F0BF
:101C80000800A080207900F0400030B1204603F029
:101C900043F9A08820F04000A080207900F00200E5
:101CA00040B9A08840F00400A080E18804F13C0025
:101CB00000F020FE3C4604F13C00291D8842BAD1C8
:101CC000B8F1010F05D14846FEF70BFB01F022F8F1
:101CD00006E04846FEF705FB02E04846FEF701FB3A
:101CE00000208DE7061C00022DE9F0410546002783
:101CF000FF260A2D06DB29462EA001F0B5FF0120A4
:101D0000BDE8F081002449E0314800EB0410007880
:101D1000A84242D12E4800EB0410406828B9294659
:101D20002CA001F0A1FF0120EAE7294901EB0411F1
:101D300048688047074600BF254800EB04104078FC
:101D400050B94FB9224800EB041000F108012DA052
:101D500001F08AFF002610E01D4800EB04104078D7
:101D600001280AD101261A4800EB041000F10801ED
:101D70002A4802682AA001F077FF642001F04CFB9A
:101D8000134800EB04104078FF28D5D0104800EB32
:101D900004104078B042CFD102E0641C0A2CB3D3C7
:101DA00000BF0A2C01D10120AAE70EB10120A7E74C
:101DB0000020A5E70D0A496E7370656374494420DD
:101DC0003D205B25645D204572722E0D0A000000E7
:101DD00020010020496E73706563744944203D20E2
:101DE0005B25645D204572722C496E737065637467
:101DF00066756E63206973204E554C4C2E0D0A0D8E
:101E00000A000000496E73706563742025732073A7
:101E10007563636573730D0A0D0A000018010020D5
:101E2000496E7370656374202573206572726F72DA
:101E30002C67496E7370656374457272436E7420CB
:101E40003D205B25645D0D0A0D0A000070B5054656
:101E50000E4600240A2D05DB29460CA001F004FFE4
:101E6000012070BD00240AE00F4800EB0410007848
:101E7000A84203D10C4800EB04104670641C0A2CE5
:101E8000F2D301D10120ECE70020EAE70D0A496E08
:101E900073706563744944203D205B25645D204573
:101EA00072722E0D0A0000002001002010B58AB0C9
:101EB000242101A8FEF7A0F9094801904FF44070D1
:101EC000079008A008900920ADF8080001A908486B
:101ED00001F092F904460CB10AB010BD00BFFBE757
:101EE000591F0008496E737065637454736B00006A
:101EF0001C01002070B505460C462846FFF738FD4A
:101F0000C8B9322001F088FA2846FFF731FD68B9D8
:101F100001212046FFF73AFD09A001F0A5FE00BF10
:101F20002846FFF725FD0028FAD008E000212046CA
:101F3000FFF72CFD03E000212046FFF727FD70BDD1
:101F40000D0A4B65792074657374206578616D7036
:101F50006C65200D0A000000002500201249086071
:101F600012A001F081FE00240EE0E0B2FFF7BCFEFB
:101F7000054645B10C480068401C0B49086001212A
:101F80000846FFF703FD641C0A2CEEDB06480168D7
:101F90000CA001F069FE16A001F066FE03E000212E
:101FA0000120FFF7A7FFFAE7180100200D0A4C6F88
:101FB0007320496E73706563742073746172742E3C
:101FC0000D0A0000496E737065637420636F6D7055
:101FD0006C657465642C67496E73706563744572D3
:101FE00072436E74203D205B25645D0D0A0D0A006E
:101FF0000D0A4C6F73204B6579206578616D706CAC
:10200000653A20706C65617365207072657373202A
:1020100074686520557365724B6579206B6579200E
:102020000D0A000010B502F059F804460CB1012069
:1020300010BD0020FCE742684A60086042681160F9
:102040004160704742684A600860426811604160C0
:10205000704742684A60086042681160416070479A
:1020600042684A6008604268116041607047426897
:102070004A600860426811604160704742684A6087
:1020800008604268116041607047D0E90012116039
:10209000D0E9002151600021416001607047D0E922
:1020A00000121160D0E900215160002141600160FF
:1020B0007047D0E900121160D0E900215160002181
:1020C000416001607047D0E900121160D0E9002141
:1020D00051600021416001607047014648688842B4
:1020E00001D1012070470020FCE701464868884282
:1020F00001D1012070470020FCE701464868884272
:1021000001D1012070470020FCE701464868884261
:1021100001D1012070470020FCE74060006070475B
:102120004060006070474060006070474060006041
:10213000704770B504460D4629462068FFF77BFFBF
:1021400070BD70B504460D4629462068FFF77AFF3A
:1021500070BD70B504460D4629462068FFF780FF24
:1021600070BD0000014601F0004010B16FF07040FA
:1021700070474C480840002847D001F0FE40F8B1B5
:1021800001F0E04058B101F0804008B11E20EFE7B7
:1021900001F0005008B11D20EAE71C20E8E701F03B
:1021A000406030B101F0006008B11B20E0E71A2068
:1021B000DEE701F0007008B11920D9E71820D7E751
:1021C00001F4700080B101F4400030B101F400006E
:1021D00008B11720CCE71620CAE701F4001008B1B7
:1021E0001520C5E71420C3E701F4402030B101F405
:1021F000002008B11320BBE71220B9E701F400303A
:1022000008B11120B4E71020B2E701F47F4020B3F9
:1022100001F4704080B101F4404030B101F400405D
:1022200008B10F20A4E70E20A2E701F4005008B186
:102230000D209DE70C209BE701F4406030B101F4D4
:10224000006008B10B2093E70A2091E701F40070C9
:1022500008B109208CE708208AE701F0F00080B17E
:1022600001F0C00030B101F0800008B107207FE725
:1022700006207DE701F0200008B1052078E7042062
:1022800076E701F00C0030B101F0080008B103203E
:102290006EE702206CE701F0020008B1012067E759
:1022A000002065E70000FF7F2DE9F04105460C4660
:1022B0000026FEF70EF8074600BF05B104B909E095
:1022C00004F0004000B105E02146284601F03EFF41
:1022D000064600BF00BF3846FEF703F83046BDE8AB
:1022E000F0812DE9F05F80460F4614464FF000095B
:1022F000CA4600250026FDF7ECFF834600BFB8F173
:10230000000F00D007B91BE0381900F1040909F0EB
:10231000004000B114E04946404601F017FF054671
:102320002819401E611E20EA0106B54200D107E0CF
:10233000A6EB050A4AF0804A46F804AC354600BFD1
:1023400000BF5846FDF7CDFF2846BDE8F09F2DE9B8
:10235000F04705460C4601270026FDF7BAFF8146E7
:1023600000BFB04605B104B914E054F8046C06F09F
:10237000804010B126F08046A41BA4F1100841460D
:10238000284601F011FF07461FB92946404601F0D3
:102390007FFF00BF00BF4846FDF7A3FF3846BDE8FA
:1023A000F0872DE9F04704468846002500270026DF
:1023B000A94614B1B8F1FF0F03D84FF0FF30BDE8C4
:1023C000F087FDF786FF8246264634463660C6F81B
:1023D000048004F10800FFF79EFA04F1E005281BD1
:1023E000A8EB00001038E8600020A86004F10800A5
:1023F000E968FFF79FFA8146B9F1000F05D1504611
:10240000FDF76FFF4FF0FF30D9E700BF2946D9F83D
:102410000000FFF72CFE00BF04EB0800A0F110073E
:10242000002038607860B860F860BD601020F86007
:10243000F86840F00040F860384601F0B3FF5046BD
:10244000FDF74FFF0020BAE72DE9F04105462F4682
:102450000026002415B90020BDE8F081FDF739FF02
:10246000804607F10806306820B134682068306083
:10247000044820604046FDF734FF0CB90020EBE72C
:10248000201DE9E7A55A5AA570B504460D46264613
:1024900004B105B970BD3068011F2846FDF7ACFED8
:1024A00000BFF7E72DE9F04705460E462C46012709
:1024B00005B116B90120BDE8F087FDF70AFF804697
:1024C00000BF311F20460A46D0F800C0BCF1000F03
:1024D00002D14FF0010C25E000F10C0CA2EB0C0333
:1024E000D0F800C0B3FBFCF90CFB193CBCF1000FA9
:1024F00002D04FF0010C15E0D0F800C0B3FBFCFC9B
:10250000D0F80490CC4502D34FF0010C0AE0DFF87C
:102510003490D2F800C0CC4502D04FF0010C01E05D
:102520004FF0000CBCF1000F00D004E0A068086080
:10253000A160002700BF00BF4046FDF7D2FE38462D
:10254000B9E70000A55A5AA52DE9F04706460F46FF
:1025500090463446002516B90120BDE8F087B8F151
:10256000000F01D10120F8E70C2F01D20120F4E780
:10257000FDF7AFFE824608F1070020F0030020605F
:10258000A7F10C002168B0FBF1F06060606820B931
:102590005046FDF7A6FE0120DFE704F10C05A5601B
:1025A0004FF0000905E02068284428602D6809F1F3
:1025B00001096068401E4845F5D800202860504653
:1025C000FDF78FFE0020C8E72DE9F041054615B95B
:1025D0001448BDE8F081FDF77CFE07461248FFF77E
:1025E00084FD28B13846FDF77CFE0E48401CF0E71C
:1025F0000D4846683046FFF752FDA6F1080400205A
:102600006080012020700020A082206104F1080079
:10261000FFF786FD606828603846FDF762FE0020FF
:10262000D7E70000021D00027400002070B50546C7
:1026300005EB45001449096801EBC004FDF749FEAC
:1026400006460A2D01D2207820B93046FDF749FE12
:102650000E4870BD04F10800FFF747FD08B160881F
:1026600028B13046FDF73DFE08480830F1E704F197
:1026700008010748FFF7E6FC002020703046FDF710
:1026800030FE0020E5E7000070000020011D000280
:10269000740000202DE9F04706460F4606EB460081
:1026A0004949096801EBC005FDF713FE82460A2E71
:1026B00001D2287828B95046FDF713FE4348BDE8FB
:1026C000F0874348006828B15046FDF70AFE3F48AE
:1026D000001DF4E73F480468688850B96888401CCA
:1026E00068802C61E088A8825046FDF7FAFD002042
:1026F000E5E72869A04207D16888401C68805046F9
:10270000FDF7EFFD0020DAE72FB95046FDF7E9FDB0
:102710002E48C01CD3E73048008820B1DFF8AC80D9
:1027200008F105084AE004F13C0000F0D7F8A08861
:1027300020F00400A080656204F13C09A08840F00C
:102740000800A0802869C088E188884203DDE1880C
:10275000286902F0A5FA494605F10800FFF7F1FCE7
:10276000781C68B1A08840F04000A080394620461F
:1027700002F014F95046FDF7B4FD00F0CBFA08E082
:10278000A08820F04000A0805046FDF7AAFD00F090
:10279000C1FA207900F0400070B1FDF79AFD824641
:1027A000A08820F04000A0805046FDF79AFDDFF899
:1027B0001C8008F1060805E0002080E75046FDF780
:1027C00090FD00BF40467AE770000020011D000226
:1027D0009800002018000020200000202DE9F04182
:1027E000064606EB46003949096801EBC004FDF7CF
:1027F00070FD80460A2E01D2207828B94046FDF7A8
:1028000070FD3348BDE8F0813248006828B1404689
:10281000FDF767FD2E48001DF4E72F480768608824
:1028200010B12069B84204D04046FDF75AFD28484F
:10283000E8E76088401E80B2608020B14046FDF726
:1028400050FD0020DEE72069C088A18A884203D0BD
:10285000A18A206902F024FA04F10800FFF745FC80
:1028600070BBE068A0F13C05E068FFF718FCA888A1
:1028700020F00800A880287900F0400030B12846F8
:1028800002F04AFBA88820F04000A8800120608068
:102890002561E888A08200206862287900F00200A3
:1028A00040B9A88840F00400A880E98805F13C0000
:1028B00000F020F84046FDF714FD00F02BFA02E08E
:1028C0004046FDF70EFD00209CE700007000002050
:1028D000011D0002980000201800002000BFD0E970
:1028E00000121160D0E900215160002141600160B7
:1028F00000BF704710B50A460649096801EBC203DC
:1029000019684C68446001604C682060486000BFF2
:1029100000BF10BD00000020014600200022074B30
:102920001B6803EBC1035A6801E0401C5268034B6B
:102930001B6803EBC1039342F7D1704700000020EE
:1029400000210020014612E00B4A126802EBC10090
:102950004268824201D1012200E000222AB90648E1
:10296000006800EBC10040687047481C0146202900
:10297000EAD30020F8E70000000000202DE9F84F1E
:1029800081460C4615469A460A9E15B91948BDE877
:10299000F88F4FF6FB70864202DD16480938F6E7DD
:1029A00004B116B91348401CF1E7FDF792FC8046CC
:1029B000301D82B26B462946204601F095FD074640
:1029C00027B14046FDF78DFC3846E0E7009814300B
:1029D000FFF7A9FB00981C30FFF7A5FB00982430F7
:1029E000FFF7A1FB0098C4814046FDF77AFC002068
:1029F000CDE700000C0600022DE9F0410646771EE7
:102A0000072F02D32548BDE8F081FDF762FC804620
:102A100007EB470000EBC7002149096801EB800480
:102A2000A08818B900BF1D4D6D1D31E004F11C00D8
:102A3000FFF763FB18B900BF184DED1C28E004F147
:102A40001400FFF75AFB18B900BF144DED1C1FE02E
:102A500004F12400FFF751FB18B900BF0F4DED1C26
:102A600016E0E089218A0844E188884203D000BF4B
:102A70000A4DAD1D0CE00B4821680068FFF767FCAC
:102A8000054615B100BF00BF02E00020A08000BFD6
:102A90004046FDF726FC2846B5E700000506000283
:102AA0007C0000208C0000202DE9FC5F80460F4652
:102AB00091461E4600200090A8F1010BBBF1070FC4
:102AC00002D34048BDE8FC9F17B93E48401CF9E7D7
:102AD000B9F1000F02D13B48801CF3E72EB13A4810
:102AE000006810B137480A30ECE7FDF7F2FB0190BF
:102AF0000BEB4B0000EBCB003449096801EB800481
:102B0000A08820B900BF2F480E30009054E0208AE2
:102B100050BB26B900BF2B480F3000904CE02C482A
:102B2000008820B100BF27480838009044E02948B9
:102B30000568324604F11C01284601F029FD019880
:102B4000FDF7CFFB00F0E6F8FDF7C3FB0190287915
:102B500000F0400058B1A88820F04000A88000BFD5
:102B60001848C01F009027E0208A401E20826189FB
:102B70002289206801FB020ADAF8000038606089C7
:102B8000401C80B26081E188884201D100206081D0
:102B900004F11400FFF7B1FA50B904F1140001F088
:102BA00039FD0198FDF79DFB00F0B4F8002089E79E
:102BB000E089401CE08100BF0198FDF792FB00987E
:102BC00080E700000E060002980000207C00002034
:102BD00020000020180000202DE9FC5F81460F46F0
:102BE00090461E4600200090A9F1010BBBF1070F93
:102BF00002D34348BDE8FC9F17B94148401CF9E7A0
:102C0000B8F1000F02D13E48801CF3E72EB13D48D9
:102C1000006810B13A480838ECE7FDF75AFB01901C
:102C20000BEB4B0000EBCB003749096801EB80044C
:102C3000A08820B900BF3248C01C00905BE020890A
:102C4000404504D200BF2E48001D009053E0E089AB
:102C500050BB26B900BF2A48401D00904BE02B48CE
:102C6000008820B100BF26480B38009043E0284878
:102C70000568324604F11401284601F089FC0198E8
:102C8000FDF72FFB00F046F8FDF723FB01902879B4
:102C900000F0400058B1A88820F04000A88000BF94
:102CA00017480A38009026E0E089401EE081A1899B
:102CB0002289206801FB020ACAF80070A089401C22
:102CC00080B2A081E188884201D10020A08104F176
:102CD0001C00FFF712FA50B904F11C0001F09AFC35
:102CE0000198FDF7FEFA00F015F8002082E7208A2F
:102CF000401C208200BF0198FDF7F3FA009879E7A5
:102D000011060002980000207C0000202000002016
:102D10001800002010B5FDF7DCFA0446FFF710FE9E
:102D20003C380A494860084600684968884208D02B
:102D30000748008828B92046FDF7D3FAFDF7D4FAF2
:102D400010BD2046FDF7CDFA00BFF9E718000020BE
:102D5000200000202DE9F04105460E4616B9164820
:102D6000BDE8F0814FF6FE70854202DD1248801DFD
:102D7000F6E7FDF7AEFA80461048FFF7C6F928B12E
:102D80004046FDF7AEFA0C48401CE9E70B4847689F
:102D90003846FFF78EF9A7F10804658001202070FE
:102DA00004F10800FFF7C2F9606830604046FDF7A3
:102DB00098FA0020D4E700000207000280000020FB
:102DC00070B505461348006800EB0514FDF781FA5D
:102DD00006460A2D01D2207820B93046FDF781FA47
:102DE0000D4870BD04F10800FFF78FF928B930468F
:102DF000FDF777FA08480830F3E704F108010748BF
:102E0000FFF72EF9002020703046FDF76AFA002007
:102E1000E7E7000088000020010700028000002092
:102E20002DE9F047074688463848006800EB07154B
:102E3000FDF74FFA82460A2F01D2287828B950466A
:102E4000FDF74FFA3248BDE8F0876888002807DDB3
:102E50006888401E68805046FDF743FA0020F2E77C
:102E6000B8F1000F02D12A4EF61C49E0294800684B
:102E700010B1274E361D43E02748008810B1244E7C
:102E8000761D3DE02548046804F13C00FFF726FD6F
:102E9000A08820F00400A080A56104F13C09A0886E
:102EA00040F00800A080494605F10800FFF751F9FD
:102EB00008F1010040B1A08840F04000A0804146E8
:102EC000204601F06BFD03E0A08820F04000A080C8
:102ED0005046FDF706FAFFF71DFF207900F040008D
:102EE00060B1FDF7F6F98246A08820F04000A0808E
:102EF0005046FDF7F6F9064EB61D05E00020A2E7A4
:102F00005046FDF7EEF900BF30469CE788000020F0
:102F10000107000298000020200000201800002077
:102F20002DE9F04106462A48006800EB06150A2EF6
:102F300002D32848BDE8F081FDF7CBF90746287891
:102F400020B93846FDF7CDF92248F3E768884FF6F7
:102F5000FE71884205D13846FDF7C3F91D48C01DF2
:102F6000E8E705F10800FFF7D0F848BBE868A0F1F2
:102F70003C04E868FFF79DF8A08820F00800A080D6
:102F8000207900F0400030B1204601F0C5FFA08854
:102F900020F04000A0800020A061207900F0020015
:102FA00040B9A08840F00400A080E18804F13C0012
:102FB000FFF7A0FC3846FDF794F9FFF7ABFE05E0FC
:102FC0006888401C68803846FDF78BF90020B1E71F
:102FD00088000020010700020149086070470000D6
:102FE0009400002010B50024FDF78EF8204610BD97
:102FF0002DE9F04705460E4617469846DDF8209025
:1030000015B91C48BDE8F08726B1012E02D0194839
:10301000401CF7E717B91748401EF3E7B8F1000F57
:1030200002D11448801CEDE7FDF753F9824612489F
:10303000006828B95046FDF754F90E48C01CE1E776
:103040000D4804680C49206808605046FDF749F9AE
:10305000E76166710020A071256165612060E06014
:10306000C4F81890012020712089A8F800000020E1
:10307000C8E70000010300020C0000202DE9F04128
:10308000044600274FF6FE70844202DB1948BDE873
:10309000F081FDF71EF98046072094FBF0F100FB5C
:1030A000114086B21448006800EB46152889A042FA
:1030B00004D04046FDF715F90E48E8E7287920B11D
:1030C000012809D002280BD102E00A4F7F1C0AE038
:1030D000284601F03FFC00BF284601F01FFC02E03B
:1030E000044F093700BF00BF4046FDF7FAF83846E5
:1030F000CDE7000005030002080000202DE9F041A3
:10310000044600274FF6FE70844202DB1948BDE8F2
:10311000F081FDF7DEF88046072094FBF0F100FB1C
:10312000114086B21448006800EB46152889A04279
:1031300004D04046FDF7D5F80E48E8E7287920B1DD
:10314000012809D002280BD102E00A4F7F1C0AE0B7
:10315000284601F0FFFB00BF284601F01DFB02E0FE
:10316000044F093700BF00BF4046FDF7BAF83846A4
:10317000CDE7000005030002080000202DE9F04122
:10318000044600274FF6FE70844202DB1848BDE873
:10319000F081FDF79EF88046072094FBF0F100FBDC
:1031A000114086B21348006800EB46152889A042FA
:1031B00004D04046FDF795F80D48E8E7287920B19E
:1031C000012805D002280AD105E0094F7F1C09E03B
:1031D000074F083706E0284601F0BCFB02E0044F29
:1031E000093700BF00BF4046FDF77BF83846CEE701
:1031F00005030002080000202DE9F04105460F46B6
:1032000000263946284600F045F8064616B13046F5
:10321000BDE8F081286800EB800101EBC00019498E
:10322000096801EBC004FDF754F88046A08820F03F
:103230000200A080A08840F00400A080E18804F192
:103240003C00FFF757FBFFF77BFB3C380E4948601B
:103250000E48006888B10E48008870B908460068BA
:103260004968884209D00A48008830B94046FDF7CD
:1032700038F801F00BFA0020CAE74046FDF731F8B4
:103280000020C5E714000020180000205000002096
:10329000200000202DE9F05F07460D464FF00009A1
:1032A0004FF0FF3A17B95748BDE8F09F15B9554898
:1032B000801FF9E7E86910B95248801EF4E72868D2
:1032C00010B95048C01EEFE7A8881F2802DD4D48FE
:1032D000001FE9E7A869B0F5205F02D94948193015
:1032E000E2E7A86910B94FF43470A8610821A86911
:1032F000FEF700FBA86110214FF49870FEF7FAFA70
:10330000A969884202D93F48401ECDE7FCF7E1FF9A
:10331000834611E03C484068A0F13C043A494868C3
:10332000FEF7B3FE04F13C013848FEF784FE38484E
:10333000E1680068FFF70BF83348FEF7CEFE00287F
:10334000E8D03248FEF7C9FE28B1DFF8B8A00AF18C
:103350000A0A00BF51E02D484068A0F13C042B4907
:103360004868FEF792FE5846FCF7BBFFD4F8109071
:1033700008222748A9690068FEF7B3FF06465EB930
:10338000FCF7A7FF834604F13C012048FEF753FEFB
:10339000DFF880A000BF30E032464846A96901F05E
:1033A0000DFE8046C4F80080A868A062E968E1626A
:1033B0002969216369696163E660A869A0600020EA
:1033C000A061E06160620220A080A088296A09B142
:1033D000802100E000210843A080A888E0802868C0
:1033E00060614FF0FF3020650020E065E869A06370
:1033F00000206066C7F8009056E75846FCF771FF5A
:10340000504651E70702000240000020380000202B
:103410008C0000200002000370B5044619480068C3
:1034200008B1194870BD1948008808B11848F9E773
:1034300014B900F0DDF9F5E7FCF74BFF0546154937
:10344000096801F13C00FFF749FA124800688088DA
:1034500020F004000F49096888800E490868214659
:1034600001F09CFA0B480068808840F02000094970
:10347000096888802846FCF734FFFFF74BFC0020E2
:10348000D0E70000980000200D020003200000207B
:103490000E020002180000202DE9F04106464FF010
:1034A000FF374D480068864202D14C48BDE8F081A4
:1034B0004B480068864202D348480D38F6E7FCF7CF
:1034C00008FF804606EB860000EBC6004549096808
:1034D00001EBC004A588207900F0010018B13F4F2E
:1034E0000A3F00BF73E005F0100028B13E48008895
:1034F00010B13E4F00BF6AE005F0040040B104F196
:103500003C00FFF7EBF9A08820F00400A08009E060
:1035100005F0080010B905F4005018B104F13C00A2
:10352000FEF7B3FD05F0600010B1204601F0F4FC99
:10353000A08820F00200A080A08840F00100A080B8
:103540004FF0FF3020650020E065FFF7F9F93C38C7
:1035500027494860207900F0100038B304F13C019D
:103560002448FEF7E6FD1E48006800EB800101EBF1
:10357000C0001C49096801EBC0001D4908600846ED
:1035800000680661A088096888801949E0680968B0
:10359000C8601749A06B096888630120A080404675
:1035A000FCF79FFE01F072F800207FE70120A08069
:1035B00004F13C011048FEF73EFD1048E168006848
:1035C000FEF7C5FE4046FCF78CFE00206EE7404645
:1035D000FCF787FE384669E7280000201402000245
:1035E0002400002014000020200000200B02000313
:1035F0001800002040000020380000208C0000202F
:1036000010B5FCF766FE044604480088401C0349D8
:1036100008802046FCF765FE10BD00002000002059
:103620002DE9F04105464FF0FF37072D02D9244818
:10363000BDE8F08105EB850000EBC5002149096874
:1036400001EBC004FCF745FE8046A68806F00100A9
:1036500018B11B4FFF1C00BF2CE006F0020018B988
:10366000174FBF1C00BF25E0A08820F00200A080FB
:10367000A08842F22A410840B8B9A08840F004006E
:10368000A080E18804F13C00FFF734F90E4800689F
:1036900030B14046FCF725FEFFF73CFB0020C7E7B2
:1036A000FFF74EF93C38094948604046FCF719FEDF
:1036B0000020BDE74046FCF714FE3846B8E700009E
:1036C0000702000214000020500000201800002013
:1036D0002DE9F04105464FF0FF372E48006885423E
:1036E00002D12D48BDE8F0812C480068854202D106
:1036F00029480D30F6E72A480068854202D326485B
:103700000D38EFE705EB850000EBC500254909689A
:1037100001EBC004FCF7DDFD8046A68806F0010041
:1037200018B11D4F0A3F00BF2FE006F0020018B18C
:10373000194F0C3F00BF28E006F0100028B11A48CE
:10374000008810B1194F00BF1FE006F0040038B127
:1037500004F13C00FFF7C2F8A08820F00400A0802C
:10376000A08840F00200A080114800680069A842CB
:1037700006D14046FCF7B5FDFFF7CCFA0020B1E7D3
:103780004046FCF7AEFD0020ACE74046FCF7A9FD43
:103790003846A7E728000020140200022C00002071
:1037A0002400002014000020200000201502000347
:1037B0001800002010B5FCF78CFD04460B4800886B
:1037C00000280DDD09480088401E08490880084689
:1037D000008828B92046FCF784FDFFF79BFA10BD4E
:1037E0002046FCF77EFD00BFF9E700002000002026
:1037F00070B500241C48006800691C4909688842AB
:1038000001D31B4870BDFCF764FD054616490968E5
:10381000C888FFF781F80446012C17D912490968B6
:1038200001F13C00FEF731FC0F480068808840F051
:1038300004000D49096888800B4A1268D1880A4A39
:10384000126802F13C00FFF755F805E02846FCF746
:1038500048FD07480930D5E72846FCF742FDFFF749
:1038600059FA0020CEE700001800002024000020B4
:1038700007020002014903C97047000058000020F8
:1038800010B5FCF726FD04460A480068401C0949AB
:1038900008602046FCF725FD01F00AFBFCF719FD46
:1038A000044604480068401E024908602046FCF7B0
:1038B00018FD10BD980000207047000029B1064A8D
:1038C00092690243044B9A6104E0034A926982437D
:1038D000014B9A617047000000100240F0B50021D2
:1038E0000024002300250022314E766806F00C01EA
:1038F00021B1042905D008292CD105E02D4E066000
:103900002BE02C4E066028E0294E3668012707EB95
:103910009664274E3668C6F30256731C244E7668AA
:1039200006F480352DB9244E6643B6FBF3F60660E7
:103930000FE01F4E766806F400362EB11F4E664328
:10394000B6FBF3F6066004E01A4E6643B6FBF3F6E8
:10395000066002E0174E066000BF00BF144E766896
:1039600006F0F0010909164E725C0668D640466002
:103970000F4E766806F4E061090A114E725C4668E3
:10398000D64086600A4E766806F46051C90A0C4E2D
:10399000725C4668D640C660054E766806F44041C3
:1039A000890B084E725CC668B6FBF2F60661F0BD84
:1039B0000010024000127A00001BB70000093D0011
:1039C000B9000020C900002010B500F001F810BDBA
:1039D0000CB50020019000903848006840F4803019
:1039E0003649086000BF3548006800F40030009098
:1039F0000198401C0190009818B90198B0F5A06F8B
:103A0000F1D12E48006800F4003010B10120009080
:103A100001E000200090009801284ED1284800685D
:103A200040F01000264908600846006820F00700B2
:103A300008600846006840F0030008601F484068BE
:103A40001E4948600846406848600846406840F49F
:103A5000806048600846406820F44030486008466E
:103A60000068C0F3130008600846406840F48030E6
:103A70004860084600681349084310490860084632
:103A8000006840F08070086000BF0C48006800F0DB
:103A900000700028F9D00948406820F00300074969
:103AA00048600846406840F00200486000BF034894
:103AB000406800F00C000828F9D10CBD001002404D
:103AC000002002400000104410B5FFF7D9FE10BDE1
:103AD00010B51548006840F0010013490860084619
:103AE000406812490840104948600846006810497B
:103AF00008400D4908600846006820F480200860EE
:103B00000846406820F4FE00486008460068C0F39C
:103B1000130008604FF41F008860FFF755FF4FF057
:103B200000600449086010BD001002400000FFF072
:103B3000FFFFF6FE08ED00E070B505460848006896
:103B4000401C07490860FFF795FE044604480168D9
:103B500004A000F089F8214607A000F085F870BDA8
:103B600010010020675F74696D6572636F756E7414
:103B7000313D25640A0000007469636B5F6C6173FA
:103B800074313D256C750A0070B50546FFF772FE6D
:103B9000044609480068401C074908600846016857
:103BA00006A000F061F8214609A000F05DF80021B0
:103BB0000620FEF74BF970BD14010020675F7469A1
:103BC0006D6572636F756E74323D25640A00000086
:103BD0007469636B5F6C617374323D256C750A00A8
:103BE00021B1826942F00102826104E082694FF6EC
:103BF000FE731A40826170472DE9F04385B0044698
:103C00000D460026B046B14600272746E66926F055
:103C10003606A888E9880843298908430643E661EF
:103C2000A66926F01F06A889698908430643A6618C
:103C30006846FFF753FE0B48874202D1DDF80C803F
:103C400001E0DDF808802868B8FBF0F00609286874
:103C5000B8FBF0F000F00F092662C4F8249005B01C
:103C6000BDE8F083003801400FB4054B10B503A93F
:103C7000044A029800F018F810BC5DF814FB00002C
:103C8000CD3F0008C001002002E008C8121F08C193
:103C9000002AFAD170477047002001E001C1121FCD
:103CA000002AFBD1704700002DE9FF4F8DB09B46E5
:103CB0000F460446002606E025280BD05A460F99E9
:103CC0009047641C761C20780028F5D111B030464E
:103CD000BDE8F08F0025A8460122984900E0054381
:103CE00014F8013F203B02FA03F00842F7D1207894
:103CF0002E2817D114F8010F45F004052A280ED0FC
:103D00006FF02F022078A0F1300109290AD808EBC2
:103D1000880102EB410100EB0108641CF2E757F84F
:103D2000048B641C20786C280DD004DC4C2812D045
:103D30006A2811D104E074280DD07A280CD10AE049
:103D400045F4001507E0617845F48015814202D101
:103D5000641C05F58015641C2278692A45D008DCAE
:103D6000002AB3D0582A69D0632A10D0642A08D117
:103D70003BE0702A67D0732A13D0752A5CD0782A6A
:103D80005CD010465A460F999047761CD3E017F83E
:103D9000040B8DF8000000208DF80100E946012099
:103DA00003E057F8049B4FF0FF3069074FF0000520
:103DB00001D40AE06D1C45450DDA8542FADB19F89D
:103DC00005100029F6D106E06D1C8542FCDB19F8D0
:103DD00005100029F8D12E4404E019F8010B5A46C9
:103DE0000F9990476D1EF8D2A5E00A200021CDE979
:103DF0000801C5F3025002280DD001CFC117031EE0
:103E000071F100030DDA4FF0000CD0EB0C006CEBFD
:103E100001012D2308E0FF1D27F00707F7E8020145
:103E2000EDE72B0504D52B238DF8283001233BE04B
:103E3000EB0739D02023F7E70A2000E0102000210B
:103E4000CDE9080107E01020002145F00405CDE987
:103E500008014FF00808C5F3025002280FD001CF27
:103E600000214FF0000A2B071FD5702A0DD0DDE985
:103E700008C38CF0100C5CEA030C0CD015E0FF1D9D
:103E800027F00707F7E80201EBE740228DF828202A
:103E90004FF0010A0BE050EA010306D030238DF801
:103EA00028308DF8292002239A46582A04D024A2CB
:103EB0000DF120090B9209E026A2F9E7DDE90823BC
:103EC000FCF762F90B9B9B5C09F8013D50EA01028B
:103ED000F4D1ADEB090020300890680701D44FF011
:103EE00001080899884502DDA8EB010000E00020E8
:103EF0008046002506E00AA85A46405D0F99904783
:103F00006D1C761C5545F6DB04E030205A460F99AF
:103F10009047761CB8F10001A8F10108F5DC05E036
:103F200019F8010B5A460F999047761C0899481EBC
:103F300008900029F4DC641CC5E600000928010093
:103F4000303132333435363738396162636465660F
:103F500000000000303132333435363738394142D1
:103F60004344454600000000034800680349B0FB95
:103F7000F1F0034908707047A400002040420F0090
:103F8000B800002070B5034600224FF0E0267569A6
:103F90000D4E367803FB06F44FF0E026B16910E0D1
:103FA0004FF0E026B06988420BD0884202D20E1A48
:103FB000324402E02E1A0E4432440146A24200D39B
:103FC00000E0EDE700BF70BDB800002070B504460A
:103FD0000D46E0B2FDF70EFD204670BD10B500287D
:103FE00021D0114B0022001F196803E0814203D841
:103FF0000A4649680029F9D152B11368841A9C42D3
:1040000004D1006818441060104602E0506000E0DF
:10401000186039B102680B1A934203D10B681A4435
:1040200002604968416010BDC401002010B5FFF76F
:104030009BFFFDF7F7FF04460CB1012010BDFDF713
:104040008EFCFDF7C9FCFDF731FFFEF7CBFF00BF8B
:10405000FEE700F03DF800BFFEE7000010B51024B9
:1040600004E00548054941F82400641CFF2CF8D9F8
:10407000FFF722FC10BD000053400008C8010020DB
:1040800000BFFEE710B58AB0242101A8FCF7B4F800
:104090000A4801904FF44070079009A008901F2033
:1040A000ADF8080001A90948FFF7A6F8044614B1C5
:1040B00020460AB010BD0020FBE700008140000848
:1040C00049646C65436F7265303030002800002011
:1040D00010B5FCF7F9F80446204610BD10B500F005
:1040E000C7FA00F09DF904460CB1204610BD1648F1
:1040F000007808B1FFF7B2FF00F006FD04460CB1EE
:104100002046F3E700F0C6FA04460CB12046EDE77E
:1041100000F098F904460CB12046E7E700F01CFADD
:1041200004460CB12046E1E700F0E0FA04460CB189
:104130002046DBE700F03AFFFFF7A4FF04460CB18E
:104140002046D3E70020D1E7245200082DE9F041B2
:1041500007460E46002406F1130020F00305294609
:10416000384600F06DF8044614B90020BDE8F0812F
:1041700005F11400E168814204D32A4621463846FD
:1041800000F020F92046FDF79EFF204600F00AF9D6
:10419000E06840F00040E060E16821F0004000F09D
:1041A00061FD04F11000E1E72DE9F84F05460C46EA
:1041B0002E4605F1E00870682844A0F1100A7068E6
:1041C00047194FF000092B465246414620460097BA
:1041D00000F0B7F810B90120BDE8F88FE06800F0F2
:1041E000004008B90120F7E7E06820F0004000EB4C
:1041F00004092B46524641464846009700F0A1F874
:1042000008B90120E8E7D9F80800A04201D0012050
:10421000E2E7444512D000972B4652464146A0683B
:1042200000F08FF808B90120D6E7A068C16821F036
:1042300000410844A04201D00120CDE70020CBE797
:1042400070B505460E460024314605F10800FDF71D
:1042500071FB044618E000206168084605E0C1686B
:10426000B14200D370BD41680846A042F7D105F1C4
:1042700008002146024602F1D0038B4201D10023FF
:1042800001E001F108031C46002CE4D10020E9E71D
:104290002DE9F04104460E460027B846E16821F0BA
:1042A000004000F0C5FCE06820F00040E060A0683D
:1042B00048B3A068C06800F0004020BBA568204655
:1042C00000F05EF8E86820F000404719F86800F058
:1042D000004028B93846FDF7F6FE384600F050F8A1
:1042E0002846FDF7F0FE06F10800E968FDF722FB1D
:1042F0008046B8F1000F01D1BDE8F0812946404663
:10430000FDF7B5FE1BE0E06820F000400719F868F3
:1043100000F0004028B93846FDF7D5FE384600F0D9
:104320002FF806F10800E168FDF704FB8046B8F1BC
:10433000000F00D1E0E721464046FDF798FE00BFA0
:10434000DAE730B50446039DA14201D8944201D971
:10435000002030BDE06800F0004038B120686040C7
:10436000401C08B10020F4E70120F2E720689842E1
:1043700002D32068A84201D30020EAE70120E8E741
:1043800000218268D268C3681A448368DA60C26810
:10439000111882688A6000BF002202604260826059
:1043A00000BF7047C14301600549096821B1044954
:1043B00009680969416002E04FF0FF3141607047D0
:1043C000180000202DE9F04780460D4616460024CF
:1043D0000027A146AC19A560E868801BE060EE608C
:1043E000E06820F000400719BC60F86800F0004069
:1043F00028B93846FDF767FE3846FFF7C1FF08F1D8
:104400000800E168FDF796FA8146B9F1000F01D185
:10441000BDE8F08721464846FDF729FE00BFF7E7D3
:1044200010B50648064908604FF42051044800685A
:10443000FDF7B7FF0446204610BD00002C06002003
:104440008C00002070B51248FDF76AFEF02111487B
:104450000068FDF729FF104908600846006808B9A0
:104460000E4870BD00240EE004EB44000A490968C0
:1044700001EBC0056C600020287005F108010448BC
:10448000FDF75FFE641C0A2CEED30020E9E7000074
:10449000740000208C00002070000020001D00022D
:1044A00070B5002400254FF4807529460C4800683B
:1044B000FDF7FAFE0B4908600846006800B970BDB8
:1044C0000020044608E00749096801EBC400406089
:1044D000006000BF601C0446202CF4D300BFEEE750
:1044E0008C000020000000202DE9F0470646884699
:1044F0001746994615480468002507E0A08818B9B2
:10450000681CC8F8000003E06D1C2C34072DF5D39F
:1045100000BF072D02D10E48BDE8F0872C212046B0
:10452000FBF76AFE06FB07F10A480068FDF7BCFED0
:104530002060206810B90648801EEDE7E6802781DC
:104540000120A080C9F800400020E5E77C000020A1
:10455000040600028C00002010B54FF49A7109483F
:104560000068FDF7A1FE084908600846006808B920
:10457000064810BD4FF49A7103480068FBF73CFEF3
:104580000020F6E78C0000207C00002001060002DD
:104590002DE9F04104460D4617464FF0000800266D
:1045A00004F13C00FEF79AF9A08820F00400A080F6
:1045B00004F13C08A08840F40050A0802846FDF794
:1045C0009CFD30B100BF41462868FDF742FD00BFA9
:1045D00014E06868A0F13C0607E0E088F1888842B2
:1045E00000DA06E0306CA0F13C0606F13C00A8427F
:1045F000F3D100BF4146F06BFDF72BFD781C38B1BD
:10460000A08840F04000A0803946204600F0C6F95E
:10461000BDE8F08170B505466868A0F13C046868A3
:10462000D0E900121160D0E9002151600021416001
:10463000016000BFA08820F40050A080207900F025
:10464000400030B1204600F067FCA08820F0400018
:10465000A080207900F0020040B9A08840F004005A
:10466000A080E18804F13C00FEF744F970BD000031
:1046700008200349086003480349086070470000A8
:10468000240000202C2E00209000002010B5FBF705
:104690002BFE10BD70B51148FDF748FDA021104854
:1046A0000068FDF701FE0F4908600846006808B978
:1046B0000D4870BD00240CE00A48006800EB0415AA
:1046C0006C600020287005F108010448FDF741FDE9
:1046D000641C0A2CF0D30020EBE7000080000020CF
:1046E0008C00002088000020000700022DE9F8431C
:1046F0000020224908604FF0E00841462048006849
:10470000FDF7D2FD044614B91E48BDE8F8834146C2
:104710002046FBF771FD1C4804601C480460002023
:10472000208125462034012705E027812C6025467D
:10473000781C87B22034072FF7DB08226421144845
:10474000FDF702FF064616B10E48C01CDDE7042047
:104750000023104A072100901846FEF70FF906467D
:1047600016B10848001DD0E700F06EF8064616B1F5
:104770000448401DC9E70020C7E7000010000020E2
:104780008C00002007030002080000200C0000201D
:10479000C80500200400002010B500220021837904
:1047A0003BB9437913B14379022B02D14369C3600A
:1047B00001E00369C3600F4B19680AE0CB68C46865
:1047C000A34200D907E0C368CC681B1BC3600A463C
:1047D00009680029F2D100BF016019B1CB68C46833
:1047E0001B1BCB6012B9034B186000E01060022362
:1047F000037110BD100000200EB50020029000BF14
:104800004FF0FF33042202A90D480068FEF74CF96F
:104810000446002CF4D102980028F1D002980068D8
:10482000009002984068019006480299FDF73AFE10
:1048300000980028E4D0DDE900108847E0E7000098
:1048400004000020C805002010B58AB0242101A86A
:10485000FBF7D2FC094801904FF43470079008A090
:1048600008900020ADF808008020099001A90748B1
:10487000FEF7C2FC044620460AB010BDF947000806
:104880005377745F5461736B000000002C000020AC
:1048900070B51F48046835E01D49206808601D4850
:1048A000FDF7D2FD05467DB1E0692860A06968602A
:1048B00000230422294618480068FEF78DF918B134
:1048C00029461448FDF7EEFD607998B9204600F0BE
:1048D00025F820894FF6F771884203DA2089C01D38
:1048E00020810DE02089072190FBF1F201FB1200ED
:1048F000208105E0A079401CA0712046FFF74CFF05
:104900000348046814B1E0680028C5D070BD0000F9
:1049100010000020C8050020040000200349096899
:104920000160024908600021017170470C000020FD
:1049300010B50748006848B105480068C068401EC7
:1049400003490968C86008B9FFF7A2FF002010BD3D
:104950001000002010B50246002100200E4B186800
:1049600001E0014600689042FBD103682BB1036867
:10497000DB68C46823440468E36019B9064C036823
:10498000236001E003680B600023036001230371CF
:104990000023837110BD0000100000202DE9F047B6
:1049A0000446884608F01F074FEA581907B101E08E
:1049B000A9F10109E06C00F0784040EA0900E064E8
:1049C00025488088074407F01F07E06C67F3DF6025
:1049D000E0642148006800EBC7067068B04205D16A
:1049E00004F144013046FDF7A4FB33E07068A0F108
:1049F000440500BFE86C20F07840E16C21F078417C
:104A000088420CD8E06C20F07840E96C21F07841C5
:104A1000401AE16C01F078410843E0640CE0E86C76
:104A200020F07840E16C21F07841401AE96C01F007
:104A300078410843E86406E0A86CA0F1440505F15C
:104A40004400B042D6D100BF04F1440105F1440056
:104A5000FDF76FFBBDE8F087480000202DE9F0412D
:104A6000054605EB850000EBC5002349096801EB0D
:104A7000C004E06930B1666904F128000FC8B0478E
:104A8000206204E0666904F128000FC8B04720796D
:104A900000F0800050B1FBF71CFC074600201749CE
:104AA00008803946206900F085F922E0FBF711FC07
:104AB00007460020114908803846FBF712FCFEF734
:104AC0009FFDE06928B1E1694868FEF729FA0020F6
:104AD000E061207900F0040038B104F13C00FDF7FA
:104AE000FDFEA08820F00400A080FEF763FEFEF724
:104AF00011F9BDE8F0810000140000202000002022
:104B0000FBF7E5FB00BFFEE770B540480068401CBE
:104B1000682100FB01F631463D480068FDF7C4FB03
:104B20003C4908600846006808B93B4870BD3146FA
:104B300038480068FBF760FB3848FDF7EEFA384864
:104B4000FDF7EBFA3748FDF7E8FA002420E00120F2
:104B500004EB840101EBC4012E4A126802EBC1018F
:104B6000888004EB840000EBC4002A49096801EB4B
:104B7000C000046104EB840000EBC400254A126805
:104B800002EBC00000F13C012548FDF7D2FA641C9D
:104B9000072CDCD924480021016041601B480068D3
:104BA00000EB800101EBC0001A49096801EBC0006D
:104BB0001D49086008460068046111200968888062
:104BC000202019490968C880FFF76AFC4FF48076F5
:104BD00031460F480068FDF767FB05460DB90E48E2
:104BE000A4E731462846FBF707FB10480560002084
:104BF0000E498880002404E02846FDF78EFA641CE4
:104C00000835202CF8D3002090E700002400002075
:104C10008C0000201400002000020003300000205F
:104C2000380000204000002018000020480000202C
:104C30000146094A12681069072800D97047074AD7
:104C4000126802B1FAE7064A52F82020521A044BC1
:104C500043F8202000BFF1E7180000209800002052
:104C60002C2E002001460B4A126802B970470A4AEE
:104C7000126802B1FAE7074A12681069072800D9DA
:104C8000F4E7064A52F820200A44044B43F8202057
:104C900000BFEBE718000020980000202C2E002019
:104CA00070B504460D46207900F0040090B104F17F
:104CB0003C00FDF713FEA08820F00400A080E580F2
:104CC000A08840F00400A080E18804F13C00FDF7DA
:104CD00011FE00E0E58070BD2DE9F0410027344968
:104CE0008988481CC11700EBD1614911A0EB411123
:104CF0002F4A9180104600681146898800EBC10553
:104D00006868A84201D1BDE8F0816868A0F1440458
:104D100043E0A688E06C20F0784018B1E06C401EBB
:104D2000E0643EE004F14400FDF7AFF906F008004E
:104D300058B1A08820F00800A08004F13C00FDF7E5
:104D4000A4F90020A061606217E006F4806020B141
:104D5000A08820F48060A0800FE006F4005040B1ED
:104D600004F13C00FDF791F9A08820F40050A080E8
:104D700003E0A08820F02000A08006F0020048B9DF
:104D8000A08840F00400A080E18804F13C00FDF719
:104D9000B1FD01276868A0F1440404F14400A84271
:104DA000B7D100BF0FB1FDF7B5FF00BFABE7000003
:104DB000480000202DE9F04105460F4605EB85002F
:104DC00000EBC5003649096801EBC004A68806F06F
:104DD000040040B104F13C00FDF780FDA08820F004
:104DE0000400A0800DE042F20800304048B104F118
:104DF0003C00FDF74AF906F0600010B1204600F0D3
:104E00008BF8A08820F00200A080A08840F001006C
:104E1000A0804FF0FF3020650020E065FDF790FD99
:104E20003C3820494860207900F0100040B304F17C
:104E30003C011D48FDF77DF91C48006800EB80012E
:104E400001EBC0001649096801EBC0001549086074
:104E5000084600680561A088096888801149E068F3
:104E60000968C8600F49A06B096888630120A080A9
:104E70003846FBF736FAFFF709FC0020BDE8F08161
:104E8000207900F0010030B13846FBF72AFAFFF72D
:104E9000FDFB0020F2E73846FBF723FA0020EDE7A0
:104EA00014000020180000204000002024000020F2
:104EB00010B50848D0E900305A1C40F100000549FF
:104EC000C1E9002000F04CF8FFF706FFFFF730FDC6
:104ED00010BD00005800002010B500240B480C49FC
:104EE000086008460068FEF777F809480068401E29
:104EF0004FF0E021486170200649087000204FF013
:104F0000E021886107200861204610BD401901009A
:104F10009C00002023ED00E02DE9F0410446E06C08
:104F2000C70E0E48006800EBC706A06CB0420ED05A
:104F3000A06CA0F14405E86C20F07840E16C21F011
:104F400078410844E96C01F078410843E86404F1D1
:104F50004400FDF79AF8BDE8F08100004800002009
:104F600010B50F4800680F49096888420BD00D48FA
:104F700000680B4908600846C1880B48008808444F
:104F8000401E07498880064881880748008880B20B
:104F9000814204D1002002490860FEF729FC10BDBF
:104FA000680000201800002058000020002002495E
:104FB00008600A20C88070476800002030B50446A9
:104FC000012304E04FF0CA3542F823505B1CB3EBD9
:104FD000910FF7D34FF0CC3515605518A5F144006B
:104FE0004FF0043505604FF0053545604FF006354C
:104FF00085604FF00735C5604FF0083505614FF00B
:10500000093545614FF0103585614FF01135C561A7
:105010000025056244624FF0013585626D00C5626E
:105020004FF0033505634FF012354563034D85633B
:10503000034DC5634FF08075056430BD014B00081A
:105040005D4A00082DE9F84306460F46904699460A
:105050000024002515E0002318226946174800683F
:10506000FDF722FD044624B1214615A0FEF7FCFD04
:1050700008E01BA00099FEF7F7FD6D1C0520FEF768
:10508000CBF9E8E700BF02E00120FEF7C5F90B48C5
:105090000068FDF7B1FC0028F6D116A0FEF7E4FD8C
:1050A000052D04D100210220FCF7D0FE03E00121F0
:1050B0000220FCF7CBFE0020BDE8F883D8000020DA
:1050C00072656376206D65737361676520666169DB
:1050D0006C7572652C6572726F723A25780A0000E1
:1050E00072656376206D6573736167653A25730A2F
:1050F0000000000064656C6574652074686520714B
:10510000756575652073756363657373210A0000A7
:105110002DE9F0470746884691469A460024002527
:10512000122616E004F13000C1B2B01E0B4A115431
:10513000641C00233246094909480068FDF74CFD0C
:1051400005461DB1294607A0FEF78EFD0520FEF796
:1051500063F9052CE6D30020BDE8F087DC000020D1
:10516000D800002073656E64206D65737361676598
:10517000206661696C7572652C6572726F723A2572
:10518000780A000000BF0549096801F00101002903
:10519000F9D0C1B2014A083A11607047083801409D
:1051A00010B586B00446012144F20400FEF786FBE8
:1051B00001943020ADF808000020ADF80A00ADF8E9
:1051C0000C00ADF810001020ADF80E0001A9114838
:1051D000FEF712FD01210F48FEF702FD4FF40070AB
:1051E000ADF8140003208DF8160018208DF8170074
:1051F00005A90948FCF700FA4FF48060ADF81400E7
:1052000004208DF8170005A90348FCF7F5F906B04E
:1052100010BD0000003801400008014000A24A040F
:10522000E8030000000000004578616D706C655F68
:1052300053656D5461736B312074696D656F75745E
:1052400020616E6420747279206765742073656DC7
:1052500020675F757353656D4944207761697420D9
:10526000666F72657665722E0A0000008C52000827
:1052700000000020C8050000700200084C53000820
:10528000C8050020E82E0000983C000801A042015B
:105290007CA24A04107808020304060708090D6975
:1052A00011F50204060800123474657374206973E2
:1052B000206D657373616765207822FF13E1113EED
:1052C000085441534B73191013510D370845564577
:1052D0004E542A0220120555084D53471A03101345
:1052E000F90B550853454D1A04101B01072035557D
:1052F0005445581A05101A09302753595354494335
:105300001A06101BF1146035494D45521A07101347
:105310005D132D084C49535F111A08101BA50E3060
:105320003B5F4D522A098012035B084410C11B6584
:1053300001280A1040040110A91813F3020C1008E8
:0C534000C93A2401FF01FF01FF01B30086
:04000005080000F5FA
:00000001FF
